:100000002FC100005EC100005CC100005AC10000A9
:1000100058C1000056C1000054C1000052C1000088
:1000200050C10000A7C70000A5C70000A3C700007B
:1000300048C1000046C1000044C1000042C10000A8
:1000400040C100003EC100003CC100003AC10000B8
:1000500038C1000036C1000034C100000C949A1869
:1000600030C100000C94240A0C94FA092AC1000043
:1000700028C1000026C1000024C1000022C10000E8
:1000800020C100001EC100001CC100001AC10000F8
:1000900018C1000016C1000014C1000012C1000008
:1000A00010C100000EC100000CC100000AC1000018
:1000B00008C1000006C1000004C1000002C1000028
:1000C00000C10000FEC00000FCC000000C94D0097C
:1000D0000C94A609F6C00000F4C00000F2C00000B5
:1000E000F0C000001F152415291533153D15B61550
:1000F00047154F15571561156B15751584158E1518
:10010000B6159815A215AC150A170D17FC16001791
:1001100006174417111715171B171F172317291731
:100120002D173117441737173B173F1700002100D1
:10013000240027002A002D003000330001010000B8
:10014000040107010A0101021020200808102040C4
:10015000102040800201020108040201010204088B
:100160001020408080402010080402018004020119
:100170008040201008040201080402010102040862
:10018000102040800102040810204080050505056C
:10019000070508080808020202020A0A08080404FF
:1001A000040401010101010101010303030303032D
:1001B0000303040707070C0C0C0C0C0C0C0C0202BC
:1001C000020206060606060606060B0B0B0B0B0BB9
:1001D0000B0B7C3C3E5E2B3D3F2F5B5D3B2C2A2274
:1001E0005C0000000A0B02090C0D0E080703040155
:1001F00000000000000000000000000000000000FF
:1002000000000000000000000000000000001211CB
:1002100010000000000000000000000000000000CE
:10022000000000000000000000002200250028005F
:100230002B002E00310034000201000005010801EE
:100240000B01000020002300260029002C002F00B5
:100250003200000100000301060109017E21731C28
:1002600011241FBECFEFD1E2DEBFCDBF00E00CBF37
:1002700015E0A0E0B2E0E6E1F5E500E00BBF02C06A
:1002800007900D92A430B107D9F729E0A4E0B5E0BA
:1002900001C01D92A63EB207E1F711E0CFE2D1E026
:1002A00000E006C021970109802FFE010E943E2533
:1002B000CE32D10780E00807A9F70E948B1C0C946E
:1002C0007A2A9ECEDC015996ED91FC915A9730978F
:1002D000B9F083899489A589B68942855385648557
:1002E0007585841B950BA60BB70B811520E892072B
:1002F000A105B10538F08FEF9FE7A0E0B0E00895C9
:1003000080E090E00895CF93DF931F92CDB7DEB7E2
:100310006983DC01ED91FC910280F381E02D41E0E5
:1003200050E0BE016F5F7F4F19950F90DF91CF9125
:100330000895089580E090E0089597FF08C02DE2A9
:100340002093050591958195910931E001C030E038
:10035000803127E292070CF46FC080324EE494079C
:1003600034F0803325E7920724F023E003C021E036
:1003700001C022E0E1E0E30FA32FB0E0AB5FBA4F92
:1003800040E3420F4C9360EF78ED269FA001279F3A
:10039000500D1124840F951F883E43E094070CF400
:1003A00044C03E2F883823E1920784F4883B4BE019
:1003B000940734F4803D27E09207E4F022E023C064
:1003C000803A4FE09407C4F024E01DC080342FE150
:1003D000920754F4803747E1940784F088352BE185
:1003E000920774F027E00FC0883243E2940754F07C
:1003F00029E009C021E007C023E005C025E003C0D3
:1004000026E001C028E0E32FF0E0EB5FFA4F40E385
:10041000420F408368E17CEF269FA001279F500D8B
:100420001124840F951F3F5F4DC03E5FF0E0EB5FEE
:10043000FA4F20E3208346C0883E23E092070CF069
:10044000B1CF843691050CF48AC0843F21E0920735
:100450007CF48C3241E094072CF4883C9105E4F064
:1004600022E023C0803921E09207C4F024E01DC0BF
:10047000803243E0940754F4883522E0920784F0F8
:100480008C3B42E0940774F027E00FC0843823E0EF
:10049000920754F029E009C021E007C023E005C01D
:1004A00025E003C026E001C028E0E32FF0E0EB5F89
:1004B000FA4F40E3420F408344E6249F801991099C
:1004C00011240AC0843691050CF0BFCFE32FF0E071
:1004D000EB5FFA4F20E320833F5F61E0282F71E05C
:1004E000730F432F50E08A308CF1823354F48E31F5
:1004F00024F48431ACF022E01CC088329CF024E06B
:1005000018C0803544F48C33910574F0863491051D
:100510006CF027E00EC08A35910554F029E009C03F
:1005200021E007C023E005C025E003C026E001C0AC
:1005300028E0FA01EB5FFA4F90E3920F9083482F87
:100540003AE0239F40191124242F07C0662349F065
:10055000FA01EB5FFA4F80E38083372F02C060E03F
:10056000BDCFE32FF0E0EB5FFA4F205D20833F5FCC
:10057000E32FF0E0EB5FFA4F108285E095E00895FD
:10058000E0914607F09147070084F185E02D86E46D
:1005900097E01995892B71F0E0914607F091470794
:1005A0000284F385E02D86E497E0199590931F056A
:1005B00080931E050895FC01818D928D009711F0A6
:1005C0000C94510B0895CF93DF93EC01898D9A8D94
:1005D000009739F481E090E09B838A8380E090E08B
:1005E0000BC0FC01138212820E949410E98DFA8DD7
:1005F00022813381232B71F7DF91CF910895EF9200
:10060000FF920F931F93CF93DF93EC017B018A013D
:100610001B821A8288EE93E0A0E0B0E08C839D8379
:10062000AE83BF838AE192E0998388838DE190E075
:100630000E945A259A8F898F009779F02DE1F70152
:10064000DC0101900D922A95E1F74CE050E0B801F1
:10065000CE010C960E94A227188EDF91CF911F9198
:100660000F91FF90EF9008951092070262E772E0F9
:1006700083EE97E00C944F1C81E08093070263E8BF
:1006800072E083EE97E00C944F1C63E972E083EE16
:1006900097E00C944F1C109225051092240510929F
:1006A000040568EA72E083EE97E00C944F1C81E049
:1006B00090E090932505809324058093040564EBD6
:1006C00072E083EE97E00C944F1CEF92FF920F9331
:1006D0001F93CF93DF93CDB7DEB7C257D1090FB6C3
:1006E000F894DEBF0FBECDBF8C017B016CEA78E0D1
:1006F000CE0101960E942E12BE016F5F7F4FCE0188
:10070000CB960E942E1219A218A280E592E09F8F2C
:100710008E8F1BA221969FAD219791111CC06C96C4
:100720001FAE1EAE6C9788EE93E0A0E0B0E0A096FE
:100730008CAF9DAFAEAFBFAFA0978AE192E06A9653
:100740009FAF8EAF6A97E3961FAE1EAEE397A59656
:100750001FAEA59733C0925023E14FEB52E0923089
:1007600048F46CEA78E0CE014E960E942A0D811181
:100770000EC0D5CFBE01655C7F4FCE014E960E9464
:100780002A0D882361F2CE01CB960E94DE0E49A984
:100790005AA96BA97CA9CE014E96C1D7BE01625E53
:1007A0007F4FCE0101960E942E124FEB52E0BE0108
:1007B0006F5F7F4FCE01885A9F4F21DFE396EEADEA
:1007C000FFADE3973097C1F085818823A9F0A70199
:1007D000B801CE01885A9F4FF6DEE3968EAD9FADED
:1007E000E397009789F00E94DE0EE3968EAD9FADF1
:1007F000E3970E94EF2508C06BEC72E083EE97E070
:100800000E944F1C10920702CE58DF4F0FB6F8948B
:10081000DEBF0FBECDBFDF91CF911F910F91FF9033
:10082000EF9008951F93CF93DF93CDB7DEB728974E
:100830000FB6F894DEBF0FBECDBF809107028111C5
:1008400002C010E301C011E36DE074E0CE01019637
:100850000E94D01B1F83188641E050E0BE01695FF3
:100860007F4FCE0101960E94EA156DE074E0CE0143
:1008700001960E941716BE016F5F7F4F83EE97E0CF
:100880000E94611CCE0101960E947C1628960FB62C
:10089000F894DEBF0FBECDBFDF91CF911F910895B9
:1008A0000F931F93CF93DF9300D000D0CDB7DEB767
:1008B000809120059091210540DD8C0168EF73E067
:1008C000CE0101960E94D01BB801CE0101960E9474
:1008D000171663EE72E0CE0101960E941716BE0154
:1008E0006F5F7F4F83EE97E00E94611CCE010196FF
:1008F0000E947C1626960FB6F894DEBF0FBECDBFC1
:10090000DF91CF911F910F9108951F93CF93DF93A4
:10091000CDB7DEB728970FB6F894DEBF0FBECDBFB8
:100920008091240590912505019711F010E301C0F5
:1009300011E368EF73E0CE0101960E94D01B1F8384
:10094000188641E050E0BE01695F7F4FCE010196FD
:100950000E94EA1568EF73E0CE0101960E94171617
:10096000BE016F5F7F4F83EE97E00E94611CCE0156
:1009700001960E947C1628960FB6F894DEBF0FBE33
:10098000CDBFDF91CF911F9108950F931F93CF9308
:10099000DF9300D000D0CDB7DEB7809103029091F5
:1009A0000402CBDC8C0163E074E0CE0101960E946E
:1009B000D01BB801CE0101960E94171665EE72E0B9
:1009C000CE0101960E9417168091010290910202B9
:1009D000B4DCBC01CE0101960E94171665EE72E0F0
:1009E000CE0101960E94171680910C0590910D057D
:1009F000A4DCBC01CE0101960E94171667E074E0EA
:100A0000CE0101960E941716BE016F5F7F4F83EEE5
:100A100097E00E94611CCE0101960E947C162696EA
:100A20000FB6F894DEBF0FBECDBFDF91CF911F91FF
:100A30000F9108950F931F93CF93DF9300D000D0B1
:100A4000CDB7DEB7809122059091230576DC8C012D
:100A500060EF73E0CE0101960E94D01BB801CE0179
:100A600001960E94171660EF73E0CE0101960E9476
:100A70001716BE016F5F7F4F83EE97E00E94611CE7
:100A8000CE0101960E947C1626960FB6F894DEBF22
:100A90000FBECDBFDF91CF911F910F9108950F939E
:100AA0001F93CF93DF9300D000D0CDB7DEB78091F6
:100AB0001E0590911F0541DC8C0163EE72E0CE01B2
:100AC00001960E94D01BB801CE0101960E94171614
:100AD00067E074E0CE0101960E941716BE016F5FB9
:100AE0007F4F83EE97E00E94611CCE0101960E9429
:100AF0007C1626960FB6F894DEBF0FBECDBFDF91F1
:100B0000CF911F910F9108950F931F93CF93DF9370
:100B100000D000D0CDB7DEB780911E0590911F05A3
:100B20000CDC8C0168EF73E0CE0101960E94D01BB3
:100B3000B801CE0101960E94171665EE72E0CE0153
:100B400001960E9417168091200590912105F5DBF2
:100B5000BC01CE0101960E94171665EE72E0CE012F
:100B600001960E9417160E94BE2228E532E040E05E
:100B700050E00E943D24DC01CB0180579E4FAF4FD7
:100B8000BF4FDBDBBC01CE0101960E94171665EE5C
:100B900072E0CE0101960E94171667EE72E0CE0158
:100BA00001960E9417166BEE72E0CE0101960E942C
:100BB0001716BE016F5F7F4F83EE97E00E94611CA6
:100BC000CE0101960E947C1626960FB6F894DEBFE1
:100BD0000FBECDBFDF91CF911F910F9108950E945D
:100BE0003813009759F00E94CA2290930D05809304
:100BF0000C05BC0183EE97E00C9440136DEE72E09F
:100C000083EE97E00C944F1C0E943813009759F024
:100C10000E94CA229093020280930102BC0183EEDB
:100C200097E00C9440136DEE72E083EE97E00C9425
:100C30004F1C0E943813009759F00E94CA229093CB
:100C4000040280930302BC0183EE97E00C944013EE
:100C50006DEE72E083EE97E00C944F1C0E94381307
:100C60000097A1F00E94CA2290932105809320054D
:100C7000AC0160E070E02AE083EE97E00E94071C80
:100C80006AEF72E083EE97E00C94F21B6DEE72E077
:100C900083EE97E00C944F1C0E9438130097A1F04C
:100CA0000E94CA229093230580932205AC0160E044
:100CB00070E02AE083EE97E00E94071C6AEF72E082
:100CC00083EE97E00C94F21B6DEE72E083EE97E0FA
:100CD0000C944F1C60E08DE00E9410186DEF72E0E4
:100CE00083EE97E00C944F1C61E08DE00E94101899
:100CF00068E073E083EE97E00C944F1C2F923F92D4
:100D00004F925F926F927F928F929F92AF92BF921B
:100D1000CF92DF92EF92FF920F931F93CF93DF93C7
:100D20001F921F92CDB7DEB7FC018581882309F49D
:100D3000D9C0848180FFD6C021E02A8343895489A9
:100D40006589768982859385A485B5854817590775
:100D50006A077B0709F41A826F013A81832F90E0BA
:100D6000DE0111964D013F01B6E06B0E711C892B1F
:100D700009F47DC0D6011A964D915D916D917C91DB
:100D80001D975A01B1E0BB22F60125811A012B0102
:100D900089E056944794379427948A95D1F7838DA8
:100DA000948D223061F4FC01828D938DA48DB58DDC
:100DB000BC01CD01620D731D841D951D45C0DC0174
:100DC00014961C9111501221A114B104D1F41111E7
:100DD00018C0452B462B472B51F4F6018789908D7F
:100DE000A18DB28D86839783A087B1870AC0468183
:100DF00057816085718593010E94A11A882309F4A7
:100E000071C0F601238D348D86819781A085B185CF
:100E10000297A109B109AC01BD01F901058404C023
:100E2000440F551F661F771F0A94D2F78685978552
:100E3000A089B189840F951FA61FB71FBC01CD01E2
:100E4000610F711D811D911DD60114962C9126FFF5
:100E500014C0009108021091090220910A023091F9
:100E60000B02601771078207930751F506C0FA81DC
:100E7000FF23C1F1898190E037C040E00E94BA1998
:100E8000882381F1F501EC5BFA4FD401CF01019683
:100E9000E817F90719F021912D93FACFEFEF8E1A89
:100EA0009E0AF60182859385A485B5850196A11DCC
:100EB000B11D82879387A487B58780E090E057CFE4
:100EC000740101E010E09501AB01BC018091440781
:100ED000909145070E94A80F882321F0BFEF8B1A3D
:100EE0009B0ADFCF8FEF9FEF0F900F90DF91CF9195
:100EF0001F910F91FF90EF90DF90CF90BF90AF9038
:100F00009F908F907F906F905F904F903F902F9029
:100F10000895FC01818D928D009709F0EFCE8FEF3F
:100F20009FEF08950F931F93CF93DF93FC01818D63
:100F3000928D0097A9F0EF01E1DE8C010F3F8FEF5A
:100F4000180789F0898D9A8DFC0142855385648547
:100F500075854150510961097109E1D3C80105C086
:100F600080E090E002C08FEF9FEFDF91CF911F9163
:100F70000F9108951F920F920FB60F9211240F90A8
:100F80000FBE0F901F901895DF92EF92FF920F9374
:100F90001F93CF93DF93CDB7DEB7C85CD1400FB6B8
:100FA000F894DEBF0FBECDBF0E948E187093270548
:100FB00060932605809100028E010F5F1F4F8823EA
:100FC00059F062E173E0C8010E948D2766E570E088
:100FD000C8017BDB109200020E948E1820911E0532
:100FE00030911F0530930F0520930E05B091220517
:100FF000F0902305B0931005F092110520910302A3
:1010000030910402209312053093130540910102A0
:10101000509102024093140550931505E0900C0581
:10102000E0910D05E0921605E0931705F091240577
:10103000A0912505F0931805A0931905D0901B05E4
:10104000DF92D0901A05DF92AF93FF93EF93EF9268
:101050005F934F933F932F93FF92BF9320910F0580
:101060002F9320910E052F9328EE33E040E050E0BF
:101070000E9469243F932F9389E693E09F938F9377
:101080001F930F930E94B127BC01C8011EDB109271
:101090001B0510921A050FB6F894DEBF0FBECDBF28
:1010A000C853DE4F0FB6F894DEBF0FBECDBFDF9141
:1010B000CF911F910F91FF90EF90DF900895EF92E5
:1010C000FF920F931F93CF93DF93CDB7DEB768974F
:1010D0000FB6F894DEBF0FBECDBF6AE070E00E948D
:1010E0002B25892B09F0A9C000E010E0602F812F8B
:1010F0000E94D61567ED74E08BEF98E00E94F21B1A
:101100001F5F143199F70F5F043079F760E080E0DA
:101110000E94D615E0901E05F0901F0565EF78E05F
:10112000CE0143960E94B71B4AE08E010F5F1F4F0E
:10113000B801C7010E940E23F80101900020E9F7D1
:101140003197AF01401B510BB801CE0143960E946D
:10115000EA15811104C0CE0143960E9425166FEE58
:1011600078E0CE0143960E943716BC018BEF98E0E1
:101170000E94E41BCE0143960E947C1661E080E051
:101180000E94D61569EE78E0C8010E94B71B63EE95
:1011900078E0C8010E943716BC018BEF98E00E94EE
:1011A000E41BC8010E947C1662E080E00E94D61514
:1011B0006DED78E0CE0143960E94B71B4AE0B8017E
:1011C00080E090E00E942023F80101900020E9F7E0
:1011D0003197AF01401B510BB801CE0143960E94DD
:1011E000EA15811104C0CE0143960E94251667EDD1
:1011F00078E0CE0143960E943716BC018BEF98E051
:101200000E94E41BCE0143960E947C1663E080E0BE
:101210000E94D61561ED78E0C8010E94B71B6BEC07
:1012200078E0C8010E943716BC018BEF98E00E945D
:10123000E41BC8010E947C1668C060E089E00E943F
:10124000D61580911E0590911F051C8A1B8A1E8A47
:101250001D8A188E1F8A4AE0BE016F5F7F4F0E9471
:101260000E23BE016F5F7F4FCE0143960E9467162B
:101270006FEE78E0CE0143960E943716BC018BEFEB
:1012800098E00E94E41BCE0143960E947C1661E028
:1012900089E00E94D61563EE78E08BEF98E00E941B
:1012A000E41B62E089E00E94D615809122059091AE
:1012B00023051C8A1B8A1E8A1D8A188E1F8A4AE0F3
:1012C000BE016F5F7F4F0E942023BE016F5F7F4F83
:1012D000CE0143960E94671667ED78E0CE014396F3
:1012E0000E943716BC018BEF98E00E94E41BCE01F0
:1012F00043960E947C1663E089E00E94D6156BEC51
:1013000078E08BEF98E00E94E41B68960FB6F894A3
:10131000DEBF0FBECDBFDF91CF911F910F91FF9028
:10132000EF90089586E497E00E94B21621E0892BA1
:1013300009F420E0822F089583EE97E00E94B21610
:1013400021E0892B09F420E0822F08951F920F924B
:101350000FB60F9211240BB60F922F933F934F931A
:101360005F936F937F938F939F93AF93BF93EF930D
:10137000FF9386E497E00E946017FF91EF91BF9181
:10138000AF919F918F917F916F915F914F913F911D
:101390002F910F900BBE0F900FBE0F901F901895BE
:1013A0001F920F920FB60F9211240BB60F922F932C
:1013B0003F934F935F936F937F938F939F93AF93DD
:1013C000BF93EF93FF9386E497E00E944717FF9146
:1013D000EF91BF91AF919F918F917F916F915F91AD
:1013E0004F913F912F910F900BBE0F900FBE0F901A
:1013F0001F9018951F920F920FB60F9211240BB6E3
:101400000F922F933F934F935F936F937F938F939D
:101410009F93AF93BF93EF93FF9383EE97E00E9468
:101420006017FF91EF91BF91AF919F918F917F9145
:101430006F915F914F913F912F910F900BBE0F9045
:101440000FBE0F901F9018951F920F920FB60F921C
:1014500011240BB60F922F933F934F935F936F938B
:101460007F938F939F93AF93BF93EF93FF9383EEFD
:1014700097E00E944717FF91EF91BF91AF919F9125
:101480008F917F916F915F914F913F912F910F902D
:101490000BBE0F900FBE0F901F9018953F924F926A
:1014A0005F926F927F928F929F92AF92BF92CF92F4
:1014B000DF92EF92FF920F931F93CF93DF93CDB7FD
:1014C000DEB72C970FB6F894DEBF0FBECDBF5C0120
:1014D000DC015B968D909C905C971696CD90DD908C
:1014E000ED90FC901997C114D104E104F10439F096
:1014F000BFEFCB1ADB0AEB0AFB0A312C07C0F40161
:10150000C080D180E280F38033243394F40181855C
:101510009285A385B4859C01AD012F5F3F4F4F4F4E
:101520005F4F29873A874B875C87260137011D82E9
:101530001E821F821886F40181859285A385B48559
:101540002D813E814F815885281739074A075B074F
:1015500008F063C089859A85AB85BC858C159D058F
:10156000AE05BF0550F482E0C82ED12CE12CF12C41
:1015700092E0492E512C612C712C9E012F5F3F4F20
:10158000B701A601C4010E94A11A882309F445C02D
:1015900089819A81AB81BC81892B8A2B8B2B41F06D
:1015A000260137019FEF491A590A690A790A05C0CD
:1015B000C414D504E604F70491F02D813E814F81D7
:1015C00058852F5F3F4F4F4F5F4F2D833E834F8393
:1015D00058873FEFC31AD30AE30AF30AACCF0FEFE1
:1015E0001FEF2FEF3FE0B301A201C4010E94021AD6
:1015F000882399F0D50116964D915D916D917C915E
:101600001997411551056105710549F09301820152
:10161000C4010E94021A811102C080E02AC0D501D3
:1016200016964D925D926D927C921997332051F0EF
:10163000D301C2010196A11DB11DF40180839183E4
:10164000A283B383F5018789908DA18DB28D892BFB
:101650008A2B8B2B69F4D50157964D925D926D9232
:101660007C925A9714968C911497806814968C9358
:1016700081E02C960FB6F894DEBF0FBECDBFDF9190
:10168000CF911F910F91FF90EF90DF90CF90BF907F
:10169000AF909F908F907F906F905F904F903F9012
:1016A0000895CF93DF93EC018D818823A1F18C8184
:1016B00087FF2DC06E857F858889998941E00E94CA
:1016C000BA19882341F1EA8980E2E89FF0011124E8
:1016D000DF01AC5BBA4F1097F1F08D81823050F48E
:1016E0004B895C896D897E895C964D935D936D9382
:1016F0007C935F978F89988DA98DBA8DEC5BFA4F9B
:10170000938F828FB58BA48B8C818F778C83DF91A5
:10171000CF910C947F1980E0DF91CF9108958F9243
:101720009F92AF92BF92CF92DF92EF92FF920F9370
:101730001F93CF93DF93EC018D81811102C080E074
:1017400077C00B891C892D893E8904171507260748
:101750003707A8F36A017B01823029F4CA86DB8649
:10176000EC86FD860DC0C114D104E104F10451F4EE
:101770001E821F82188619861A861B861C861D8665
:1017800081E056C08A849B84AC84BD84EB8DFC8D43
:10179000258530E0275F3F4FB501A4014150510935
:1017A00061097109022E04C0769567955795479592
:1017B0000A94D2F7D701C6010197A109B10904C063
:1017C000B695A795979587952A95D2F7841795078B
:1017D000A607B70720F089288A288B2849F44F8963
:1017E000588D698D7A8D4E835F836887798704C0B1
:1017F000841B950BA60BB70B4C015D018E010A5F94
:101800001F4F81149104A104B10409F4A7CF4E81A4
:101810005F816885798598018B8D9C8D0E94A11AC6
:1018200091E0891A9108A108B1088111EACF87CF08
:10183000DF91CF911F910F91FF90EF90DF90CF90AC
:10184000BF90AF909F908F9008958F929F92AF928C
:10185000BF92CF92DF92EF92FF920F931F93CF939D
:10186000DF9300D01F92CDB7DEB77C0180E2689F86
:101870006001112496012C5B3A4FD9011B969C9173
:10188000917121F0842F827409F096C0142FF70112
:10189000628B8091080290910902A0910A02B09196
:1018A0000B0286879787A08BB18BF601EC5BFA4F12
:1018B0004489558960E070E0BA0155274427D70173
:1018C00057964D935D936D937C935A97828D938D2C
:1018D000A0E0B0E0482B592B6A2B7B2BD701579601
:1018E0004D935D936D937C935A97D9011B968C9180
:1018F000887159F4848D958DA68DB78DF701838BF2
:10190000948BA58BB68B81E012C0803109F054C056
:1019100097012D5E3F4FD7015B968D919C915C970F
:101920000E94241B882309F447C084E0F7018583C3
:10193000812F8F70D70114968C931497F70116821C
:101940001782108611861A961D921D921D921C9266
:101950001D9716FF33C015968C91813069F511FFE4
:101960002BC0F7014389548965897689452B462B1D
:10197000472B09F45EC040E050E0BA01C701CFDE5A
:101980008823D1F0F7018788908CA18CB28CC38C0E
:10199000D48C82E090E0A0E0B0E0F60180839183F7
:1019A000A283B3839E012F5F3F4FB501A401C601FF
:1019B0000E94A11A811104C080E03BC081E039C0BF
:1019C00000E010E09801B501A401C6010E94021ACE
:1019D000882391F389809A80AB80BC80D60157968A
:1019E0008C91803129F088EF9FEFAFEFBFE004C00A
:1019F00088EF9FEFA0E0B0E088169906AA06BB0624
:101A000088F2D70157961D921D921D921C925A97EB
:101A1000F701138A148A158A168A84818068848360
:101A2000C7013FDE882341F240E050E0BA01C70120
:101A300076DE0F900F900F900F90DF91CF911F9156
:101A40000F91FF90EF90DF90CF90BF90AF909F905D
:101A50008F9008954F925F926F927F92AF92BF9254
:101A6000CF92DF92EF92FF920F931F93CF93DF936A
:101A7000CDB7DEB72B970FB6F894DEBF0FBECDBF44
:101A80007C01CE0101966C01FC0190E28BE08C0D93
:101A900091938E13FDCFDA0130E047E09D919923B9
:101AA00039F19E3219F0E2EDF1E00AC04A3009F452
:101AB0006FC138E04AE0F2CF3196891709F468C166
:101AC00084918111F9CF431708F462C18FED890F1A
:101AD0008E3508F05DC181E0830FF601E30FF11D43
:101AE0003FE9390F3A3108F490529083382FD6CF1E
:101AF0008981803209F44CC1B22E8B01DB015B96E7
:101B00008D919C915C97F701948F838F16961D920F
:101B10001D921D921C921997FB0112861386148642
:101B20001586712CF80182859385A485B585438936
:101B300054896589768984179507A607B70708F041
:101B400060C025E0B695A795979587952A95D1F71A
:101B5000F82FFF706F2ED80115968C91823008F403
:101B600017C1C801CBD897FD13C1F80182859385B1
:101B7000A485B5854F96A11DB11D82879387A48743
:101B8000B587F0E26F9EC0011124BC016C5B7A4FF7
:101B90006115710509F4FCC0DB012C91222319F0B9
:101BA000253EC1F427C071100EC0F701628A409132
:101BB00008025091090260910A0270910B02468757
:101BC0005787608B718BFC01EC5BFA4F8081811130
:101BD00013C015C04BE050E0C6010E947727892B47
:101BE00009F0A0CF8B2D8073803309F4D1C04B2D29
:101BF000662DCBC07720C9F27724739493CF7724D6
:101C000073948B2D8271823109F0C2C07720D1F09C
:101C1000D7011E966D917D918D919C91519741E0D8
:101C20000E94BA19882309F4B3C0F7016289F0E26F
:101C30006F9FB00111246C5B7A4F6115710509F03B
:101C400078C0A6C0D80115968C91823009F4A0C046
:101C5000C80124DC882309F49BC0D8015B96ED9170
:101C6000FC915C9716964D905D906D907C901997C5
:101C7000B2E04B1A510861087108058404C0440C95
:101C8000551C661C771C0A94D2F786859785A08917
:101C9000B189480E591E6A1E7B1EA480E1E04E1ACF
:101CA000510861087108AA2009F10E947F19882350
:101CB00009F46EC0E4E4F5E0119227E0E434F207A1
:101CC000D9F7D301C2018A0D911DA11DB11D8093C9
:101CD000080290930902A0930A02B0930B0280912C
:101CE000D40981608093D409AA94DDCFD8015B9692
:101CF000ED91FC915C9780E092E0A0E0B0E005847B
:101D000004C0880F991FAA1FBB1F0A94D2F7F801BD
:101D10004389548965897689840F951FA61FB71F4B
:101D2000838B948BA58BB68BD70152961C9264E45F
:101D300075E080E2FB0111928A95E9F78BE0F601EC
:101D4000DB0101900D928A95E1F781E298E2DB01D7
:101D500051969C938E93509720E038E01F963C93C9
:101D60002E931E9753969C938E93529759969C93BD
:101D70008E93589757963C932E9356970E947F19AF
:101D8000882331F04B2DF7016289C7015EDD01C068
:101D900080E02B960FB6F894DEBF0FBECDBFDF916B
:101DA000CF911F910F91FF90EF90DF90CF90BF9058
:101DB000AF907F906F905F904F900895CF93DF9397
:101DC000EC016FDC882311F01D8281E0DF91CF915F
:101DD00008958FB7F894809143058FBF089561E00F
:101DE000FC0184810E94101880914205811110929B
:101DF000420508958EBD00000DB407FEFDCF8EB5DF
:101E000008958FEFF7CF0F931F93CF93DF93EB01DD
:101E10000E948E188B01F5DF8F3F49F00E948E18CB
:101E2000601B710B6C177D07B0F380E001C081E08F
:101E3000DF91CF911F910F910895CF93DF93EC0124
:101E40008E81882379F08F8198859C012F5F3F4F89
:101E500038872F838230924010F4D3DFF4CFCE0145
:101E6000BEDF1E82DF91CF9108958CBD9DBD089588
:101E7000CF93DF93EC0180914205811108C081E08E
:101E8000809342058091800890918108EEDF60E0A8
:101E90008C81DF91CF910C941018CF92DF92FF923A
:101EA0000F931F93CF93DF9300D01F92CDB7DEB770
:101EB0006C01F62E29833A834B835C83BEDFC60117
:101EC000D7DF6CE271E0C6019EDF8F2D806492DF68
:101ED00008E110E05C814B813A812981DA01C90176
:101EE000002E04C0B695A795979587950A94D2F7CA
:101EF00029833A834B835C837DDF08501109298154
:101F00003A814B815C81083F8FEF180739F7FF203A
:101F100029F0E8E0FE1204C087E803C085E901C0AB
:101F20008FEF68DF10E06DDFF601828787FF04C066
:101F30001F3F11F01F5FF7CF0F900F900F900F9082
:101F4000DF91CF911F910F91FF90DF90CF90089577
:101F5000AF92BF92CF92DF92EF92FF920F931F93B7
:101F6000CF93DF93EC016901C801820F931F813089
:101F7000924008F06AC08E81882371F0888199812F
:101F8000AA81BB81481759076A077B0729F48F810B
:101F90009885C816D90698F5488359836A837B8348
:101FA0008B85833039F089E0440F551F661F771FFA
:101FB0008A95D1F79A01AB0161E1CE016EDF8823EA
:101FC00019F083E08D8341C00E948E185B0119DFF8
:101FD0008A878F3F49F40E948E186A197B096D32F7
:101FE0007140A8F38FE003C08E3F29F08DE08D8310
:101FF000CE01F5DE2AC018861F8281E08E838F8194
:1020000098858C159D0538F4FCDE8F8198850196A6
:1020100098878F83F4CF6701E00EF11ECE14DF04A2
:1020200029F0EFDEF60181936F01F8CF8F8198855B
:10203000080F191F18870F838985882319F0011548
:10204000124038F0CE01F9DE04C0CE01C8DE80E0D7
:1020500001C081E0DF91CF911F910F91FF90EF9030
:10206000DF90CF90BF90AF900895EF92FF920F93C3
:102070001F93CF93DF93EC01790141155105610561
:10208000710511F482E134C08B85833039F089E029
:10209000440F551F661F771F8A95D1F79A01AB0130
:1020A00068E1CE01FADE882311F084E021C08EEFD2
:1020B000A1DE87018EEFF81AF80181918F019ADE77
:1020C0000E151F05C9F78FEF95DE8FEF93DE99DEB2
:1020D0008A878F71853029F081E18D83CE017FDE83
:1020E00008C068E572E0CE018EDE811106C085E190
:1020F0008D83CE0174DE80E010C020E030E0A901C5
:102100006DE0CE01CADE811103C07BDE882311F0B1
:1021100084E1EECFCE0163DE81E0DF91CF911F91AC
:102120000F91FF90EF9008952F923F924F925F9200
:102130006F927F928F929F92AF92BF92CF92DF92D7
:10214000EF92FF920F931F93CF93DF9300D01F92D4
:10215000CDB7DEB78C015B011A01DC0115968C91BD
:1021600015978130C1F414968C9181FF14C082FFC1
:102170001AC0F801438954896589768982859385D7
:10218000A485B58584179507A607B70761F0C80130
:10219000C6DA811108C081E090E0F8019383828360
:1021A00080E090E034C1610182C0D8015B968D91DE
:1021B0009C915C97FC01248121502A013B0139E06C
:1021C00076946794579447943A95D1F7722E742079
:1021D0007A01F1E0FF22772009F475C080E092E0F7
:1021E0008E199F0946018C159D0508F44C01D801F4
:1021F0005B962D913C915C9716968D919D910D90DB
:10220000BC91A02D0297A109B109F901058404C070
:10221000880F991FAA1FBB1F0A94D2F746855785BE
:1022200060897189840F951FA61FB71F9C01AD019E
:10223000270D311D411D511D29013A01811432E044
:10224000930609F086C08091080290910902A0913E
:102250000A02B0910B0284159505A605B70559F43D
:102260008FEF9FEFDC018093080290930902A09307
:102270000A02B0930B029501B301A20180914407B9
:1022800090914507F2DE882309F485CF9EEFB91AB5
:10229000C818D908F80182859385A485B585880D6D
:1022A000991DA11DB11D82879387A487B587D80189
:1022B0001A964D915D916D917C911D97C114D10439
:1022C00009F073CF84C0E114F10409F087CF1696AA
:1022D0004D915D916D917C91199741155105610565
:1022E000710559F457968D919D910D90BC91A02D3B
:1022F0000097A105B10539F521C09E012F5F3F4F21
:102300000E94A11A882309F44CCF89819A81AB815C
:10231000BC81F801238D348DF9012789203129F002
:1023200048EF5FEF6FEF7FE004C048EF5FEF60E0E2
:1023300070E084179507A607B70728F0C801AED844
:1023400081114CCF28CFF80186839783A087B1876E
:1023500045CFE114F10421F5D8011A964D915D9114
:102360006D917C911D9753968D919D910D90BC918F
:10237000A02D481759076A077B0790F0C0D788231C
:1023800009F409CF409208025092090260920A02B1
:1023900070920B028091D40981608093D40907C0A8
:1023A00041E0C301B201E6D7882309F4F4CED50198
:1023B000F701EC5BFA4FCF01880D991DE817F9077B
:1023C00019F02D912193FACFA80CB91C61CF539627
:1023D0008D919D910D90BC91A02D84179507A60716
:1023E000B70740F4F801438B548B658B768B84815F
:1023F00080688483D80114968C9183FD02C0C1014A
:1024000006C0C8014ED9882309F4C5CEF8CF0F9075
:102410000F900F900F90DF91CF911F910F91FF9030
:10242000EF90DF90CF90BF90AF909F908F907F9074
:102430006F905F904F903F902F900895CF93DF93D0
:102440001F92CDB7DEB7698341E050E0BE016F5FF8
:102450007F4F6ADE0F90DF91CF910895FC01DB0181
:1024600012968D919C9113979383828380E592E0DD
:102470009183808314968C911497848315968C9104
:102480001597858316964D915D916D917C91199765
:1024900046835783608771871A964D915D916D9140
:1024A0007C911D9742875387648775871E964D914F
:1024B0005D916D917C91519746875787608B718BA9
:1024C00052968C915297828B53964D915D916D915E
:1024D0007C915697438B548B658B768B57964D9199
:1024E0005D916D917C915A97478B508F618F728F60
:1024F0005B968D919C915C97948F838F08950F9339
:102500001F93CF93DF93EC0188819981009729F085
:102510002A813B812617370788F48B016F5F7F4F35
:102520000E948726009761F0998388831B830A8322
:102530002C813D81232B11F4FC01108281E001C02C
:1025400080E0DF91CF911F910F910895EF92FF925C
:102550000F931F93CF93DF93EC01423018F08F85D8
:1025600088608F874B8B1C8A80E48D8B6E8B70E02C
:10257000605C7F4F6F8B61E08C8194D58D818F3F44
:1025800011F061E08FD561E08E818CD57E0187E00E
:10259000E80EF11C00E010E08F8584FD03C084E0AC
:1025A00090E002C088E090E00817190744F461E069
:1025B000F70181917F0176D50F5F1F4FEDCF8BE340
:1025C0009DE00197F1F760E08C812AD560E08E8173
:1025D00027D58D818F3F11F060E022D56F8564FD96
:1025E00019C063E0CE010CD60BE416E4C8010197D4
:1025F000F1F763E0CE0104D6C8010197F1F763E07B
:10260000CE01FED583E592E00197F1F762E0CE01BD
:10261000F7D513C06062CE0170D68BE496E40197C3
:10262000F1F76F856062CE0168D683E592E001978D
:10263000F1F76F856062CE0160D66F856062CE0172
:102640005CD684E0888B6CE0CE0157D661E0CE0189
:1026500054D68BE39FE10197F1F782E0898B66E026
:10266000CE01DF91CF911F910F91FF90EF9045C662
:1026700047E259E062E279E080E090E00C94E722E2
:10268000CF92DF92EF92FF920F931F93CF93DF933E
:10269000EC016B01770FEE08FF08F7FE16C0E8812A
:1026A000F9810190F081E02D6DE219958C014427AC
:1026B0005527BA014C195D096E097F092AE0CE0140
:1026C0000E94071C080F191F06C02AE0B701A601C7
:1026D0000E94071C8C016AEF72E0CE010E94F21B7F
:1026E000800F911FDF91CF911F910F91FF90EF907D
:1026F000DF90CF9008958F929F92AF92BF92CF922A
:10270000DF92EF92FF92CF93DF93C82F82E898E099
:102710009093450780934407CC2361F1C53010F0B6
:1027200080E00BC140E060E070E0CB0123D688235D
:10273000B9F320E1C29FC00111248C5C9A4FFC01C7
:10274000E254FE4F20812F7759F73C96408151810A
:1027500062817381443651056105710508F3349730
:10276000C080D180E280F380C114D104E104F1047F
:1027700021F4D6CFC12CD12C760140E0C701B6019F
:10278000F9D5882369F280914F0590915005811504
:10279000924031F6A0915405AA2309F4C1CF60916B
:1027A0005205709153056115710509F4B9CF209157
:1027B0005105222309F4B4CFA093A00820939208D6
:1027C00080E030E0E1E0F0E0C82FAF01082E02C069
:1027D000440F551F0A94E2F72417350741F0982F4C
:1027E0008F5F983089F789E080939B0899CF809319
:1027F0009B0820915A0530915B052115310519F090
:1028000040E050E008C02091680530916905409192
:102810006A0550916B052093930830939408409378
:1028200095085093960846015701860E971EA11CE5
:10283000B11C8092A1089092A208A092A308B09225
:10284000A408E0915505F0915605F093A708E09390
:10285000A608B0E00E945924860E971EA81EB91E35
:102860008092A8089092A908A092AA08B092AB08FA
:1028700085E0EE0FFF1F8A95E1F7E150FE4FEF2F45
:10288000FF27E6958E0E9F1EA11CB11C80929C080E
:1028900090929D08A0929E08B0929F0820915705A3
:1028A000309158052115310521F0A90160E070E053
:1028B00008C040916405509165056091660570916E
:1028C0006705D701C60188199909AA09BB09840FB0
:1028D000951FA61FB71F04C0B695A7959795879516
:1028E000CA95D2F78093970890939808A093990877
:1028F000B0939A08853F2FE09207A105B10510F427
:102900008CE018C0853F9F4FA105B10510F480E110
:1029100011C08091700590917105A0917205B091E0
:1029200073058093A8089093A908A093AA08B09370
:10293000AB0880E28093A50881E0DF91CF91FF9002
:10294000EF90DF90CF90BF90AF909F908F900895C1
:10295000FC01A089B18982E08C93A485B5851C9285
:10296000A685B7858FEC8C93108EA489B58986E0F7
:102970008C93A289B3898C9180618C93A289B3894D
:102980008C9188608C93A289B3898C9180688C9398
:102990000288F389E02D80818F7D80830895CF9315
:1029A000DF932091290930912A09243131050CF552
:1029B000EB01BC01C90123E0880F991F2A95E1F7BB
:1029C00046E050E0855D964F0E94A227809129093C
:1029D00090912A09FC0133E0EE0FFF1F3A95E1F7D1
:1029E000ED5EF64FD78FC68F019690932A0980939C
:1029F0002909DF91CF910895CF93DF93EC0161E036
:102A000083E050D3209711F460E004C0CF3FD1059C
:102A100029F461E083E0DF91CF9102C3E5EEF1E0BC
:102A2000E4918E2F90E0FC013197E231F10508F03E
:102A30009DC08827EE58FF4F8F4F0C943E2584B5DC
:102A4000806884BDC7BD97C084B5806284BDC8BDA1
:102A500092C080918000806880938000D09389002C
:102A6000C093880088C0809180008062809380003D
:102A7000D0938B00C0938A007EC0809180008860D4
:102A800080938000D0938D00C0938C0074C080919F
:102A9000B00080688093B000C093B3006CC0809198
:102AA000B00080628093B000C093B40064C0809195
:102AB0009000806880939000D0939900C093980014
:102AC0005AC080919000806280939000D0939B00C8
:102AD000C0939A0050C080919000886080939000CD
:102AE000D0939D00C0939C0046C08091A000806858
:102AF0008093A0008091A0008F7B8093A000D09352
:102B0000A900C093A80037C08091A0008062809384
:102B1000A000D093AB00C093AA002DC08091A0006C
:102B200088608093A000D093AD00C093AC0023C018
:102B300080912001806880932001D0932901C09367
:102B4000280119C080912001806280932001D093D8
:102B50002B01C0932A010FC08091200188608093CF
:102B60002001D0932D01C0932C0105C0C038D105A0
:102B70000CF04FCF49CFDF91CF91089580917B002A
:102B8000886080937B0087E480937C0080917A004A
:102B9000806480937A0080917A0086FDFCCF8091DA
:102BA00078002091790090E0922B0895643008F02D
:102BB00063E090910E09691710F06FEF690FE62F2F
:102BC000F0E0E550F74F9489682F690F60688BEF4C
:102BD00098E093C3EF92FF920F931F93CF93DF93ED
:102BE000FC01248135816115710511F480E018C064
:102BF00041155105A1F07B01EC018A01020F131F61
:102C0000B8017DDC882391F3288139818C819D81F5
:102C1000B701820F931F0E948D271D830C8381E0D3
:102C2000DF91CF911F910F91FF90EF900895611563
:102C3000710549F0FB0101900020E9F73197AF01E0
:102C4000461B570BC7CF80E00895CF93DF93EC016D
:102C500088819981009711F00E94EF2519821882CE
:102C60001D821C821B821A82DF91CF910895CF931F
:102C7000DF93EC01FB014481558160817181AADF02
:102C8000811102C0CE01E1DFCE01DF91CF91089525
:102C9000EF92FF920F931F93CF93DF93EC017B0191
:102CA0008A01BA012CDC811103C0CE01CEDF07C03E
:102CB0001D830C83B701888199810E948D27CE01E5
:102CC000DF91CF911F910F91FF90EF900895CF93D7
:102CD000DF93EC016115710551F0FB0101900020BB
:102CE000E9F73197AF01461B570BD2DF01C0ADDFCB
:102CF000CE01DF91CF910895FC01808191810C94E8
:102D0000EF25FC01538D448D252F30E0842F90E07A
:102D1000821B930B541710F0CF96089501970895D6
:102D2000FC01918D828D981761F0828DDF01A80FD3
:102D3000B11D5D968C91928D9F5F9F73928F90E0F5
:102D400008958FEF9FEF0895FC01918D828D981764
:102D500031F0828DE80FF11D858D90E008958FEFA1
:102D60009FEF0895FC01918D228D892F90E0805C6A
:102D70009F4F821B91098F739927089580E090E0FF
:102D8000892B21F00E949C0981111DC080E090E0F8
:102D9000892B41F080E090E0892B21F00E94000017
:102DA000811114C00E949209811113C080E090E04B
:102DB000892BA1F080E090E0892B81F00E94000037
:102DC00081110AC008950E940000E0CF0E94000017
:102DD000E9CF0E94C002EACF0C940000089590E071
:102DE000FC013197E231F10508F04EC08827EC571D
:102DF000FF4F8F4F0C943E25809180008F7703C04A
:102E0000809180008F7D8093800008958091800064
:102E1000877FF9CF84B58F7702C084B58F7D84BD5D
:102E200008958091B0008F7703C08091B0008F7DAE
:102E30008093B0000895809190008F7707C08091B3
:102E400090008F7D03C080919000877F80939000D9
:102E500008958091A0008F7707C08091A0008F7D9A
:102E600003C08091A000877F8093A0000895809187
:102E700020018F7707C0809120018F7D03C0809152
:102E80002001877F8093200108950E946B27FC0119
:102E9000A089B1898C91A689B78982FD0FC09C91C8
:102EA000818D8F5F8F73228D821749F0218DDF0115
:102EB000A20FB11D5D969C93818F08958C9108950A
:102EC000FC01848DDF01A80FB11DA35ABF4F2C91C7
:102ED000848D90E001968F739927848FA689B78996
:102EE0002C93A089B1898C9180648C93938D848D6F
:102EF000981306C00288F389E02D80818F7D80833E
:102F00000895EF92FF920F931F93CF93DF93EC01FD
:102F100081E0888F9B8D8C8D981305C0E889F98995
:102F2000808185FD23C0F62E0B8D10E00F5F1F4FB3
:102F30000F731127E02E8C8DE8120BC00FB607FC23
:102F4000FACFE889F989808185FFF5CFCE01B8DF16
:102F5000F2CF8B8DFE01E80FF11DE35AFF4FF08297
:102F60000B8FEA89FB898081806207C0EE89FF8927
:102F70006083E889F98980818064808381E090E0C2
:102F8000DF91CF911F910F91FF90EF900895CF9314
:102F9000DF93EC01888D8823C1F0EA89FB89808169
:102FA00085FD05C0A889B9898C9186FD0EC00FB634
:102FB00007FCF5CF808185FFF2CFA889B9898C9174
:102FC00085FFEDCFCE017CDFE8CFDF91CF91089573
:102FD000CF93DF93282F30E0F901EE51FE4F84911B
:102FE000F901EA5BFE4FD491F901E457FE4FC49119
:102FF000CC2389F08111F3DEEC2FF0E0EE0FFF1F00
:10300000EE5BFD4FA591B491EC91ED2381E090E052
:1030100021F480E002C080E090E0DF91CF9108953C
:103020001F93CF93DF93282F30E0F901EE51FE4F2D
:103030008491F901EA5BFE4FD491F901E457FE4F08
:10304000C491CC23C1F0162F8111C9DEEC2FF0E022
:10305000EE0FFF1FE85DFD4FA591B4918FB7F89477
:10306000111105C09C91ED2FE095E92302C0EC9170
:10307000ED2BEC938FBFDF91CF911F910895CF93EC
:10308000DF93EC0160E08E81CBDF61E08E81C8DFF1
:1030900060E08E81C5DF8BE891E00197F1F7DF9169
:1030A000CF910895CF93DF9390E0FC01EA5BFE4F50
:1030B0002491FC01E457FE4F8491882361F190E054
:1030C000880F991FFC01E45DFE4FC591D491FC016E
:1030D000E85DFD4FA591B491611109C09FB7F894C7
:1030E0008881209582238883EC912E230BC0623047
:1030F00061F49FB7F8943881822F80958323888369
:10310000EC912E2B2C939FBF06C08FB7F894E881CB
:103110002E2B28838FBFDF91CF9108952FB7F8947E
:103120006091DE097091DF098091E0099091E109D9
:103130002FBF08951F920F920FB60F9211242F9355
:103140003F938F939F93AF93BF938091DE099091AC
:10315000DF09A091E009B091E1093091DD0923E098
:10316000230F2D3720F40196A11DB11D05C026E8BF
:10317000230F0296A11DB11D2093DD098093DE0966
:103180009093DF09A093E009B093E1098091D909F8
:103190009091DA09A091DB09B091DC090196A11D9B
:1031A000B11D8093D9099093DA09A093DB09B093FC
:1031B000DC09BF91AF919F918F913F912F910F901B
:1031C0000FBE0F901F9018958EBD0DB407FEFDCF5A
:1031D0008EB508951F93CF93DF931F92CDB7DEB7BF
:1031E000182F2A9882E06983EFDF812FEDDF698154
:1031F000862FEADF2A9A0F90DF91CF911F910895D1
:10320000CF92DF92EF92FF920F931F93CF93DF93B2
:103210007C016C0187E0C80ED11CC0E0D0E0062F15
:1032200010E0B8010C2E02C0759567950A94E2F77C
:103230006170F60181916F01F3DE2196C430D105F2
:1032400081F7C701DF91CF911F910F91FF90EF9010
:10325000DF90CF9014CFCF92DF92EF92FF920F9337
:103260001F93CF93DF93EC01F62E642F8C81D8DE71
:103270008D818F3F11F060E0D3DE8F850F2D10E040
:1032800084FF23C06E0187E0C80ED11CE12CF12C15
:10329000B8010E2C02C0759567950A94E2F761702B
:1032A000F60181916F01BCDEFFEFEF1AFF0A88E0A3
:1032B000E816F10469F7CE01DF91CF911F910F91CC
:1032C000FF90EF90DF90CF90DACEB80184E0759553
:1032D00067958A95E1F7CE0193DF6F2DCE01DF91DF
:1032E000CF911F910F91FF90EF90DF90CF9088CFFB
:1032F00041E0B1DF81E090E0089540E0ACCF809103
:10330000D4098823A9F140910802509109026091E3
:103310000A0270910B0224E435E0809144079091F9
:1033200045070E943510811102C080E00895409148
:10333000D5095091D6096091D7097091D8094115E6
:1033400051056105710591F024E435E08091440751
:10335000909145070E943510882339F31092D509C2
:103360001092D6091092D7091092D8091092D40958
:1033700081E008958F929F92AF92BF92EF92FF9259
:103380000F931F93CF934B015C01C42F80910802D0
:1033900090910902A0910A02B0910B02881599053B
:1033A000AA05BB05F9F0ABDF811102C080E020C0A7
:1033B00084E4E82E85E0F82E00E012E020E030E022
:1033C000B501A40180914407909145070E94A80F80
:1033D000882361F38092080290920902A0920A0267
:1033E000B0920B028091D409C82BC093D40981E01C
:1033F000CF911F910F91FF90EF90BF90AF909F9052
:103400008F9008954F925F926F927F928F929F92CA
:10341000AF92BF92CF92DF92EF92FF920F931F93E2
:10342000CF93DF93EC016A017B012801390142301F
:1034300051056105710510F480E072C089859A8597
:10344000AB85BC850196A11DB11D84179507A60704
:10345000B70790F38B889C88AD88BE888F898031B0
:1034600029F4BB27AF2D9E2D8D2D09C0DB01CA018C
:1034700047E0B695A795979587954A95D1F7880E19
:10348000991EAA1EBB1E8091080290910902A0916C
:103490000A02B0910B0288169906AA06BB0679F4B7
:1034A0008F89803199F4DD24EE24FF24C601880F32
:1034B000991FFC01EC5BFA4F5182408218C040E03A
:1034C000C501B40157DF8111EBCFB6CFE894C7F83F
:1034D000DD24EE24FF24C601880F991F880F991F51
:1034E000FC01EC5BFA4F40825182628273828091D0
:1034F000D40981608093D4098A89823080F08D81DB
:103500009E81AF81B885880E991EAA1EBB1E80922F
:10351000D5099092D609A092D709B092D80981E036
:10352000DF91CF911F910F91FF90EF90DF90CF909F
:10353000BF90AF909F908F907F906F905F904F90D3
:1035400008958F929F92AF92BF92CF92DF92EF92A7
:10355000FF920F931F93CF93DF93FC018185928598
:10356000A385B4850196A11DB11D84179507A607F3
:10357000B70710F480E05BC083899489A589B68978
:10358000C789C03129F4852E962EA72EBB2409C0E9
:103590004A015B01C7E0B694A79497948794CA95B3
:1035A000D1F7E9016A017B018F01BC01CD01680DF2
:1035B000791D8A1D9B1D8090080290900902A090A1
:1035C0000A02B0900B02681579058A059B0599F4EB
:1035D000F80187898031A1F4B701A6015527662734
:1035E0007727440F551FFA01EC5BFA4F80819181D8
:1035F000A0E0B0E017C040E0BDDE8111E9CFBACF56
:10360000B701A6014F77552766277727440F551F27
:10361000440F551FFA01EC5BFA4F80819181A28122
:10362000B381BF7088839983AA83BB8381E0DF91D4
:10363000CF911F910F91FF90EF90DF90CF90BF90AF
:10364000AF909F908F9008954F925F926F927F926C
:10365000AF92BF92CF92DF92EF92FF920F931F93A0
:10366000CF93DF9300D01F92CDB7DEB78C01498393
:103670005A836B837C835901C12CD12C7601412C58
:1036800082E0582E612C712C49815A816B817C819A
:103690009E012F5F3F4FC80154DF882351F1D301B2
:1036A000C201F801058404C0880F991FAA1FBB1F1F
:1036B0000A94D2F7C80ED91EEA1EFB1E49815A8110
:1036C0006B817C818789803129F088EF9FEFAFEF94
:1036D000BFE004C088EF9FEFA0E0B0E048175907B3
:1036E0006A077B0788F2F501C082D182E282F38209
:1036F00081E00F900F900F900F90DF91CF911F916D
:103700000F91FF90EF90DF90CF90BF90AF907F90A0
:103710006F905F904F900895CF92DF92EF92FF925B
:103720000F931F93CF93DF936C017A018B01C0E05D
:10373000D0E0CE15DF0589F0D8016D918D01D6015D
:10374000ED91FC910190F081E02DC6011995892B36
:1037500011F47E0102C02196ECCFC701DF91CF9119
:103760001F910F91FF90EF90DF90CF900895FB0194
:10377000DC0111961C921E9213961C921E921297B7
:1037800015961C921E9214978617970741F0608138
:1037900071816115710519F04481558179CA0895C7
:1037A000FC0111821082138212821582148261152B
:1037B000710549F0FB0101900020E9F73197AF0155
:1037C000461B570B65CA0895DC01ED91FC91DB01A6
:1037D00014964D915C9115976D917C910280F381C7
:1037E000E02D19946115710579F0FB01019000201D
:1037F000E9F73197AF01461B570BDC01ED91FC91C6
:103800000280F381E02D199480E090E008954F92BA
:103810005F926F927F92EF92FF920F931F93CF93DD
:10382000DF93CDB7DEB7A1970FB6F894DEBF0FBE1A
:10383000CDBF7C01FA01CB0119A2223008F42AE0A5
:103840008E010F5D1F4F422E512C612C712CBF0138
:10385000A30192010E946924F901CA0101501109D2
:103860006A3014F4605D01C0695CD8016C93232B4D
:10387000242B252B61F7B801C701B4DFA1960FB641
:10388000F894DEBF0FBECDBFDF91CF911F910F9196
:10389000FF90EF907F906F905F904F9008950F93FF
:1038A0001F93CF93DF93EC019DDF8C016AEF72E0F1
:1038B000CE0198DF800F911FDF91CF911F910F9163
:1038C00008950F931F93CF93DF93EC017DDF8C015D
:1038D0006AEF72E0CE0186DF800F911FDF91CF91FA
:1038E0001F910F9108958BEC98E006DA81ED98E036
:1038F00003DA87ED98E000DA8DED98E0FDD983EEEC
:1039000098E0FAD989EE98E0F7D98FEE98E0F4D9EB
:1039100085EF98E0F1C9CF93DF9300D01F92CDB728
:10392000DEB7789484B5826084BD84B5816084BD3F
:1039300085B5826085BD85B5816085BD80916E004D
:10394000816080936E00109281008091810082607E
:1039500080938100809181008160809381008091BB
:1039600080008160809380008091B10084608093AA
:10397000B1008091B00081608093B000809191008F
:10398000826080939100809191008160809391008A
:10399000809190008160809390008091A10082606E
:1039A0008093A1008091A10081608093A10080910B
:1039B000A00081608093A0008091210182608093AB
:1039C000210180912101816080932101809120015A
:1039D00081608093200180917A00846080937A00D6
:1039E00080917A00826080937A0080917A00816071
:1039F00080937A0080917A00806880937A00109298
:103A0000C10083EE97E00E94A81461EB73E083EE9F
:103A100097E045DF86E497E00E94A8146AEC73E023
:103A200083EE97E03CDF64E776E08FE093E00E946E
:103A3000CF146AE676E084E093E00E94CF146FE44E
:103A400075E086EE93E00E94CF146AE175E08CEE9B
:103A500093E00E94CF146CE476E08FEE93E00E9436
:103A6000CF146EE276E087EF93E00E94CF1467E513
:103A700073E082EF93E00E94CF146BE473E086EF73
:103A800093E00E94CF1465E874E08AEF93E00E940F
:103A9000CF1460E574E080E094E00E94CF1469E107
:103AA00076E083E094E00E94CF1464E076E085EE57
:103AB00092E00E94CF146FEE75E087E094E00E94E0
:103AC000CF1465EC74E085E094E00E94CF146CE3C1
:103AD00073E089E094E00E94CF1464E373E08CE02B
:103AE00094E00E94CF1462E174E08FE094E00E94C1
:103AF000CF1464E875E084E194E00E94CF1485E47B
:103B000093E09093CC098093CB096AE174E083EE53
:103B100097E0C5DE6EE274E083EE97E0C0DE61E020
:103B200088E0C0DA10928D0810928B0810928808F5
:103B30001092870888E080938608F0DA5B0161E0E4
:103B400080918608AFDA61E08091860869DA1FB754
:103B5000F89480912805811123C0E1ECF1E0849173
:103B6000EBE7F1E09491E82FF0E0EE0FFF1FE45D4A
:103B7000FE4FA591B491EC91E92319F461E085E33E
:103B80004FDA61E085E38EDA8CB580618CBD8CB54F
:103B900080648CBD61E084E385DA61E083E382DAEE
:103BA000809128058F5F809328051FBF82E5809351
:103BB00080081092810880918008909181080E946D
:103BC000350F1AE08FEF0E94FA0E1150D9F782E8F4
:103BD00098E00E94380F20E030E0A90160E082E820
:103BE00098E00E944D0F182F80938C08813041F08F
:103BF00095DA6A197B09613D774068F381E053C02B
:103C00002AEA31E040E050E068E082E898E00E9473
:103C10004D0F82FF03C010938D080EC014E00E9468
:103C2000010F80938C081150D1F78A3A11F082E08D
:103C30003AC082E080938D0880918D08823021F017
:103C4000C12CD12C760105C0C12CD12CE12C40E433
:103C5000F42E20E030E0A90167E382E898E00E94BA
:103C60004D0FA701960169E282E898E00E944D0F8E
:103C700080938C08882341F051DA6A197B09613DF1
:103C8000774038F388E00FC080918D08823001F5CD
:103C900020E030E0A9016AE382E898E00E944D0F3D
:103CA000882341F086E08093870882E898E00E94AC
:103CB000EF0E90C00E94010F807C803C19F483E0DD
:103CC00080938D080E94010F0E94010F0E94010F36
:103CD00082E898E00E94EF0E80E5809380081092C1
:103CE000810881E00E947B13882329F08091B1082C
:103CF000882341F06FC080E00E947B13882309F481
:103D000069C0F4CF8091A508803109F582E08093E5
:103D1000B1081092C3081092C4081092C5081092FE
:103D2000C6088091A6089091A708A0E0B0E035E011
:103D3000880F991FAA1FBB1F3A95D1F78093BF0820
:103D40009093C008A093C108B093C2081DC08032F0
:103D500009F040C083E08093B1084091A8085091D9
:103D6000A9086091AA087091AB084093C3085093CA
:103D7000C4086093C5087093C6082FEB38E08EE83E
:103D800098E062DC882331F18EE898E09093C808CF
:103D90008093C70881E08093B0081092B208109217
:103DA000B3081092B4081092B5081092B608109299
:103DB000B7081092B8081092B9081092BA08109279
:103DC000BB081092BC081092BD081092BE086DE3AB
:103DD00074E002C06DE474E083EE97E060DD6AE6B3
:103DE00074E083EE97E05BDD2A9A229A2D982B9857
:103DF0002C98259A239A249852985A9A81E58CBD3A
:103E00001DBC2A9880ECE0D92A9AA5E3AA95F1F77F
:103E100000002A9882E0D8D988E2D6D982E0D4D9A5
:103E200080E9D2D981E0D0D983E0CED92A9A2A98E4
:103E300083E0CAD98AE2C8D98FEFC6D9182F2A9A47
:103E4000813049F0289A6AE774E083EE97E027DD35
:103E50001092290516C060E08CE0BCD960E08DE0CE
:103E6000B9D960E680E6B6D960E680E7B3D960E00C
:103E70008FE0B0D96AE874E083EE97E010DD10932C
:103E8000290560E088E10ED960E084E00BD961E0AB
:103E900083E008D960E08FE005D967E974E083EE3C
:103EA00097E0FDDC44E064E18BEF98E00E94A6120D
:103EB00068EA74E08BEF98E095DC80913005909192
:103EC00031050E945F086EEA74E083EE97E0E7DC5C
:103ED00044244A9423E0522E612C712C0FEF10E001
:103EE000F89480913E0590913F05A0914005B091D6
:103EF0004105892B8A2B8B2B49F410D960933E0501
:103F000070933F05809340059093410580913A0559
:103F100090913B05A0913C05B0913D05892B8A2BE2
:103F20008B2B49F4FBD860933A0570933B05809343
:103F30003C0590933D05F2D86093360570933705A4
:103F40008093380590933905C0903A05D0903B0591
:103F5000E0903C05F0903D05DC01CB018C199D09FA
:103F6000AE09BF09853F9140A105B10508F4DEC047
:103F700010923A0510923B0510923C0510923D05B7
:103F800010923605109237051092380510923905B7
:103F900084E01ED8019721F4109225051092240583
:103FA00088E116D8019709F0A7C080912405909167
:103FB00025058130910509F09AC06FEB74E08BEC18
:103FC00098E00E94671680911E0590911F056091F0
:103FD0002005709121055B01A81AB90AB0922F053E
:103FE000A0922E0580912C0590912D058832910587
:103FF0003CF48A0D9B1D90932D0580932C0504C0E5
:1040000010922D0510922C056091220570912305C8
:1040100080E090E03ED36B017C01B501BB0C880BC6
:10402000990B39D34B015C0160910302709104023A
:10403000072E000C880B990B2ED39B01AC01C501F8
:10404000B40164D32AE037ED43E25CE35FD34B0174
:104050005C0160912C0570912D05072E000C880BDA
:10406000990B19D369837A838B839C8360910102B6
:1040700070910202072E000C880B990B0CD39B0148
:10408000AC0169817A818B819C8140D32AE037ED34
:1040900043E25CE33BD320E030E0A90137D39B014E
:1040A000AC01C501B40147D4A70196012FD39B01F0
:1040B000AC01C701B6013FD4A2D46F3F710509F02E
:1040C00028F4709323056093220504C01093230500
:1040D0000093220580911E0590911F0590932B055A
:1040E00080932A0580912205909123051DC0892B7C
:1040F000E9F463EC74E006C01092250510922405E3
:1041000064E073E08BEC98E00E9467160E94BE1595
:104110009C01AFEFB0E0FFD3A3019201AED3309387
:10412000230520932205C9010E94FC140E948E18C9
:104130006093320570933305809334059093350571
:10414000C0903E05D0903F05E0904005F0904105BD
:10415000DC01CB018C199D09AE09BF09853F914057
:10416000A105B105D8F080913005909131050196F7
:10417000909331058093300510923E0510923F05D3
:1041800010924005109241051092320510923305AD
:1041900010923405109235050E945F0878940E94B1
:1041A000C0028091CF099091D009DC01ED91FC9182
:1041B0000084F185E02D1995892B71F18091CF094B
:1041C0009091D009DC01ED91FC910284F385E02D02
:1041D00019958093190990912409891350C0109260
:1041E00021091092200947E259E062E279E08AE170
:1041F00099E0EDD15C019093260980932509892BE4
:1042000059F0C0902909D0902A099BE2892E99E0A3
:10421000992EE12CF12C09C080910702882309F422
:1042200065C053C0EFEFEE1AFE0AEC14FD040CF06B
:1042300060C046E050E0B401C50176D6B8E08B0E10
:10424000911C892B79F7F70183E0EE0FFF1F8A9508
:10425000E1F7ED5EF64F068CF78DE02D1995109283
:104260001A0910921B0910921C0910921D09109234
:104270001E0910921F091092210910922009F09036
:1042800019098F2D0F2C000C990B2BD6892B09F4B3
:1042900088CF80912009909121099C012F5F3F4F89
:1042A0003093210920932009FC01ED5EF64FF7823F
:1042B000F901ED5EF64F1782263031050CF471CF0F
:1042C00010922109109220096CCF0E948E187093D1
:1042D0000602609305022091260530912705621B96
:1042E000730B693E734014F00E94C4070E94BE160F
:1042F000F7CDE091CB09F091CC09B0CFE6E4F7E03F
:104300001382128248EE53E060E070E044835583EC
:10431000668377838CE292E09183808325ED30E0A1
:104320003587248724ED30E03787268720ED30E07D
:10433000318B208B21ED30E0338B228B22ED30E06E
:10434000358B248B26ED30E0378B268B118E128E29
:10435000138E148EE3EEF7E01382128244835583AA
:10436000668377839183808385EC90E0958784874B
:1043700084EC90E09787868780EC90E0918B808B2F
:1043800081EC90E0938B828B82EC90E0958B848B18
:1043900086EC90E0978B868B118E128E138E148E86
:1043A000A0E8B8E080E58C9311961C92A2E8B8E0F2
:1043B00015961C92159716961C92169719961C9294
:1043C00019971B961C921B9742E050E060E070E04A
:1043D0001C964D935D936D937C931F9793961C92BF
:1043E00093979D961C921E929C9780E592E09B96D7
:1043F0009C938E939A979F961C92A3E1B9E0F093B9
:10440000D009E093CF091092CE091092CD091092F5
:10441000D30980E290E050969C938E931F978DE095
:1044200051968C93519757961C921E9256971796B9
:104430001C92179718961C92189719961C92199708
:104440001A961C921A971B961C921B971C961C92EC
:104450001C971E961C921E921D97EBEFF8E013829C
:1044600012828CE592E09183808384E284838FEFD3
:10447000858382E2868380E287838EE180878CE178
:1044800081878AE1828713861486158616861786A9
:1044900041E060E1CF010E94A61267EC74E085EF75
:1044A00098E07ED961ED74E08FEE98E079D969EDFE
:1044B00074E089EE98E074D963EE74E083EE98E0DE
:1044C0006FD968EE74E08DED98E06AD962EF74E020
:1044D00087ED98E065D96AEF74E081ED98E060D9E6
:1044E00064E073E08BEC98E05BC98F929F92AF928F
:1044F000BF92CF92DF92EF92FF92CF93DF93EC01C6
:10450000688179818A819B81611571058105910599
:1045100021F464E279ED8BE597E02DE133EF41E0A2
:1045200050E0ABD149015A019B01AC01A7EAB1E4CB
:10453000C0D16B017C01ACEEB4EFA5019401C5D1F3
:10454000DC01CB018C0D9D1DAE1DBF1DB7FF03C04F
:104550000197A109B04888839983AA83BB83BC01D2
:10456000CD019F77DF91CF91FF90EF90DF90CF90BB
:10457000BF90AF909F908F900895B7CF8CE092E05E
:10458000B4CF60930C0270930D0280930E0290934F
:104590000F020895FC0188279927E8942191203281
:1045A000E9F3293010F02E30C8F32B3239F02D32D8
:1045B00031F4689403C03CD0820F911D21912053A7
:1045C0002A30C8F31EF4909581959F4F0895FA0103
:1045D000A191B081009719F41097E1F0CD01DC01B1
:1045E000CD010D90002011F4C00113C0FB012191F9
:1045F000222319F02015D9F7F3CFFB0121912015C3
:1046000019F41E92119606C02223C1F70D900020C6
:10461000A1F7D001FA01A193B0830895BB274A30D6
:1046200031F4992322F4BDE2909581959F4F09C002
:104630007AE0979F902D879F802D910D11240895EA
:10464000BB27FB015527AA27880F991FAA1FA4176C
:1046500010F0A41B83955051B9F7A05DAA3308F060
:10466000A95DA193009779F7B111B1931192CB0194
:1046700000C0DC01FC01672F71917723E1F73297CD
:1046800004C07C916D9370836291AE17BF07C8F32D
:104690000895E89409C097FB3EF490958095709535
:1046A00061957F4F8F4F9F4F9923A9F0F92F96E97E
:1046B000BB279395F695879577956795B795F111F3
:1046C000F8CFFAF4BB0F11F460FF1BC06F5F7F4F90
:1046D0008F4F9F4F16C0882311F096E911C07723A2
:1046E00021F09EE8872F762F05C0662371F096E8AB
:1046F000862F70E060E02AF09A95660F771F881F7A
:10470000DAF7880F9695879597F908950BD07BC0B7
:104710006CD028F071D018F0952309F05DC062C00C
:104720001124A5C081D0A0F3959FD1F3950F50E03F
:10473000551F629FF001729FBB27F00DB11D639F53
:10474000AA27F00DB11DAA1F649F6627B00DA11DF9
:10475000661F829F2227B00DA11D621F739FB00D9F
:10476000A11D621F839FA00D611D221F749F33270F
:10477000A00D611D231F849F600D211D822F762FA8
:104780006A2F11249F5750408AF0E1F088234AF0A5
:10479000EE0FFF1FBB1F661F771F881F91505040F1
:1047A000A9F79E3F510570F017C061C05F3FECF361
:1047B000983EDCF3869577956795B795F795E795DD
:1047C0009F5FC1F7FE2B880F911D9695879597F9EE
:1047D000089599278827089597F99F6780E870E0E2
:1047E00060E008959FEF80EC089500240A94161667
:1047F000170618060906089500240A9412161306CF
:10480000140605060895092E0394000C11F488235C
:1048100052F0BB0F40F4BF2B11F460FF04C06F5F78
:104820007F4F8F4F9F4F089557FD9058440F551F4E
:1048300059F05F3F71F04795880F97FB991F61F022
:104840009F3F79F087950895121613061406551F99
:10485000F2CF4695F1DF08C0161617061806991F05
:10486000F1CF86957105610508940895E894BB27FA
:1048700066277727CB0197F90895052E97FB16F445
:1048800000940FD057FD05D024D007FC02D046F489
:1048900008C050954095309521953F4F4F4F5F4F41
:1048A000089590958095709561957F4F8F4F9F4F9C
:1048B000089531D0A59F900DB49F900DA49F800DB9
:1048C000911D11240895B7FFF4CFF3DF821B930BE2
:1048D0000895A1E21A2EAA1BBB1BFD010DC0AA1F41
:1048E000BB1FEE1FFF1FA217B307E407F50720F059
:1048F000A21BB30BE40BF50B661F771F881F991FD4
:104900001A9469F760957095809590959B01AC011C
:10491000BD01CF010895A29FB001B39FC001A39F25
:10492000700D811D1124911DB29F700D811D1124E8
:10493000911D08955058BB27AA270ED064CF55DF8C
:1049400030F05ADF20F031F49F3F11F41EF44ACFCB
:104950000EF4E095E7FB40CFE92F66DF80F3BA174E
:10496000620773078407950718F071F49EF57ECFF0
:104970000EF4E0950B2EBA2FA02D0B01B90190017A
:104980000C01CA01A0011124FF27591B99F0593FBE
:1049900050F4503E68F11A16F040A22F232F342F06
:1049A0004427585FF3CF469537952795A795F04054
:1049B0005395C9F77EF41F16BA0B620B730B840B69
:1049C000BAF09150A1F0FF0FBB1F661F771F881F21
:1049D000C2F70EC0BA0F621F731F841F48F4879579
:1049E00077956795B795F7959E3F08F0B3CF939568
:1049F000880F08F09927EE0F9795879508951CDF8B
:104A000088F09F5790F0B92F9927B751A0F0D1F0B7
:104A1000660F771F881F991F1AF0BA95C9F712C041
:104A2000B13081F023DFB1E0089520CF672F782FD8
:104A30008827B85F39F0B93FCCF3869577956795AD
:104A4000B395D9F73EF490958095709561957F4F19
:104A50008F4F9F4F089597FB072E16F4009406D0B2
:104A600077FD08D013D007FC05D03EF490958195D2
:104A70009F4F0895709561957F4F0895EE0FFF1F2A
:104A8000881F8BBF0790F691E02D1994AA1BBB1BC2
:104A900051E107C0AA1FBB1FA617B70710F0A61B3E
:104AA000B70B881F991F5A95A9F780959095BC015F
:104AB000CD010895CF93DF938230910510F482E009
:104AC00090E0E091E409F091E50920E030E0C0E0F9
:104AD000D0E0309711F14081518148175907C0F05B
:104AE0004817590761F482819381209719F09B83BD
:104AF0008A832BC09093E5098093E40926C0211591
:104B0000310519F04217530718F49A01BE01DF016D
:104B1000EF010280F381E02DDCCF2115310509F191
:104B2000281B390B2430310590F412968D919C91FD
:104B300013976115710521F0FB019383828304C0F3
:104B40009093E5098093E409FD01329644C0FD018C
:104B5000E20FF31F81939193225031092D933C93DF
:104B60003AC02091E2093091E309232B41F42091CE
:104B70001202309113023093E3092093E20920914D
:104B80001002309111022115310541F42DB73EB7C5
:104B90004091140250911502241B350BE091E2095B
:104BA000F091E309E217F307A0F42E1B3F0B28173F
:104BB000390778F0AC014E5F5F4F2417350748F096
:104BC0004E0F5F1F5093E3094093E2098193919345
:104BD00002C0E0E0F0E0CF01DF91CF9108950F93A4
:104BE0001F93CF93DF93009709F48CC0FC01329799
:104BF000138212820091E4091091E5090115110553
:104C000081F420813181820F931F2091E20930913C
:104C1000E3092817390779F5F093E309E093E209EE
:104C200071C0D80140E050E0AE17BF0750F41296B3
:104C30002D913C911397AD012115310509F1D90151
:104C4000F3CF9D01DA013383228360817181860F66
:104C5000971F8217930769F4EC0128813981260F89
:104C6000371F2E5F3F4F318320838A819B8193833F
:104C70008283452B29F4F093E509E093E40942C0CF
:104C80001396FC93EE931297ED01499159919E0171
:104C9000240F351FE217F30771F480819181840F8F
:104CA000951F029611969C938E9382819381139601
:104CB0009C938E931297E0E0F0E0D80112968D91CC
:104CC0009C911397009719F0F8018C01F6CF8D9104
:104CD0009C9198012E5F3F4F820F931F2091E20914
:104CE0003091E3092817390769F4309729F41092B5
:104CF000E5091092E40902C0138212821093E309BD
:104D00000093E209DF91CF911F910F9108956F9267
:104D10007F928F929F92AF92BF92CF92DF92EF924B
:104D2000FF920F931F93CF93DF93EC01009781F4D1
:104D3000CB01DF91CF911F910F91FF90EF90DF900A
:104D4000CF90BF90AF909F908F907F906F90B2CE9A
:104D5000FC01E60FF71F9C0122503109E217F3070F
:104D600008F4A8C0D9010D911C91119706171707D7
:104D7000A8F00530110508F49BC0C80104978617F8
:104D8000970708F495C002501109061B170B0193F1
:104D900011936D937C93CF0122DF8AC05B01A01A2F
:104DA000B10A4C01800E911EA091E409B091E50971
:104DB00040E050E0E12CF12C109709F44AC0A8150E
:104DC000B905D1F56D907C901197630182E0C80E12
:104DD000D11CCA14DB0480F1A3014A195B096A01E2
:104DE00082E0C80ED11C1296BC9012971396AC911B
:104DF000B5E0CB16D10440F0B282A3835183408347
:104E0000D9016D937C930AC00E5F1F4FC301800FC1
:104E1000911FF90191838083EB2DFA2FE114F104A6
:104E200031F0D7011396FC93EE93129741C0F093A3
:104E3000E509E093E4093CC08D919C9111974817D6
:104E4000590708F4AC017D0112960D90BC91A02D7C
:104E5000B3CF8091E2099091E30988159905E1F4B7
:104E600046175707C8F480911002909111020097DD
:104E700041F48DB79EB74091140250911502841BE6
:104E8000950BE817F907B0F4F093E309E093E20912
:104E9000F901718360830CC0CB010CDE7C010097AB
:104EA00049F0A801BE0130D0CE0199DEC70104C08F
:104EB000CE0102C080E090E0DF91CF911F910F9171
:104EC000FF90EF90DF90CF90BF90AF909F908F902A
:104ED0007F906F90089581E090E0F8940BC380324A
:104EE00009F0911176CC80528F55E0F70895FB01BF
:104EF000DC0104C08D910190801921F44150504093
:104F0000C8F7881B990B0895FB01DC0102C00190D2
:104F10000D9241505040D8F70895FB01DC010190FB
:104F20000D920020E1F70895FB01DC014150504053
:104F300030F08D910190801919F40020B9F7881B89
:104F4000990B0895FB01DC014150504048F001905D
:104F50000D920020C9F701C01D9241505040E0F76A
:104F600008950F931F93CF93DF93CDB7DEB72E979E
:104F70000FB6F894DEBF0FBECDBF0E891F8986E045
:104F80008C831A8309838FEF9FE79E838D83AE0105
:104F9000465E5F4F688D798DCE01019611D02F81CD
:104FA0003885F801E20FF31F10822E960FB6F894A1
:104FB000DEBF0FBECDBFDF91CF911F910F9108953E
:104FC0002F923F924F925F926F927F928F929F9219
:104FD000AF92BF92CF92DF92EF92FF920F931F9307
:104FE000CF93DF93CDB7DEB72C970FB6F894DEBF23
:104FF0000FBECDBF7C016B018A01FC0117821682B6
:10500000838181FFB0C1CE0101964C01F7019381EC
:10501000F60193FD859193FF81916F01882309F437
:105020009EC1853239F493FD859193FF81916F0183
:10503000853221F4B70190E0C7D1E8CF512C312C53
:1050400020E02032A0F48B3269F030F4803259F045
:10505000833269F420612CC08D3239F0803339F409
:10506000216026C02260246023C0286021C027FD63
:1050700027C030ED380F3A3078F426FF06C0FAE04A
:105080005F9E300D1124532E13C08AE0389E300DE0
:105090001124332E20620CC08E3221F426FD5FC114
:1050A000206406C08C3611F4206802C0883641F4B2
:1050B000F60193FD859193FF81916F018111C1CF1D
:1050C000982F9F7D9554933028F40C5F1F4FFFE37A
:1050D000F9830DC0833631F0833771F0833509F0E1
:1050E00057C021C0F801808189830E5F1F4F44247F
:1050F0004394512C540114C03801F2E06F0E711C1E
:10510000F801A080B18026FF03C0652D70E002C0C9
:105110006FEF7FEFC5012C874CD12C0183012C85CB
:105120002F77222E16C03801F2E06F0E711CF801A5
:10513000A080B18026FF03C0652D70E002C06FEF34
:105140007FEFC5012C872AD12C012C852068222EC7
:10515000830123FC19C0832D90E048165906A0F462
:10516000B70180E290E030D13A94F5CFF50127FC09
:10517000859127FE81915F01B70190E025D1311023
:105180003A94F1E04F1A51084114510479F7DEC006
:10519000843611F0893631F5F80127FF07C06081A8
:1051A0007181828193810C5F1F4F08C06081718182
:1051B000072E000C880B990B0E5F1F4F2F76722E57
:1051C00097FF09C090958095709561957F4F8F4F9F
:1051D0009F4F2068722E2AE030E0A4012DD1A82E26
:1051E000A81843C0853729F42F7EB22E2AE030E07C
:1051F00025C0F22FF97FBF2E8F36C1F018F4883505
:1052000079F0ADC0803719F0883721F0A8C02F2F72
:105210002061B22EB4FE0DC08B2D8460B82E09C063
:1052200024FF0AC09F2F9660B92E06C028E030E008
:1052300005C020E130E002C020E132E0F801B7FE15
:1052400007C060817181828193810C5F1F4F06C00E
:105250006081718180E090E00E5F1F4FA401ECD06F
:10526000A82EA818FB2DFF777F2E76FE0BC0372DBA
:105270003E7FA51450F474FE0AC072FC08C0372D9E
:105280003E7E05C0BA2C372D03C0BA2C01C0B52C08
:1052900034FF0DC0FE01EA0DF11D8081803311F451
:1052A000397E09C032FF06C0B394B39404C0832F83
:1052B000867809F0B39433FD12C030FF06C05A2C33
:1052C000B31418F4530C5B18B32CB31460F4B70187
:1052D00080E290E03C8778D0B3943C85F6CFB3145D
:1052E00010F43B1801C0312C34FF11C0B70180E32A
:1052F00090E03C8769D03C8532FF16C031FD03C089
:1053000088E790E002C088E590E0B7010CC0832FE9
:10531000867851F031FF02C08BE201C080E237FD98
:105320008DE2B70190E050D0A51430F4B70180E3CE
:1053300090E04AD05A94F8CFAA94F401EA0DF11DF6
:105340008081B70190E040D0A110F6CF332009F45E
:105350005DCEB70180E290E037D03A94F7CFF70105
:105360008681978102C08FEF9FEF2C960FB6F8943D
:10537000DEBF0FBECDBFDF91CF911F910F91FF9088
:10538000EF90DF90CF90BF90AF909F908F907F90E5
:105390006F905F904F903F902F900895FC01059083
:1053A000615070400110D8F7809590958E0F9F1F27
:1053B0000895FC016150704001900110D8F780956C
:1053C00090958E0F9F1F08950F931F93CF93DF9398
:1053D000FB01238121FD03C08FEF9FEF28C022FF37
:1053E00016C046815781248135814217530744F402
:1053F000A081B1819D012F5F3F4F318320838C932A
:10540000268137812F5F3F4F3783268310C0EB0102
:10541000092F182F0084F185E02D1995892BE1F6CD
:105420008E819F8101969F838E83812F902FDF91A4
:10543000CF911F910F910895FA01AA27283051F1B9
:10544000203181F1E8946F936E7F6E5F7F4F8F4FB5
:105450009F4FAF4FB1E03ED0B4E03CD0670F781F14
:10546000891F9A1FA11D680F791F8A1F911DA11DF9
:105470006A0F711D811D911DA11D20D009F4689432
:105480003F912AE0269F11243019305D3193DEF6DA
:10549000CF010895462F4770405D4193B3E00FD090
:1054A000C9F7F6CF462F4F70405D4A3318F0495D7B
:1054B00031FD4052419302D0A9F7EACFB4E0A6955E
:1054C0009795879577956795BA95C9F70097610580
:1054D000710508959B01AC010A2E069457954795D6
:1054E00037952795BA95C9F7620F731F841F951FCB
:1054F000A01D089511E0CFE2D1E000E005C0802FAB
:10550000FE01BCDA2196011DC033D10780E00807F7
:06551000B1F7F894FFCF93
:105516000128000500E90301FFFFFFFF010000006D
:105526000000E6098000000000008301E3029A0102
:10553600DB026201890792070000000081178C1BBD
:105546008116C717B2169016A4160000000045175C
:105556008C1B9A0199014517451745170000000055
:105566001E128C1B9A0199010000000078198C1BF1
:105576009A0199010000000045178C1B9A019901B8
:10558600E3074C6F6767696E672064697361626CD5
:105596006564004C6F6767696E6720656E61626C53
:1055A600656400556E7265636F676E697A6564201F
:1055B600636F6D6D616E640043432044697361627D
:1055C6006C656400434320456E61626C65640064EB
:1055D6006174616C6F672E747874006572726F7295
:1055E600206F70656E696E67206C6F672066696CE8
:1055F600652E00530049003530300052004E6F20B2
:10560600617267756D656E7473000D0A004C4544D2
:10561600206973204F4646004C4544206973204F4D
:105626004E0054696D657374616D702C202056654B
:105636006C6F636974792C20205468726F74746C73
:10564600652C20502D76616C75652C20492D766170
:105656006C75652C20442D76616C75652C20204375
:105666007275697365436F6E74726F6C4F6E2C2022
:105676002043414E6D7367310025642020732C2032
:1056860020202025642C2020202020202020256476
:105696002C20202020202025642C202020202020A3
:1056A6002025642C20202020202025642C2020204A
:1056B60020202025642C2020202020202025640A5C
:1056C60000586265652073657269616C20696E6950
:1056D6007469616C697A65642E0041726475696EDD
:1056E6006F2073657269616C20696E697469616C9B
:1056F600697A65642E004745545350004745545413
:105706005400454343004443430047455443430044
:10571600434353500050494400454C00444C004715
:1057260045544C0043494E464F00436F6D6D616EC4
:105736006473205365742061646465642E00536548
:105746007474696E672075702053442E005344208C
:10575600696E697469616C697A65642E0043617269
:1057660064206661696C65642C206F72206E6F74AC
:105776002070726573656E742E0053657474696E5D
:10578600672075702043414E2E0043616E277420BA
:10579600696E69742043414E2E0043414E20496E86
:1057A6006974204F6B2E0050494420696E697469F4
:1057B600616C697A65642E005374617274004C439F
:1057C6004420696E697469616C697A65642E004F5C
:1057D6004E200052445900537065656420203A20DB
:1057E60000206B6D2F682020004261745761726E35
:1057F6003A20004E4F4E4500426174507772203A6F
:10580600200020566F6C7420200043727569736502
:04581600433A2000F1
:020000023000CC
:10E000000D9489F10D94B2F10D94B2F10D94B2F129
:10E010000D94B2F10D94B2F10D94B2F10D94B2F1F0
:10E020000D94B2F10D94B2F10D94B2F10D94B2F1E0
:10E030000D94B2F10D94B2F10D94B2F10D94B2F1D0
:10E040000D94B2F10D94B2F10D94B2F10D94B2F1C0
:10E050000D94B2F10D94B2F10D94B2F10D94B2F1B0
:10E060000D94B2F10D94B2F10D94B2F10D94B2F1A0
:10E070000D94B2F10D94B2F10D94B2F10D94B2F190
:10E080000D94B2F10D94B2F10D94B2F10D94B2F180
:10E090000D94B2F10D94B2F10D94B2F10D94B2F170
:10E0A0000D94B2F10D94B2F10D94B2F10D94B2F160
:10E0B0000D94B2F10D94B2F10D94B2F10D94B2F150
:10E0C0000D94B2F10D94B2F10D94B2F10D94B2F140
:10E0D0000D94B2F10D94B2F10D94B2F10D94B2F130
:10E0E0000D94B2F141546D656761323536300041AF
:10E0F000726475696E6F206578706C6F72657220DE
:10E1000073746B3530305632206279204D4C530099
:10E11000426F6F746C6F616465723E004875683F52
:10E1200000436F6D70696C6564206F6E203D200048
:10E130004350552054797065202020203D20005FF9
:10E140005F4156525F415243485F5F3D2000415658
:10E1500052204C696243205665723D20004743437C
:10E160002056657273696F6E203D20004350552024
:10E1700049442020202020203D20004C6F7720663D
:10E18000757365202020203D20004869676820665F
:10E190007573652020203D200045787420667573D6
:10E1A00065202020203D20004C6F636B2066757336
:10E1B000652020203D20004D617220203720323024
:10E1C000313300312E362E3800342E332E350056A2
:10E1D00023202020414444522020206F7020636F70
:10E1E00064652020202020696E73747275637469E1
:10E1F0006F6E2061646472202020496E74657272B3
:10E20000757074006E6F20766563746F7200726A49
:10E210006D702020006A6D70200057686174207056
:10E220006F72743A00506F7274206E6F7420737541
:10E2300070706F72746564004D7573742062652030
:10E2400061206C6574746572002000577269747483
:10E25000696E672045450052656164696E672045B7
:10E26000450045452065727220636E743D00504F35
:10E27000525400303D5A65726F2061646472003FF1
:10E280003D43505520737461747300403D454550C3
:10E29000524F4D207465737400423D426C696E6B41
:10E2A000204C454400453D44756D70204545505215
:10E2B0004F4D00463D44756D7020464C415348001B
