:100000002FC100005EC100005CC100005AC10000A9
:1000100058C1000056C1000054C1000052C1000088
:1000200050C10000B0C60000AEC60000ACC6000063
:1000300048C1000046C1000044C1000042C10000A8
:1000400040C100003EC100003CC100003AC10000B8
:1000500038C1000036C1000034C100000C94300BE0
:1000600030C100000C94550A0C942C0A2AC10000DF
:1000700028C1000026C1000024C1000022C10000E8
:1000800020C100001EC100001CC100001AC10000F8
:1000900018C1000016C1000014C1000012C1000008
:1000A00010C100000EC100000CC100000AC1000018
:1000B00008C1000006C1000004C1000002C1000028
:1000C00000C10000FEC00000FCC000000C94030A48
:1000D0000C94DA09F6C00000F4C00000F2C0000081
:1000E000F0C000009D09A0098F0993099909D7095B
:1000F000A409A809AE09B209B609BC09C009C40916
:10010000D709CA09CE09D209FE1303140814121420
:100110001C14951426142E14361440144A14541426
:1001200063146D149514771481148B14000021004E
:10013000240027002A002D003000330001010000B8
:10014000040107010A0101021020200808102040C4
:10015000102040800201020108040201010204088B
:100160001020408080402010080402018004020119
:100170008040201008040201080402010102040862
:10018000102040800102040810204080050505056C
:10019000070508080808020202020A0A08080404FF
:1001A000040401010101010101010303030303032D
:1001B0000303040707070C0C0C0C0C0C0C0C0202BC
:1001C000020206060606060606060B0B0B0B0B0BB9
:1001D0000B0B7C3C3E5E2B3D3F2F5B5D3B2C2A2274
:1001E0005C0000002200250028002B002E003100BA
:1001F000340002010000050108010B01000020008D
:100200002300260029002C002F00320000010000EE
:1002100003010601090100000A0B02090C0D0E087A
:1002200007030401000000000000000000000000BF
:1002300000000000000000000000000000000000BE
:10024000000012111000000000000000000000007B
:10025000000000000000000000000000E221E11B9F
:1002600011241FBECFEFD1E2DEBFCDBF00E00CBF37
:1002700014E0A0E0B2E0E6E4F5E500E00BBF02C068
:1002800007900D92A03EB107D9F729E0A0EEB4E0A7
:1002900001C01D92AC3BB207E1F711E0CFE2D1E023
:1002A00000E006C021970109802FFE010E94EC2288
:1002B000CE32D10780E00807A9F70E94F91B0C9401
:1002C000922A9ECE97FF08C02DE22093E0049195DC
:1002D0008195910931E001C030E0803127E2920739
:1002E0000CF46FC080324EE4940734F0803325E77D
:1002F000920724F023E003C021E001C022E0E1E006
:10030000E30FA32FB0E0A052BB4F40E3420F4C934A
:1003100060EF78ED269FA001279F500D1124840FD8
:10032000951F883E43E094070CF444C03E2F883864
:1003300023E1920784F4883B4BE0940734F4803D3A
:1003400027E09207E4F022E023C0803A4FE09407D0
:10035000C4F024E01DC080342FE1920754F48037AC
:1003600047E1940784F088352BE1920774F027E089
:100370000FC0883243E2940754F029E009C021E01D
:1003800007C023E005C025E003C026E001C028E047
:10039000E32FF0E0E052FB4F40E3420F408368E17F
:1003A0007CEF269FA001279F500D1124840F951FDD
:1003B0003F5F4DC03E5FF0E0E052FB4F20E3208303
:1003C00046C0883E23E092070CF0B1CF84369105F9
:1003D0000CF48AC0843F21E092077CF48C3241E027
:1003E00094072CF4883C9105E4F022E023C0803986
:1003F00021E09207C4F024E01DC0803243E094075E
:1004000054F4883522E0920784F08C3B42E0940754
:1004100074F027E00FC0843823E0920754F029E0FD
:1004200009C021E007C023E005C025E003C026E0A5
:1004300001C028E0E32FF0E0E052FB4F40E3420F21
:10044000408344E6249F8019910911240AC0843610
:1004500091050CF0BFCFE32FF0E0E052FB4F20E31B
:1004600020833F5F61E0282F71E0730F432F50E03E
:100470008A308CF1823354F48E3124F48431ACF020
:1004800022E01CC088329CF024E018C0803544F47F
:100490008C33910574F0863491056CF027E00EC022
:1004A0008A35910554F029E009C021E007C023E016
:1004B00005C025E003C026E001C028E0FA01E052B3
:1004C000FB4F90E3920F9083482F3AE0239F40190F
:1004D0001124242F07C0662349F0FA01E052FB4F94
:1004E00080E38083372F02C060E0BDCFE32FF0E0D0
:1004F000E052FB4F205D20833F5FE32FF0E0E052AE
:10050000FB4F108280EE94E00895CF92DF92EF923D
:10051000FF920F931F93CF93DF93E0912807F09101
:1005200029070480F581E02D88E297E01995892B51
:10053000B9F1E0912807F09129070680F781E02DB5
:1005400088E297E01995EC010091F1041091F20412
:100550006091F1047091F204072E000C880B990B46
:100560000E9449296B017C01CE01801B910BBC01CB
:10057000990F880B990B0E94492920E030E040E058
:100580005FE30E9484299B01AC01C701B6010E9470
:1005900009230E946D237093F2046093F104BDCF90
:1005A000DF91CF911F910F91FF90EF90DF90CF904F
:1005B0000895109204026DE572E085EC97E00C94CA
:1005C000BD1B81E0809304026EE672E085EC97E04B
:1005D0000C94BD1B6EE772E085EC97E00C94BD1B9C
:1005E0001092F8041092F70481E08093010263E90D
:1005F00072E085EC97E00C94BD1B81E090E0909355
:10060000F8048093F704109201026FE972E085EC20
:1006100097E00C94BD1BEF92FF920F931F93CF9323
:10062000DF93CDB7DEB7C257D1090FB6F894DEBF5E
:100630000FBECDBF8C017B016EE878E0CE01019644
:100640000E943D1ABE016F5F7F4FCE01CB960E9484
:100650003D1A19A218A287E392E09F8F8E8F1BA2EA
:1006600021969FAD219791111CC06C961FAE1EAEB6
:100670006C9788EE93E0A0E0B0E0A0968CAF9DAFC1
:10068000AEAFBFAFA09781E592E06A969FAF8EAF05
:100690006A97E3961FAE1EAEE397A5961FAEA59789
:1006A00035C0925023E14AEA52E0923048F46EE8B5
:1006B00078E0CE014E960E94060E81110EC0D5CF75
:1006C000BE01655C7F4FCE014E960E94060E8823C8
:1006D00061F2CE01CB960E94841749A95AA96BA951
:1006E0007CA9CE014E960E94C015BE01625E7F4F6E
:1006F000CE0101960E943D1A4AEA52E0BE016F5FA8
:100700007F4FCE01885A9F4F0E948E1AE396EEAD1E
:10071000FFADE3973097C9F085818823B1F0A70139
:10072000B801CE01885A9F4F0E946015E3968EADA6
:100730009FADE397009789F00E948417E3968EADF2
:100740009FADE3970E94332408C066EB72E085EC0E
:1007500097E00E94BD1B10920402CE58DF4F0FB6E7
:10076000F894DEBF0FBECDBFDF91CF911F910F91E7
:10077000FF90EF9008951F93CF93DF93CDB7DEB72F
:1007800028970FB6F894DEBF0FBECDBF809104024C
:10079000811102C010E301C011E362EF73E0CE01EA
:1007A00001960E943E1B1F83188641E050E0BE0167
:1007B000695F7F4FCE0101960E949D1462EF73E046
:1007C000CE0101960E94CA14BE016F5F7F4F85EC77
:1007D00097E00E94CF1BCE0101960E941A15289621
:1007E0000FB6F894DEBF0FBECDBFDF91CF911F9142
:1007F00008950F931F93CF93DF9300D000D0CDB710
:10080000DEB78091F3049091F4045CDD8C016DED12
:1008100073E0CE0101960E943E1BB801CE01019605
:100820000E94CA146EEC72E0CE0101960E94CA14B6
:10083000BE016F5F7F4F85EC97E00E94CF1BCE011A
:1008400001960E941A1526960FB6F894DEBF0FBEC9
:10085000CDBFDF91CF911F910F9108951F93CF933B
:10086000DF93CDB7DEB728970FB6F894DEBF0FBE83
:10087000CDBF8091F7049091F804019711F010E337
:1008800001C011E36DED73E0CE0101960E943E1BA5
:100890001F83188641E050E0BE01695F7F4FCE01A3
:1008A00001960E949D146DED73E0CE0101960E94A9
:1008B000CA14BE016F5F7F4F85EC97E00E94CF1B8B
:1008C000CE0101960E941A1528960FB6F894DEBF45
:1008D0000FBECDBFDF91CF911F9108950F931F934E
:1008E000CF93DF9300D000D0CDB7DEB78091ED0479
:1008F0009091EE04E7DC8C0168EE73E0CE01019686
:100900000E943E1BB801CE0101960E94CA1460ED00
:1009100072E0CE0101960E94CA148091EB0490917E
:10092000EC04D0DCBC01CE0101960E94CA1460ED3B
:1009300072E0CE0101960E94CA148091E904909160
:10094000EA04C0DCBC01CE0101960E94CA146CEE20
:1009500073E0CE0101960E94CA14BE016F5F7F4F03
:1009600085EC97E00E94CF1BCE0101960E941A15DC
:1009700026960FB6F894DEBF0FBECDBFDF91CF91A4
:100980001F910F9108950F931F93CF93DF9300D082
:1009900000D0CDB7DEB78091F5049091F60492DCDB
:1009A0008C0165ED73E0CE0101960E943E1BB801FB
:1009B000CE0101960E94CA1465ED73E0CE01019646
:1009C0000E94CA14BE016F5F7F4F85EC97E00E94C2
:1009D000CF1BCE0101960E941A1526960FB6F894E9
:1009E000DEBF0FBECDBFDF91CF911F910F91089554
:1009F0000F931F93CF93DF9300D000D0CDB7DEB716
:100A00008091F1049091F2045DDC8C016EEC72E057
:100A1000CE0101960E943E1BB801CE0101960E94B4
:100A2000CA146CEE73E0CE0101960E94CA14BE0196
:100A30006F5F7F4F85EC97E00E94CF1BCE01019640
:100A40000E941A1526960FB6F894DEBF0FBECDBFD2
:100A5000DF91CF911F910F9108950E940C12009782
:100A600059F00E94BE289093EA048093E904BC01E7
:100A700085EC97E00C94141262ED72E085EC97E03F
:100A80000C94BD1B0E940C12009759F00E94BE28C6
:100A90009093EC048093EB04BC0185EC97E00C94FC
:100AA000141262ED72E085EC97E00C94BD1B0E947D
:100AB0000C12009759F00E94BE289093EE04809388
:100AC000ED04BC0185EC97E00C94141262ED72E029
:100AD00085EC97E00C94BD1B0E940C120097A1F0CE
:100AE0000E94BE289093F6048093F504AC0160E068
:100AF00070E02AE085EC97E00E94751B6FED72E0D4
:100B000085EC97E00C94601B62ED72E085EC97E059
:100B10000C94BD1B0E940C120097A1F00E94BE28ED
:100B20009093F4048093F304AC0160E070E02AE059
:100B300085EC97E00E94751B6FED72E085EC97E005
:100B40000C94601B62ED72E085EC97E00C94BD1B89
:100B500060E08DE0FBD462EE72E085EC97E00C94EF
:100B6000BD1B61E08DE0F2D46DEE72E085EC97E0A4
:100B70000C94BD1B2F923F924F925F926F927F9287
:100B80008F929F92AF92BF92CF92DF92EF92FF929D
:100B90000F931F93CF93DF931F921F92CDB7DEB7B2
:100BA000FC018581882309F4D7C0848180FFD4C0EB
:100BB00021E02A83438954896589768982859385D2
:100BC000A485B585481759076A077B0709F41A8277
:100BD0006F013A81832F90E0DE0111964D013F01B4
:100BE000B6E06B0E711C892B09F47CC0D6011A96F5
:100BF0004D915D916D917C911D975A01B1E0BB22A1
:100C0000F60125811A012B0189E056944794379407
:100C100027948A95D1F7838D948D223061F4FC015D
:100C2000828D938DA48DB58DBC01CD01620D731D98
:100C3000841D951D44C0DC0114961C911150122195
:100C4000A114B104C9F4111117C0452B462B472B31
:100C500051F4F6018789908DA18DB28D868397839B
:100C6000A087B18709C0468157816085718593014E
:100C7000E2D6882309F470C0F601238D348D868175
:100C80009781A085B1850297A109B109AC01BD0189
:100C9000F901058404C0440F551F661F771F0A948D
:100CA000D2F786859785A089B189840F951FA61FE5
:100CB000B71FBC01CD01610F711D811D911DD601B2
:100CC00014962C9126FF14C0009105021091060283
:100CD000209107023091080260177107820793077D
:100CE00049F506C0FA81FF23B9F1898190E036C049
:100CF00040E0BAD5882381F1F501EA5DFA4FD401CD
:100D0000CF010196E817F90719F021912D93FACF39
:100D1000EFEF8E1A9E0AF60182859385A485B5852C
:100D20000196A11DB11D82879387A487B58780E0B6
:100D300090E059CF740101E010E09501AB01BC01D6
:100D400080912607909127070E945119882321F04E
:100D5000BFEF8B1A9B0ADFCF8FEF9FEF0F900F90A3
:100D6000DF91CF911F910F91FF90EF90DF90CF9087
:100D7000BF90AF909F908F907F906F905F904F90BB
:100D80003F902F9008951F920F920FB60F9211244B
:100D90000F900FBE0F901F9018958EBD0DB407FEDB
:100DA000FDCF8EB508951F93CF93DF931F92CDB7DC
:100DB000DEB7182F289882E06983EFDF812FEDDFFF
:100DC0006981862FEADF289A0F90DF91CF911F91DA
:100DD00008950F931F93CF93DF93CDB7DEB7C85C11
:100DE000D1400FB6F894DEBF0FBECDBF2DD47093A7
:100DF000070560930605809100028E010F5F1F4F6B
:100E0000882359F067EF72E0C8010E94D12566E59A
:100E100070E0C80100DC1092000216D42AE030E035
:100E20003093FA042093F9043093FC042093FB04DC
:100E30003093FE042093FD04309300052093FF04BB
:100E4000309302052093010581E080930305909182
:100E500005059F93909104059F931F928F931F9276
:100E60009AE09F931F929F931F929F931F929F932D
:100E70001F929F937F936F938EE493E09F938F9342
:100E80001F930F930E94F525BC01C801C4DB10928B
:100E90000505109204050FB6F894DEBF0FBECDBF56
:100EA000C853DE4F0FB6F894DEBF0FBECDBFDF9143
:100EB000CF911F910F910895EF92FF920F931F937F
:100EC000CF93DF93CDB7DEB72E970FB6F894DEBF82
:100ED0000FBECDBF6AE070E00E94D922892B09F0D5
:100EE000A9C000E010E0602F812F0E94C51362EBC3
:100EF00074E08DED98E00E94601B1F5F143199F73C
:100F00000F5F043079F760E080E00E94C513E09045
:100F1000F104F090F20467ED78E0CE0109960E94AA
:100F2000251B4AE08E010F5F1F4FB801C7010E94C9
:100F30000C29F80101900020E9F73197AF01401B1F
:100F4000510BB801CE0109960E949D14811104C075
:100F5000CE0109960E94D81461ED78E0CE01099681
:100F60000E94EA14BC018DED98E00E94521BCE0154
:100F700009960E941A1561E080E00E94C5136BEC8F
:100F800078E0C8010E94251B65EC78E0C8010E944A
:100F9000EA14BC018DED98E00E94521BC8010E942A
:100FA0001A1562E080E00E94C5136FEB78E0CE0175
:100FB00009960E94251B4AE0B80180E090E00E945B
:100FC0001E29F80101900020E9F73197AF01401B7D
:100FD000510BB801CE0109960E949D14811104C0E5
:100FE000CE0109960E94D81469EB78E0CE010996EB
:100FF0000E94EA14BC018DED98E00E94521BCE01C4
:1010000009960E941A1563E080E00E94C51363EB05
:1010100078E0C8010E94251B6DEA78E0C8010E94B3
:10102000EA14BC018DED98E00E94521BC8010E9499
:101030001A154CC060E089E00E94C5136091F1046C
:101040007091F2044AE0CE0101960E94EE1A61ED21
:1010500078E0CE0101960E94EA14BC018DED98E083
:101060000E94521BCE0101960E941A1561E089E090
:101070000E94C51365EC78E08DED98E00E94521B4C
:1010800062E089E00E94C5136091EF047091F00462
:101090004AE0CE0101960E94EE1A69EB78E0CE019B
:1010A00001960E94EA14BC018DED98E00E94521B4B
:1010B000CE0101960E941A1563E089E00E94C513D3
:1010C0006DEA78E08DED98E00E94521B2E960FB6E7
:1010D000F894DEBF0FBECDBFDF91CF911F910F916E
:1010E000FF90EF900895FC01A089B1898C91A689A9
:1010F000B78982FD0FC09C91818D8F5F8F73228D88
:10110000821749F0218DDF01A20FB11D5D969C93DE
:10111000818F08958C910895FC01918D828D98178F
:1011200061F0828DDF01A80FB11D5D968C91928DCB
:101130009F5F9F73928F90E008958FEF9FEF0895C8
:10114000FC01918D828D981731F0828DE80FF11D91
:10115000858D90E008958FEF9FEF0895FC01918DAC
:10116000228D892F90E0805C9F4F821B91098F73A5
:101170009927089588E297E0F1DF21E0892B09F4AF
:1011800020E0822F089585EC97E0E8DF21E0892BAD
:1011900009F420E0822F0895FC01848DDF01A80F5F
:1011A000B11DA35ABF4F2C91848D90E001968F738F
:1011B0009927848FA689B7892C93A089B1898C91AE
:1011C00080648C93938D848D981306C00288F38974
:1011D000E02D80818F7D80830895EF92FF920F93A1
:1011E0001F93CF93DF93EC0181E0888F9B8D8C8DD3
:1011F000981305C0E889F989808185FD23C0F62E02
:101200000B8D10E00F5F1F4F0F731127E02E8C8D99
:10121000E8120BC00FB607FCFACFE889F989808184
:1012200085FFF5CFCE01B8DFF2CF8B8DFE01E80F41
:10123000F11DE35AFF4FF0820B8FEA89FB89808111
:10124000806207C0EE89FF896083E889F98980811F
:101250008064808381E090E0DF91CF911F910F91B6
:10126000FF90EF900895CF93DF93EC01888D882352
:10127000C1F0EA89FB89808185FD05C0A889B9890B
:101280008C9186FD0EC00FB607FCF5CF808185FFDF
:10129000F2CFA889B9898C9185FFEDCFCE017CDF93
:1012A000E8CFDF91CF91089580E090E0892B19F08D
:1012B0006ADF81111CC080E090E0892B41F080E062
:1012C00090E0892B21F00E940000811113C052DFB1
:1012D000811113C080E090E0892B99F080E090E0CC
:1012E000892B79F00E940000811109C008950E94A5
:1012F0000000E1CF0E940000EACF07D9EBCF0C94A9
:101300000000089590E0FC013197E231F10508F00A
:101310004EC08827EE58FF4F8F4F0C94EC228091DF
:1013200080008F7703C0809180008F7D8093800044
:10133000089580918000877FF9CF84B58F7702C0B0
:1013400084B58F7D84BD08958091B0008F7703C0F0
:101350008091B0008F7D8093B000089580919000BF
:101360008F7707C0809190008F7D03C0809190009F
:10137000877F8093900008958091A0008F7707C0A9
:101380008091A0008F7D03C08091A000877F809313
:10139000A0000895809120018F7707C080912001DF
:1013A0008F7D03C080912001877F80932001089565
:1013B0000E94AF251F920F920FB60F9211240BB609
:1013C0000F922F933F934F935F936F937F938F93DE
:1013D0009F93AF93BF93EF93FF9388E297E0DCDE98
:1013E000FF91EF91BF91AF919F918F917F916F91FD
:1013F0005F914F913F912F910F900BBE0F900FBEB9
:101400000F901F9018951F920F920FB60F921124F4
:101410000BB60F922F933F934F935F936F937F93EE
:101420008F939F93AF93BF93EF93FF9388E297E0DF
:101430005ADEFF91EF91BF91AF919F918F917F9174
:101440006F915F914F913F912F910F900BBE0F9035
:101450000FBE0F901F9018951F920F920FB60F920C
:1014600011240BB60F922F933F934F935F936F937B
:101470007F938F939F93AF93BF93EF93FF9385ECED
:1014800097E08ADEFF91EF91BF91AF919F918F918D
:101490007F916F915F914F913F912F910F900BBE74
:1014A0000F900FBE0F901F9018951F920F920FB6BE
:1014B0000F9211240BB60F922F933F934F935F938C
:1014C0006F937F938F939F93AF93BF93EF93FF930C
:1014D00085EC97E008DEFF91EF91BF91AF919F916E
:1014E0008F917F916F915F914F913F912F910F90CD
:1014F0000BBE0F900FBE0F901F901895CF93DF93E8
:10150000282F30E0F901EA5EFD4F8491F901EA5B92
:10151000FE4FD491F901E457FE4FC491CC2389F0DA
:101520008111F0DEEC2FF0E0EE0FFF1FE450FE4FD4
:10153000A591B491EC91ED2381E090E021F480E05D
:1015400002C080E090E0DF91CF9108951F93CF9388
:10155000DF93282F30E0F901EA5EFD4F8491F90115
:10156000EA5BFE4FD491F901E457FE4FC491CC23BE
:10157000C1F0162F8111C6DEEC2FF0E0EE0FFF1F39
:10158000EE51FE4FA591B4918FB7F894111105C09B
:101590009C91ED2FE095E92302C0EC91ED2BEC93AB
:1015A0008FBFDF91CF911F910895CF93DF93EC010F
:1015B00060E08E81CBDF61E08E81C8DF60E08E81EC
:1015C000C5DF8BE891E00197F1F7DF91CF910895A6
:1015D000CF93DF9390E0FC01EA5BFE4F2491FC0186
:1015E000E457FE4F8491882361F190E0880F991FA2
:1015F000FC01E45DFE4FC591D491FC01EE51FE4F1C
:10160000A591B491611109C09FB7F8948881209584
:1016100082238883EC912E230BC0623061F49FB744
:10162000F8943881822F809583238883EC912E2B28
:101630002C939FBF06C08FB7F894E8812E2B288388
:101640008FBFDF91CF9108952FB7F8946091220555
:101650007091230580912405909125052FBF089551
:101660001F920F920FB60F9211242F933F938F93D7
:101670009F93AF93BF938091220590912305A091F2
:101680002405B09125053091210523E0230F2D3746
:1016900020F40196A11DB11D05C026E8230F029676
:1016A000A11DB11D20932105809322059093230550
:1016B000A0932405B093250580911D0590911E05EA
:1016C000A0911F05B09120050196A11DB11D809329
:1016D0001D0590931E05A0931F05B0932005BF9193
:1016E000AF919F918F913F912F910F900FBE0F90CF
:1016F0001F901895CF92DF92EF92FF920F931F9356
:10170000CF93DF937C016C0187E0C80ED11CC0E051
:10171000D0E0062F10E0B8010C2E02C07595679539
:101720000A94E2F76170F60181916F010FDF219653
:10173000C430D10581F7C701DF91CF911F910F917F
:10174000FF90EF90DF90CF9030CFCF92DF92EF926B
:10175000FF920F931F93CF93DF93EC01F62E642F2C
:101760008C81F4DE8D818F3F11F060E0EFDE8F859C
:101770000F2D10E084FF23C06E0187E0C80ED11C3E
:10178000E12CF12CB8010E2C02C0759567950A94D6
:10179000E2F76170F60181916F01D8DEFFEFEF1A79
:1017A000FF0A88E0E816F10469F7CE01DF91CF91D6
:1017B0001F910F91FF90EF90DF90CF90F6CEB80180
:1017C00084E0759567958A95E1F7CE0193DF6F2DDB
:1017D000CE01DF91CF911F910F91FF90EF90DF909D
:1017E000CF9088CF41E0B1DF81E090E0089540E004
:1017F000ACCF809118058823A9F140910502509142
:101800000602609107027091080226E235E080919D
:101810002607909127070E94DE19811102C080E0FF
:1018200008954091190550911A0560911B0570911A
:101830001C05411551056105710591F026E235E061
:1018400080912607909127070E94DE19882339F39B
:101850001092190510921A0510921B0510921C0582
:101860001092180581E008958F929F92AF92BF92D7
:10187000EF92FF920F931F93CF934B015C01C42F04
:101880008091050290910602A0910702B091080292
:1018900088159905AA05BB05F9F0ABDF811102C0D7
:1018A00080E020C086E2E82E85E0F82E00E012E01D
:1018B00020E030E0B501A401809126079091270730
:1018C0000E945119882361F38092050290920602CA
:1018D000A0920702B092080280911805C82BC0930D
:1018E000180581E0CF911F910F91FF90EF90BF906D
:1018F000AF909F908F9008954F925F926F927F92DA
:101900008F929F92AF92BF92CF92DF92EF92FF920F
:101910000F931F93CF93DF93EC016A017B012801A2
:101920003901423051056105710510F480E072C043
:1019300089859A85AB85BC850196A11DB11D84174B
:101940009507A607B70790F38B889C88AD88BE885B
:101950008F89803129F4BB27AF2D9E2D8D2D09C095
:10196000DB01CA0147E0B695A795979587954A95FB
:10197000D1F7880E991EAA1EBB1E80910502909178
:101980000602A0910702B091080288169906AA06DD
:10199000BB0679F48F89803199F4DD24EE24FF248D
:1019A000C601880F991FFC01EA5DFA4F51824082FF
:1019B00018C040E0C501B40157DF8111EBCFB6CFAD
:1019C000E894C7F8DD24EE24FF24C601880F991F90
:1019D000880F991FFC01EA5DFA4F408251826282B2
:1019E0007382809118058160809318058A898230FE
:1019F00080F08D819E81AF81B885880E991EAA1EC8
:101A0000BB1E8092190590921A05A0921B05B092F8
:101A10001C0581E0DF91CF911F910F91FF90EF9016
:101A2000DF90CF90BF90AF909F908F907F906F90FE
:101A30005F904F9008958F929F92AF92BF92CF92F6
:101A4000DF92EF92FF920F931F93CF93DF93FC01EE
:101A500081859285A385B4850196A11DB11D84174A
:101A60009507A607B70710F480E05BC083899489C7
:101A7000A589B689C789C03129F4852E962EA72E4F
:101A8000BB2409C04A015B01C7E0B694A7949794B0
:101A90008794CA95D1F7E9016A017B018F01BC01E6
:101AA000CD01680D791D8A1D9B1D809005029090C7
:101AB0000602A0900702B0900802681579058A0511
:101AC0009B0599F4F80187898031A1F4B701A6013B
:101AD000552766277727440F551FFA01EA5DFA4F0D
:101AE00080819181A0E0B0E017C040E0BDDE8111AF
:101AF000E9CFBACFB701A6014F77552766277727D9
:101B0000440F551F440F551FFA01EA5DFA4F8081BB
:101B10009181A281B381BF7088839983AA83BB839B
:101B200081E0DF91CF911F910F91FF90EF90DF90B7
:101B3000CF90BF90AF909F908F9008954F925F92FB
:101B40006F927F92AF92BF92CF92DF92EF92FF920D
:101B50000F931F93CF93DF9300D01F92CDB7DEB7C3
:101B60008C0149835A836B837C835901C12CD12C0E
:101B70007601412C82E0582E612C712C49815A81CA
:101B80006B817C819E012F5F3F4FC80154DF88230A
:101B900051F1D301C201F801058404C0880F991FD7
:101BA000AA1FBB1F0A94D2F7C80ED91EEA1EFB1E3D
:101BB00049815A816B817C818789803129F088EF46
:101BC0009FEFAFEFBFE004C088EF9FEFA0E0B0E071
:101BD000481759076A077B0788F2F501C082D1824E
:101BE000E282F38281E00F900F900F900F90DF91CF
:101BF000CF911F910F91FF90EF90DF90CF90BF900A
:101C0000AF907F906F905F904F9008954F925F924A
:101C10006F927F92AF92BF92CF92DF92EF92FF923C
:101C20000F931F93CF93DF93CDB7DEB72B970FB6EC
:101C3000F894DEBF0FBECDBF7C01CE0101966C01D2
:101C4000FC0190E28BE08C0D91938E13FDCFDA01B5
:101C500030E047E09D91992339F19E3219F0E2ED91
:101C6000F1E00AC04A3009F46EC138E04AE0F2CF30
:101C70003196891709F467C184918111F9CF43170F
:101C800008F461C18FED890F8E3508F05CC181E0E9
:101C9000830FF601E30FF11D3FE9390F3A3108F4E4
:101CA00090529083382FD6CF8981803209F44BC16E
:101CB000B22E8B01DB015B968D919C915C97F701B5
:101CC000948F838F16961D921D921D921C921997C8
:101CD000FB011286138614861586712CF801828505
:101CE0009385A485B5854389548965897689841748
:101CF0009507A607B70708F061C025E0B695A79538
:101D0000979587952A95D1F7F82FFF706F2ED801F8
:101D100015968C91823008F416C1C8010E94BA054C
:101D200097FD11C1F80182859385A485B5854F96ED
:101D3000A11DB11D82879387A487B587F0E26F9EAE
:101D4000C0011124BC016A5D7A4F6115710509F467
:101D5000FAC0DB012C91222319F0253EC1F427C0E3
:101D600071100EC0F701628A40910502509106027F
:101D7000609107027091080246875787608B718BCC
:101D8000FC01EA5DFA4F8081811113C015C04BE060
:101D900050E0C6010E94BB25892B09F09FCF8B2DF7
:101DA0008073803309F4CFC04B2D662DC9C07720D6
:101DB000C9F27724739492CF772473948B2D827118
:101DC000823109F0C0C07720C9F0D7011E966D910D
:101DD0007D918D919C91519741E046DD882309F4D6
:101DE000B2C0F7016289F0E26F9FB00111246A5D11
:101DF0007A4F6115710509F078C0A5C0D801159614
:101E00008C91823009F49FC0C8010E948F178823EB
:101E100009F499C0D8015B96ED91FC915C971696F8
:101E20004D905D906D907C901997B2E04B1A5108DF
:101E300061087108058404C0440C551C661C771C9D
:101E40000A94D2F786859785A089B189480E591ED4
:101E50006A1E7B1EA480E1E04E1A510861087108D9
:101E6000AA2001F1C6DC882309F46DC0E6E2F5E0A2
:101E7000119227E0E632F207D9F7D301C2018A0DA9
:101E8000911DA11DB11D8093050290930602A093A0
:101E90000702B093080280911805816080931805AD
:101EA000AA94DECFD8015B96ED91FC915C9780E01F
:101EB00092E0A0E0B0E0058404C0880F991FAA1F3B
:101EC000BB1F0A94D2F7F801438954896589768942
:101ED000840F951FA61FB71F838B948BA58BB68B82
:101EE000D70152961C9266E275E080E2FB011192E6
:101EF0008A95E9F78BE0F601DB0101900D928A9556
:101F0000E1F781E298E2DB0151969C938E93509722
:101F100020E038E01F963C932E931E9753969C9397
:101F20008E93529759969C938E93589757963C93BD
:101F30002E9356975EDC882331F04B2DF701628992
:101F4000C701DDD601C080E02B960FB6F894DEBF46
:101F50000FBECDBFDF91CF911F910F91FF90EF90FA
:101F6000DF90CF90BF90AF907F906F905F904F9039
:101F700008952F923F924F925F926F927F928F922D
:101F80009F92AF92BF92CF92DF92EF92FF920F9308
:101F90001F93CF93DF9300D01F92CDB7DEB78C0194
:101FA0005B011A01DC0115968C9115978130C1F403
:101FB00014968C9181FF14C082FF1AC0F8014389E6
:101FC00054896589768982859385A485B58584172A
:101FD0009507A607B70761F0C801D2D5811108C0DF
:101FE00081E090E0F8019383828380E090E034C147
:101FF000610183C0D8015B968D919C915C97FC0137
:10200000248121502A013B0139E07694679457944A
:1020100047943A95D1F7722E74207A01F1E0FF22AD
:10202000772009F476C080E092E08E199F0946017E
:102030008C159D0508F44C01D8015B962D913C91BF
:102040005C9716968D919D910D90BC91A02D029755
:10205000A109B109F901058404C0880F991FAA1FBD
:10206000BB1F0A94D2F74685578560897189840F12
:10207000951FA61FB71F9C01AD01270D311D411DE6
:10208000511D29013A01811432E0930609F086C0FE
:102090008091050290910602A0910702B09108027A
:1020A00084159505A605B70559F48FEF9FEFDC0160
:1020B0008093050290930602A0930702B093080252
:1020C0009501B301A20180912607909127070E94F4
:1020D000DE19882309F484CF9EEFB91AC818D908ED
:1020E000F80182859385A485B585880D991DA11D6C
:1020F000B11D82879387A487B587D8011A964D9121
:102100005D916D917C911D97C114D10409F072CF3E
:1021100083C0E114F10409F086CF16964D915D91CC
:102120006D917C911997411551056105710559F41F
:1021300057968D919D910D90BC91A02D0097A10572
:10214000B10531F520C09E012F5F3F4F74DC88231D
:1021500009F44CCF89819A81AB81BC81F801238D30
:10216000348DF9012789203129F048EF5FEF6FEFB7
:102170007FE004C048EF5FEF60E070E084179507F0
:10218000A607B70728F0C801CAD681114CCF28CFBF
:10219000F80186839783A087B18745CFE114F104C6
:1021A00021F5D8011A964D915D916D917C911D9705
:1021B00053968D919D910D90BC91A02D4817590774
:1021C0006A077B0790F015DB882309F409CF40925A
:1021D00005025092060260920702709208028091F6
:1021E000180581608093180507C041E0C301B20162
:1021F0003BDB882309F4F4CED501F701EA5DFA4F01
:10220000CF01880D991DE817F90719F02D91219339
:10221000FACFA80CB91C62CF53968D919D910D9069
:10222000BC91A02D84179507A607B70740F4F801C5
:10223000438B548B658B768B848180688483D80133
:1022400014968C9183FD02C0C10106C0C80153D40D
:10225000882309F4C5CEF8CF0F900F900F900F9000
:10226000DF91CF911F910F91FF90EF90DF90CF9072
:10227000BF90AF909F908F907F906F905F904F90A6
:102280003F902F900895CF93DF931F92CDB7DEB785
:10229000698341E050E0BE016F5F7F4F6ADE0F90BF
:1022A000DF91CF9108950F931F93CF93DF93EC01AC
:1022B00088819981009729F02A813B812617370769
:1022C00088F48B016F5F7F4F0E94CB24009761F0F1
:1022D000998388831B830A832C813D81232B11F4EE
:1022E000FC01108281E001C080E0DF91CF911F915D
:1022F0000F910895EF92FF920F931F93CF93DF9367
:10230000EC01423018F08F8588608F874B8B1C8AD8
:1023100080E48D8B6E8B70E0605C7F4F6F8B61E033
:102320008C8156D98D818F3F11F061E051D961E0E8
:102330008E814ED97E0187E0E80EF11C00E010E0AE
:102340008F8584FD03C084E090E002C088E090E0C7
:102350000817190744F461E0F70181917F0138D92A
:102360000F5F1F4FEDCF8BE39DE00197F1F760E02A
:102370008C81ECD860E08E81E9D88D818F3F11F09F
:1023800060E0E4D86F8564FD19C063E0CE01B2D986
:102390000BE416E4C8010197F1F763E0CE01AAD976
:1023A000C8010197F1F763E0CE01A4D983E592E07B
:1023B0000197F1F762E0CE019DD913C06062CE01B2
:1023C00016DA8BE496E40197F1F76F856062CE012F
:1023D0000EDA83E592E00197F1F76F856062CE0136
:1023E00006DA6F856062CE0102DA84E0888B6CE0E9
:1023F000CE01FDD961E0CE01FAD98BE39FE10197CF
:10240000F1F782E0898B66E0CE01DF91CF911F91D9
:102410000F91FF90EF90EBC949E059E064E079E05B
:1024200080E090E00C94DB28CF92DF92EF92FF9255
:102430000F931F93CF93DF93EC016B01770FEE089F
:10244000FF08F7FE16C0E881F9810190F081E02DC8
:102450006DE219958C0144275527BA014C195D0985
:102460006E097F092AE0CE010E94751B080F191F13
:1024700006C02AE0B701A6010E94751B8C016FED12
:1024800072E0CE010E94601B800F911FDF91CF91FF
:102490001F910F91FF90EF90DF90CF9008958F9252
:1024A0009F92AF92BF92CF92DF92EF92FF92CF9323
:1024B000DF93C82F84E698E0909327078093260740
:1024C000CC2361F1C53010F080E00BC140E060E04A
:1024D00070E0CB01C9D98823B9F320E1C29FC001C4
:1024E00011248A5E9A4FFC01E254FE4F20812F771F
:1024F00059F73C9640815181628173814436510580
:102500006105710508F33497C080D180E280F380C3
:10251000C114D104E104F10421F4D6CFC12CD12C93
:10252000760140E0C701B6019FD9882369F2809106
:102530003105909132058115924031F6A091360512
:10254000AA2309F4C1CF6091340570913505611556
:10255000710509F4B9CF20913305222309F4B4CFD2
:10256000A09382082093740880E030E0E1E0F0E07E
:10257000C82FAF01082E02C0440F551F0A94E2F77E
:102580002417350741F0982F8F5F983089F789E03D
:1025900080937D0899CF80937D0820913C053091F0
:1025A0003D052115310519F040E050E008C02091AB
:1025B0004A0530914B0540914C0550914D052093B3
:1025C0007508309376084093770850937808460151
:1025D0005701860E971EA11CB11C80928308909211
:1025E0008408A0928508B0928608E0913705F091A2
:1025F0003805F0938908E0938808B0E00E94572AD4
:10260000860E971EA81EB91E80928A0890928B088B
:10261000A0928C08B0928D0885E0EE0FFF1F8A957E
:10262000E1F7E150FE4FEF2FFF27E6958E0E9F1E3C
:10263000A11CB11C80927E0890927F08A092800815
:10264000B09281082091390530913A052115310564
:1026500021F0A90160E070E008C04091460550916A
:1026600047056091480570914905D701C601881951
:102670009909AA09BB09840F951FA61FB71F04C09B
:10268000B695A79597958795CA95D2F780937908BF
:1026900090937A08A0937B08B0937C08853F2FE045
:1026A0009207A105B10510F48CE018C0853F9F4F3B
:1026B000A105B10510F480E111C0809152059091FF
:1026C0005305A0915405B091550580938A089093C5
:1026D0008B08A0938C08B0938D0880E280938708C4
:1026E00081E0DF91CF91FF90EF90DF90CF90BF908E
:1026F000AF909F908F900895CF93DF9320910B0917
:1027000030910C09243131050CF5EB01BC01C901F4
:1027100023E0880F991F2A95E1F746E050E0835F98
:10272000964F0E94E62580910B0990910C09FC01BF
:1027300033E0EE0FFF1F3A95E1F7EB50F74FD78FDD
:10274000C68F019690930C0980930B09DF91CF916E
:1027500008951F93CF93DF931F92CDB7DEB7182F45
:10276000289885E069830E94CD06812F0E94CD06BE
:102770006981862F0E94CD0680E00E94CD06289AAE
:102780000F90DF91CF911F910895643008F063E0BE
:102790009091F008691710F06FEF690FE62FF0E0E5
:1027A000E352F74F9489682F690F60688DED98E0C8
:1027B0001EC8CF93DF93EC0161E08EE20E94E80A2D
:1027C000209711F460E004C0CF3FD10531F461E0FF
:1027D0008EE2DF91CF910C94A60AE4E4F2E0E4915A
:1027E0008E2F90E0FC013197E231F10508F09DC099
:1027F0008827EC57FF4F8F4F0C94EC2284B58068EC
:1028000084BDC7BD97C084B5806284BDC8BD92C079
:1028100080918000806880938000D0938900C0936D
:10282000880088C080918000806280938000D0936F
:102830008B00C0938A007EC0809180008860809366
:102840008000D0938D00C0938C0074C08091B00044
:1028500080688093B000C093B3006CC08091B000DA
:1028600080628093B000C093B40064C080919000F7
:10287000806880939000D0939900C09398005AC0CC
:1028800080919000806280939000D0939B00C093D1
:102890009A0050C080919000886080939000D093FF
:1028A0009D00C0939C0046C08091A00080688093EA
:1028B000A0008091A0008F7B8093A000D093A900FE
:1028C000C093A80037C08091A00080628093A000D0
:1028D000D093AB00C093AA002DC08091A000886067
:1028E0008093A000D093AD00C093AC0023C0809132
:1028F0002001806880932001D0932901C093280192
:1029000019C080912001806280932001D0932B0117
:10291000C0932A010FC0809120018860809320011C
:10292000D0932D01C0932C0105C0C038D1050CF007
:102930004ECF48CFDF91CF910895EF92FF920F9342
:102940001F93CF93DF93FC012481358161157105BD
:1029500011F480E018C041155105A1F07B01EC0194
:102960008A01020F131FB8019EDC882391F328818E
:1029700039818C819D81B701820F931F0E94D125DF
:102980001D830C8381E0DF91CF911F910F91FF9008
:10299000EF9008956115710549F0FB010190002049
:1029A000E9F73197AF01461B570BC7CF80E0089579
:1029B000CF93DF93EC0188819981009711F00E94F9
:1029C0003324198218821D821C821B821A82DF9195
:1029D000CF910895CF93DF93EC01FB0144815581A2
:1029E00060817181AADF811102C0CE01E1DFCE01D9
:1029F000DF91CF910895EF92FF920F931F93CF93A2
:102A0000DF93EC017B018A01BA014DDC811103C027
:102A1000CE01CEDF07C01D830C83B7018881998169
:102A20000E94D125CE01DF91CF911F910F91FF9090
:102A3000EF900895FC01808191810C943324DC0196
:102A40005996ED91FC915A973097B9F08389948902
:102A5000A589B6894285538564857585841B950B48
:102A6000A60BB70B811520E89207A105B10538F038
:102A70008FEF9FE7A0E0B0E0089580E090E0089538
:102A8000CF93DF931F92CDB7DEB76983DC01ED9161
:102A9000FC910280F381E02D41E050E0BE016F5FC8
:102AA0007F4F19950F90DF91CF910895FC01818D93
:102AB000928D009711F00C94BA058FEF9FEF089557
:102AC000CF93DF93EC01898D9A8D009739F481E0E3
:102AD00090E09B838A8380E090E00AC0FC0113822F
:102AE000128247DAE98DFA8D22813381232B79F71F
:102AF000DF91CF910895CF93DF93EC018D818823EF
:102B0000A1F18C8187FF2DC06E857F858889998989
:102B100041E00E94340C882341F1EA8980E2E89F79
:102B2000F0011124DF01AA5DBA4F1097F1F08D81F9
:102B3000823050F44B895C896D897E895C964D9317
:102B40005D936D937C935F978F89988DA98DBA8DD6
:102B5000EA5DFA4F938F828FB58BA48B8C818F7730
:102B60008C83DF91CF910C94F90B80E0DF91CF91B2
:102B70000895FC01818D928D009709F0BCCF0895D6
:102B80008F929F92AF92BF92CF92DF92EF92FF927D
:102B90000F931F93CF93DF93EC018D81811102C0BE
:102BA00080E077C00B891C892D893E8904171507A1
:102BB00026073707A8F36A017B01823029F4CA8609
:102BC000DB86EC86FD860DC0C114D104E104F1045E
:102BD00051F41E821F82188619861A861B861C864F
:102BE0001D8681E056C08A849B84AC84BD84EB8DB5
:102BF000FC8D258530E0275F3F4FB501A401415092
:102C0000510961097109022E04C07695679557959F
:102C100047950A94D2F7D701C6010197A109B109D6
:102C200004C0B695A795979587952A95D2F78417EE
:102C30009507A607B70720F089288A288B2849F42A
:102C40004F89588D698D7A8D4E835F836887798728
:102C500004C0841B950BA60BB70B4C015D018E01C4
:102C60000A5F1F4F81149104A104B10409F4A7CF96
:102C70004E815F816885798598018B8D9C8D0E943E
:102C80001B0D91E0891A9108A108B1088111EACFC2
:102C900087CFDF91CF911F910F91FF90EF90DF9041
:102CA000CF90BF90AF909F908F9008950F931F93F8
:102CB000CF93DF93FC01818D928D0097B1F0EF01EE
:102CC0000E94BA058C010F3F8FEF180789F0898D9C
:102CD0009A8DFC0142855385648575854150510963
:102CE000610971094DDFC80105C080E090E002C0B4
:102CF0008FEF9FEFDF91CF911F910F9108958F92EA
:102D00009F92AF92BF92CF92DF92EF92FF920F937A
:102D10001F93CF93DF9300D01F92CDB7DEB77C0116
:102D200080E2689F6001112496012A5D3A4FD90123
:102D30001B969C91917121F0842F827409F096C0AA
:102D4000142FF701628B8091050290910602A091E9
:102D50000702B091080286879787A08BB18BF60196
:102D6000EA5DFA4F4489558960E070E0BA01552761
:102D70004427D70157964D935D936D937C935A9753
:102D8000828D938DA0E0B0E0482B592B6A2B7B2BD2
:102D9000D70157964D935D936D937C935A97D901C4
:102DA0001B968C91887159F4848D958DA68DB78D65
:102DB000F701838B948BA58BB68B81E012C0803199
:102DC00009F054C097012D5E3F4FD7015B968D915E
:102DD0009C915C970E949E0D882309F447C084E073
:102DE000F7018583812F8F70D70114968C931497E8
:102DF000F70116821782108611861A961D921D926F
:102E00001D921C921D9716FF33C015968C91813030
:102E100069F511FF2BC0F7014389548965897689CB
:102E2000452B462B472B09F45EC040E050E0BA0129
:102E3000C701A6DE8823D1F0F7018788908CA18C8A
:102E4000B28CC38CD48C82E090E0A0E0B0E0F601BC
:102E500080839183A283B3839E012F5F3F4FB5018F
:102E6000A401C6010E941B0D811104C080E03BC07B
:102E700081E039C000E010E09801B501A401C6016D
:102E80000E947C0C882391F389809A80AB80BC805F
:102E9000D60157968C91803129F088EF9FEFAFEFE4
:102EA000BFE004C088EF9FEFA0E0B0E0881699066D
:102EB000AA06BB0688F2D70157961D921D921D9255
:102EC0001C925A97F701138A148A158A168A8481EC
:102ED00080688483C7010FDE882341F240E050E020
:102EE000BA01C7014DDE0F900F900F900F90DF9148
:102EF000CF911F910F91FF90EF90DF90CF90BF90F7
:102F0000AF909F908F900895CF93DF93EC01F3DD06
:102F1000882311F01D8281E0DF91CF9108953F92C7
:102F20004F925F926F927F928F929F92AF92BF92D9
:102F3000CF92DF92EF92FF920F931F93CF93DF9385
:102F4000CDB7DEB72C970FB6F894DEBF0FBECDBF5E
:102F50005C01DC015B968D909C905C971696CD9001
:102F6000DD90ED90FC901997C114D104E104F104B7
:102F700039F0BFEFCB1ADB0AEB0AFB0A312C07C092
:102F8000F401C080D180E280F38033243394F401D3
:102F900081859285A385B4859C01AD012F5F3F4F4C
:102FA0004F4F5F4F29873A874B875C872601370150
:102FB0001D821E821F821886F40181859285A38559
:102FC000B4852D813E814F815885281739074A07DE
:102FD0005B0708F063C089859A85AB85BC858C1535
:102FE0009D05AE05BF0550F482E0C82ED12CE12C22
:102FF000F12C92E0492E512C612C712C9E012F5FF7
:103000003F4FB701A601C4010E941B0D882309F49C
:1030100045C089819A81AB81BC81892B8A2B8B2BFE
:1030200041F0260137019FEF491A590A690A790AC6
:1030300005C0C414D504E604F70491F02D813E8147
:103040004F8158852F5F3F4F4F4F5F4F2D833E83FA
:103050004F8358873FEFC31AD30AE30AF30AACCF72
:103060000FEF1FEF2FEF3FE0B301A201C4010E9459
:103070007C0C882399F0D50116964D915D916D9148
:103080007C911997411551056105710549F093012E
:103090008201C4010E947C0C811102C080E02AC020
:1030A000D50116964D925D926D927C9219973320C0
:1030B00051F0D301C2010196A11DB11DF40180831D
:1030C0009183A283B383F5018789908DA18DB28D01
:1030D000892B8A2B8B2B69F4D50157964D925D92E3
:1030E0006D927C925A9714968C91149780681496DE
:1030F0008C9381E02C960FB6F894DEBF0FBECDBF47
:10310000DF91CF911F910F91FF90EF90DF90CF90C3
:10311000BF90AF909F908F907F906F905F904F90F7
:103120003F9008958FB7F8948091B7098FBF0895A5
:1031300061E0FC0184810E94A60A8091B609811198
:103140001092B60908958EBD00000DB407FEFDCFA4
:103150008EB508958FEFF7CF0F931F93CF93DF9323
:10316000EB010E94240B8B01F5DF8F3F49F00E9499
:10317000240B601B710B6C177D07B0F380E001C05E
:1031800081E0DF91CF911F910F910895CF93DF934D
:10319000EC018E81882379F08F8198859C012F5FC7
:1031A0003F4F38872F838230924010F4D3DFF4CF23
:1031B000CE01BEDF1E82DF91CF9108958CBD9DBDF3
:1031C0000895CF93DF93EC018091B609811108C077
:1031D00081E08093B6098091620890916308EEDFE8
:1031E00060E08C81DF91CF910C94A60ACF92DF92A0
:1031F000FF920F931F93CF93DF9300D01F92CDB711
:10320000DEB76C01F62E29833A834B835C83BEDFE5
:10321000C601D7DF6CE271E0C6019EDF8F2D8064AE
:1032200092DF08E110E05C814B813A812981DA016B
:10323000C901002E04C0B695A795979587950A9465
:10324000D2F729833A834B835C837DDF08501109D1
:1032500029813A814B815C81083F8FEF180739F74C
:10326000FF2029F0E8E0FE1204C087E803C085E9EA
:1032700001C08FEF68DF10E06DDFF601828787FF06
:1032800004C01F3F11F01F5FF7CF0F900F900F90FA
:103290000F90DF91CF911F910F91FF90DF90CF9012
:1032A0000895AF92BF92CF92DF92EF92FF920F9369
:1032B0001F93CF93DF93EC016901C801820F931F25
:1032C0008130924008F06AC08E81882371F0888135
:1032D0009981AA81BB81481759076A077B0729F49E
:1032E0008F819885C816D90698F5488359836A83D3
:1032F0007B838B85833039F089E0440F551F661F2F
:10330000771F8A95D1F79A01AB0161E1CE016EDF9B
:10331000882319F083E08D8341C00E94240B5B0158
:1033200019DF8A878F3F49F40E94240B6A197B09B1
:103330006D327140A8F38FE003C08E3F29F08DE01D
:103340008D83CE01F5DE2AC018861F8281E08E8330
:103350008F8198858C159D0538F4FCDE8F819885CA
:10336000019698878F83F4CF6701E00EF11ECE148B
:10337000DF0429F0EFDEF60181936F01F8CF8F8132
:103380009885080F191F18870F838985882319F0DE
:103390000115124038F0CE01F9DE04C0CE01C8DEBE
:1033A00080E001C081E0DF91CF911F910F91FF90EC
:1033B000EF90DF90CF90BF90AF900895EF92FF9283
:1033C0000F931F93CF93DF93EC01790141155105C2
:1033D0006105710511F482E134C08B85833039F0C9
:1033E00089E0440F551F661F771F8A95D1F79A0110
:1033F000AB0168E1CE01FADE882311F084E021C040
:103400008EEFA1DE87018EEFF81AF80181918F010E
:103410009ADE0E151F05C9F78FEF95DE8FEF93DE4D
:1034200099DE8A878F71853029F081E18D83CE0105
:103430007FDE08C068E572E0CE018EDE811106C035
:1034400085E18D83CE0174DE80E010C020E030E0A5
:10345000A9016DE0CE01CADE811103C07BDE8823A5
:1034600011F084E1EECFCE0163DE81E0DF91CF91F8
:103470001F910F91FF90EF900895FC01DB011296D0
:103480008D919C9113979383828387E392E091833C
:10349000808314968C911497848315968C9115973C
:1034A000858316964D915D916D917C911997468318
:1034B0005783608771871A964D915D916D917C91CC
:1034C0001D9742875387648775871E964D915D913E
:1034D0006D917C91519746875787608B718B52967F
:1034E0008C915297828B53964D915D916D917C9109
:1034F0005697438B548B658B768B57964D915D9188
:103500006D917C915A97478B508F618F728F5B962C
:103510008D919C915C97948F838F0895EF92FF9289
:103520000F931F93CF93DF93EC017B018A011B82E2
:103530001A8288EE93E0A0E0B0E08C839D83AE8396
:10354000BF8381E592E0998388838DE190E00E94BA
:103550009E239A8F898F009779F02DE1F701DC0186
:1035600001900D922A95E1F74CE050E0B801CE01B0
:103570000C960E94E625188EDF91CF911F910F9136
:10358000FF90EF900895CF92DF92EF92FF920F930A
:103590001F93CF93DF936C017A018B01C0E0D0E0E1
:1035A000CE15DF0589F0D8016D918D01D601ED9121
:1035B000FC910190F081E02DC6011995892B11F441
:1035C0007E0102C02196ECCFC701DF91CF911F9100
:1035D0000F91FF90EF90DF90CF900895EF92FF92C0
:1035E0000F931F93CF93DF93CDB7DEB762970FB6DC
:1035F000F894DEBF0FBECDBF8C01CB01F801118264
:103600001082138212821582148250E09E012F5F75
:103610003F4F7901B9010E940229F7010190002072
:10362000E9F73197AF014E195F09B701C801E3D936
:1036300062960FB6F894DEBF0FBECDBFDF91CF917B
:103640001F910F91FF90EF900895FB01DC011196FF
:103650001C921E9213961C921E92129715961C9203
:103660001E9214978617970741F06081718161154A
:10367000710519F044815581BEC90895FC0111827C
:10368000108213821282158214826115710549F02D
:10369000FB0101900020E9F73197AF01461B570B62
:1036A000AAC90895DC01ED91FC91DB0114964D91BE
:1036B0005C9115976D917C910280F381E02D1994B6
:1036C0006115710579F0FB0101900020E9F7319750
:1036D000AF01461B570BDC01ED91FC910280F38199
:1036E000E02D199480E090E008954F925F926F92E0
:1036F0007F92EF92FF920F931F93CF93DF93CDB7FB
:10370000DEB7A1970FB6F894DEBF0FBECDBF7C0128
:10371000FA01CB0119A2223008F42AE08E010F5DD4
:103720001F4F422E512C612C712CBF01A30192011D
:103730000E94612AF901CA01015011096A3014F48A
:10374000605D01C0695CD8016C93232B242B252B71
:1037500061F7B801C701B4DFA1960FB6F894DEBFD8
:103760000FBECDBFDF91CF911F910F91FF90EF90D2
:103770007F906F905F904F9008950F931F93CF931A
:10378000DF93EC019DDF8C016FED72E0CE0198DFDD
:10379000800F911FDF91CF911F910F9108950F938B
:1037A0001F93CF93DF93EC017DDF8C016FED72E00F
:1037B000CE0186DF800F911FDF91CF911F910F9176
:1037C00008958DEA98E036D983EB98E033D989EBF8
:1037D00098E030D98FEB98E02DD985EC98E02AD984
:1037E0008BEC98E027D981ED98E024D987ED98E01B
:1037F00021C9CF93DF93CDB7DEB72E970FB6F894DC
:10380000DEBF0FBECDBF789484B5826084BD84B521
:10381000816084BD85B5826085BD85B5816085BDCB
:1038200080916E00816080936E0010928100809183
:10383000810082608093810080918100816080930B
:103840008100809180008160809380008091B10030
:1038500084608093B1008091B00081608093B0005B
:1038600080919100826080939100809191008160AD
:10387000809391008091900081608093900080916E
:10388000A10082608093A1008091A100816080935B
:10389000A1008091A00081608093A000809121010F
:1038A00082608093210180912101816080932101B8
:1038B0008091200181608093200180917A00846052
:1038C00080937A0080917A00826080937A00809160
:1038D0007A00816080937A0080917A00806880937A
:1038E0007A001092C100E091D507F091D60702E06E
:1038F0000083E091D107F091D2071082E091D307C5
:10390000F091D4078FEC80831092DD07E091D90706
:10391000F091DA0716E01083E091D707F091D8070D
:10392000808180618083E091D707F091D807808102
:1039300088608083E091D707F091D8078081806804
:103940008083E091D707F091D80780818F7D8083B5
:1039500066E973E085EC97E010DFE0913807F091BD
:1039600039070083E0913407F09135071082E09128
:103970003607F091370787E0808310924007E09187
:103980003C07F0913D071083E0913A07F0913B0727
:10399000808180618083E0913A07F0913B078081CC
:1039A00088608083E0913A07F0913B0780818068CE
:1039B0008083E0913A07F0913B0780818F7D80837F
:1039C0006FEA73E085EC97E0D8DE61EB75E084EF99
:1039D00092E00E947C1368EA75E089EE92E00E9412
:1039E0007C1368EF74E08BEC93E00E947C1363EC33
:1039F00074E081ED93E00E947C136CE675E084ED49
:103A000093E00E947C136AE875E08CED93E00E94DD
:103A10007C136DEF72E087ED93E00E947C1360EF02
:103A200072E08BED93E00E947C136EE274E08FED08
:103A300093E00E947C1369EF73E085EE93E00E94AF
:103A40007C1367E575E088EE93E00E947C1362E4E6
:103A500075E080ED92E00E947C136DE275E08CEEE3
:103A600093E00E947C136EE674E08AEE93E00E947D
:103A70007C1361EE72E08EEE93E00E947C1369EDA0
:103A800072E081EF93E00E947C136BEB73E084EFB4
:103A900093E00E947C138AEE92E09093AE098093AB
:103AA000AD0969EF73E085EC97E067DE6DE074E0E7
:103AB00085EC97E062DE61E088E00E94E80A1092FF
:103AC0006F0810926D0810926A081092690888E0D9
:103AD000809368080E94240B8B0161E08091680844
:103AE0000E94E80A61E0809168080E94A60AFFB679
:103AF000F89480910805811127C0E1ECF1E08491F0
:103B0000EBE7F1E09491E82FF0E0EE0FFF1FE45DAA
:103B1000FE4FA591B491EC91E92321F461E085E396
:103B20000E94A60A61E085E30E94E80A8CB58061E4
:103B30008CBD8CB580648CBD61E084E30E94E80A92
:103B400061E083E30E94E80A809108058F5F80931B
:103B50000805FFBE82E58093620810926308809199
:103B60006208909163082ADBBAE0FB2E8FEFEBDA54
:103B7000FA94F110FBCF84E698E023DB20E030E0FC
:103B8000A90160E084E698E031DBF82E80936E08AE
:103B900081E0F81649F00E94240B601B710B613D17
:103BA000774060F381E051C02AEA31E040E050E024
:103BB00068E084E698E01ADB82FF03C0F0926F08A9
:103BC0000FC0A4E0FA2EC6DA80936E08FA94F110C2
:103BD000FACF8A3A11F082E038C082E080936F0811
:103BE00080916F08823021F0C12CD12C760105C064
:103BF000C12CD12CE12CF0E4FF2E20E030E0A90113
:103C000067E384E698E0F2DAA701960169E284E6C8
:103C100098E0ECDA80936E08882349F00E94240B28
:103C2000601B710B613D774040F388E00EC08091CE
:103C30006F088230D1F420E030E0A9016AE384E625
:103C400098E0D4DA882339F086E08093690884E626
:103C500098E06EDA8CC07EDA807C803C19F483E0D8
:103C600080936F0877DA76DA75DA84E698E060DABE
:103C700080E5809362081092630881E00E944F12F1
:103C8000882329F080919308882341F070C080E058
:103C90000E944F12882309F46AC0F4CF80918708EC
:103CA000803109F582E0809393081092A508109264
:103CB000A6081092A7081092A808809188089091F1
:103CC0008908A0E0B0E0E5E0880F991FAA1FBB1F9C
:103CD000EA95D1F78093A1089093A208A093A30836
:103CE000B093A4081EC0803209F041C083E08093E5
:103CF000930840918A0850918B0860918C087091CC
:103D00008D084093A5085093A6086093A708709368
:103D1000A80821EA38E080E798E00E949E0D8823F9
:103D200031F180E798E09093AA088093A90881E098
:103D30008093920810929408109295081092960819
:103D400010929708109298081092990810929A0869
:103D500010929B0810929C0810929D0810929E0849
:103D600010929F081092A0086CE174E002C06CE20F
:103D700074E085EC97E001DD69E474E085EC97E0A0
:103D8000FCDC289A209A29982A982B98219A229A22
:103D900023986C98749A81E58CBD1DBC289880ECA2
:103DA0000E94CD06289AA5E3AA95F1F7000028986D
:103DB00082E00E94CD0688E20E94CD0682E00E9449
:103DC000CD0680E90E94CD0681E00E94CD0683E009
:103DD0000E94CD06289A289883E00E94CD068AE2A8
:103DE0000E94CD068FEF0E94CD06182F289A8130B1
:103DF00069F08091020180628093020169E574E0BC
:103E000085EC97E0BADC109209051BC060E08CE0FD
:103E10000E94D30660E08DE00E94D30660E680E653
:103E20000E94D30660E680E70E94D30660E08FE040
:103E30000E94D30669E674E085EC97E09EDC10935F
:103E4000090560E088E10E94E80A60E084E00E94E1
:103E5000E80A61E08EE20E94E80A60E08FE00E94DA
:103E6000E80A66E774E085EC97E087DC44E064E10B
:103E70008DED98E00E947A1167E874E08DED98E08E
:103E80001FDC80910E0590910F050E945C076DE884
:103E900074E085EC97E071DC44244A9463E0562E8C
:103EA000612C712C22242A94312CFE013496FE8739
:103EB000ED87F8948091140590911505A091160551
:103EC000B0911705892B8A2B8B2B51F40E94240B60
:103ED000609314057093150580931605909317054C
:103EE0008091F7049091F80443E050E0019709F0C5
:103EF000D2C080910102882309F4CDC06EE974E03C
:103F00008DEA98E00E94FB148091F1049091F204F4
:103F10006091F3047091F404681B790B7093F004C2
:103F20006093EF04CB0177FF04C088279927861B95
:103F3000970B883E93405CF480910C0590910D05A1
:103F4000860F971F90930D0580930C0504C0109267
:103F50000D0510920C050091F1041091F204072E4A
:103F6000000C880B990B0E9449296B017C01609120
:103F7000ED047091EE04072E000C880B990B0E9443
:103F800049299B01AC01C701B6010E9484292DEC8F
:103F90003CEC4CEC5DE30E9484296B017C01609158
:103FA0000C0570910D05072E000C880B990B0E94D3
:103FB00049294B015C016091EB047091EC04072EE0
:103FC000000C880B990B0E9449299B01AC01C5018B
:103FD000B4010E9484292DEC3CEC4CEC5DE30E9482
:103FE00084299B01AC01C701B60113D36B017C018D
:103FF00060910A0570910B05601B710B072E000C78
:10400000880B990B0E9449294B015C016091E904DE
:104010007091EA04072E000C880B990B0E94492925
:104020009B01AC01C501B4010E9484292DEC3CEC3C
:104030004CEC5DE30E9484299B01AC01C701B601F1
:10404000E8D26B017C016091F5047091F60480E088
:1040500090E00E9447299B01AC01C701B601D9D26B
:1040600041D36F3F710509F028F47093F604609313
:10407000F50404C03092F6042092F5048091F10416
:104080009091F20490930B0580930A058091F504BA
:104090009091F6042AC069EE72E08DEA98E00E94E1
:1040A000FB1480917B00886080937B0027E4209341
:1040B0007C0080917A00806480937A0080917A00FD
:1040C00086FDFCCF209178008091790030E0382B7C
:1040D000A2E2B1E00E94832AA30192010E943B2A3E
:1040E0003093F6042093F504C9010E94D91388E1A6
:1040F0000E947E0A8130910529F49093F804809300
:10410000F70407C01092F8041092F70481E080933E
:10411000010284E00E947E0A019711F410920102CC
:104120000E94240B60931005709311058093120573
:104130009093130500911405109115052091160513
:1041400030911705DC01CB01801B910BA20BB30B47
:10415000853F9140A105B105D8F080910E05909161
:104160000F05019690930F0580930E05109214058C
:104170001092150510921605109217051092100551
:104180001092110510921205109213050E945C07FF
:1041900078948091B1099091B209DC01ED91FC9184
:1041A0000480F581E02D1995892B71F18091B10979
:1041B0009091B209DC01ED91FC910680F781E02D30
:1041C00019958093FB089091060989134FC01092AE
:1041D00003091092020949E059E064E079E08CEFAC
:1041E00098E0E9D77C019093080980930709892B0F
:1041F00059F080900B0990900C095DE0C52E59E0B4
:10420000D52E00E010E008C080910402882309F454
:10421000D1C05BC00F5F1F4F081519050CF0CDC052
:1042200046E050E0B601C701C3D4B8E0CB0ED11CC4
:10423000892B81F743E0000F111F4A95E1F7F80140
:10424000EB50F74F068CF78DE02D19951092FC0876
:104250001092FD081092FE081092FF0810920009BB
:104260001092010910920309109202091091FB08A3
:10427000812F012E000C990B78D4892B09F489CF5A
:1042800080910209909103099C012F5F3F4F309369
:10429000030920930209FC01EB50F74F1783F90142
:1042A000EB50F74F1782263031050CF472CF109285
:1042B0000309109202096DCF1E821F82188660EEDC
:1042C0008FE00E94A913649B03C0649BF5CF61C07B
:1042D000289880EB0E94CD068FEF0E94CD06289A89
:1042E0008C878C8586FD05C08C8587FFEECF84E9A1
:1042F00001C080E928980E94CD068FEF0E94CD066C
:10430000082F8FEF0E94CD06829586958770B8E0C2
:104310000B9F80011124082B8FEF0E94CD068FEF99
:104320000E94CD068FEF0E94CD068F70D82E8C850F
:10433000FE0134967F018E2DBD858B1B8D1538F4C3
:104340008FEF0E94CD06D7018D937D01F4CF289A7F
:104350008C8586FF02C061E001C062E08CE20E94B1
:10436000A9130F3D174009F0B0CF8E818C3009F0B2
:10437000ACCF8F8190E0982F88272885820F911DE0
:104380009595879595958795909305058093040558
:104390009CCF0E94240B7093030260930202209131
:1043A000060530910705621B730B693E734014F0DC
:1043B0000E94E9060E9454097CCDE091AD09F0917C
:1043C000AE0943CFE8E2F7E01382128248EE53E0F1
:1043D00060E070E0448355836683778387E192E0F1
:1043E0009183808325ED30E03587248724ED30E00C
:1043F0003787268720ED30E0318B208B21ED30E0B0
:10440000338B228B22ED30E0358B248B26ED30E090
:10441000378B268B118E128E138E148EE5ECF7E0FF
:1044200013821282448355836683778391838083CA
:1044300085EC90E09587848784EC90E09787868769
:1044400080EC90E0918B808B81EC90E0938B828B61
:1044500082EC90E0958B848B86EC90E0978B868B3A
:10446000118E128E138E148EA2E6B8E080E58C9326
:1044700011961C92A4E6B8E015961C921597169614
:104480001C92169719961C9219971B961C921B97B3
:1044900042E050E060E070E01C964D935D936D93B8
:1044A0007C931F9793961C9293979D961C921E92B5
:1044B0009C9787E392E09B969C938E939A979F9606
:1044C0001C92A5EFB8E0F093B209E093B109109205
:1044D000B0091092AF091092B50980E290E05096B1
:1044E0009C938E931F978DE051968C93519757967E
:1044F0001C921E92569717961C92179718961C920C
:10450000189719961C9219971A961C921A971B962F
:104510001C921B971C961C921C971E961C921E9216
:104520001D97EDEDF8E0138212828FE392E0918304
:10453000808384E284838FEF858382E2868380E2B6
:1045400087838EE180878CE181878AE18287138669
:10455000148615861686178641E060E1CF010E9419
:104560007A1162EA74E087ED98E088D86CEA74E02A
:1045700081ED98E083D864EB74E08BEC98E07ED812
:104580006EEB74E085EC98E079D863EC74E08FEB27
:1045900098E074D86DEC74E089EB98E06FD865ED25
:1045A00074E083EB98E06AD869EE72E08DEA98E0F7
:1045B00065C897FB072E16F4009406D077FD08D047
:1045C00013D007FC05D03EF4909581959F4F089538
:1045D000709561957F4F0895EE0FFF1F881F8BBF69
:1045E0000790F691E02D1994AA1BBB1B51E107C05F
:1045F000AA1FBB1FA617B70710F0A61BB70B881F73
:10460000991F5A95A9F780959095BC01CD01089501
:104610005058BB27AA270ED0F4C6E5D630F0EAD60C
:1046200020F031F49F3F11F41EF4DAC60EF4E09549
:10463000E7FBD0C6E92FF6D680F3BA1762077307F7
:104640008407950718F071F49EF50EC70EF4E095F7
:104650000B2EBA2FA02D0B01B90190010C01CA013C
:10466000A0011124FF27591B99F0593F50F4503EE7
:1046700068F11A16F040A22F232F342F4427585FD9
:10468000F3CF469537952795A795F0405395C9F7F1
:104690007EF41F16BA0B620B730B840BBAF09150A9
:1046A000A1F0FF0FBB1F661F771F881FC2F70EC048
:1046B000BA0F621F731F841F48F48795779567951B
:1046C000B795F7959E3F08F0B3CF9395880F08F004
:1046D0009927EE0F97958795089504D06894B111A6
:1046E000C4C60895A7D688F09F5790F0B92F992790
:1046F000B751A0F0D1F0660F771F881F991F1AF0ED
:10470000BA95C9F712C0B13081F0AED6B1E00895C4
:10471000ABC6672F782F8827B85F39F0B93FCCF345
:10472000869577956795B395D9F73EF490958095E2
:10473000709561957F4F8F4F9F4F0895CF93DF9373
:104740008230910510F482E090E0E091BA09F09196
:10475000BB0920E030E0C0E0D0E0309711F14081AB
:10476000518148175907C0F04817590761F48281F1
:104770009381209719F09B838A832BC09093BB0968
:104780008093BA0926C02115310519F04217530745
:1047900018F49A01BE01DF01EF010280F381E02DE0
:1047A000DCCF2115310509F1281B390B24303105E7
:1047B00090F412968D919C9113976115710521F0DB
:1047C000FB019383828304C09093BB098093BA0951
:1047D000FD01329644C0FD01E20FF31F81939193D6
:1047E000225031092D933C933AC02091B809309161
:1047F000B909232B41F420910B0230910C02309324
:10480000B9092093B8092091090230910A022115B3
:10481000310541F42DB73EB740910D0250910E0283
:10482000241B350BE091B809F091B909E217F307A1
:10483000A0F42E1B3F0B2817390778F0AC014E5F10
:104840005F4F2417350748F04E0F5F1F5093B9098B
:104850004093B8098193919302C0E0E0F0E0CF016A
:10486000DF91CF9108950F931F93CF93DF9300971C
:1048700009F48CC0FC013297138212820091BA09AC
:104880001091BB090115110581F420813181820F3E
:10489000931F2091B8093091B9092817390779F584
:1048A000F093B909E093B80971C0D80140E050E035
:1048B000AE17BF0750F412962D913C911397AD019E
:1048C0002115310509F1D901F3CF9D01DA013383B7
:1048D000228360817181860F971F8217930769F485
:1048E000EC0128813981260F371F2E5F3F4F31831E
:1048F00020838A819B8193838283452B29F4F093C3
:10490000BB09E093BA0942C01396FC93EE93129749
:10491000ED01499159919E01240F351FE217F307CC
:1049200071F480819181840F951F029611969C935A
:104930008E938281938113969C938E931297E0E0DD
:10494000F0E0D80112968D919C911397009719F081
:10495000F8018C01F6CF8D919C9198012E5F3F4F0D
:10496000820F931F2091B8093091B9092817390790
:1049700069F4309729F41092BB091092BA0902C069
:10498000138212821093B9090093B809DF91CF9175
:104990001F910F9108956F927F928F929F92AF9285
:1049A000BF92CF92DF92EF92FF920F931F93CF931C
:1049B000DF93EC01009781F4CB01DF91CF911F9140
:1049C0000F91FF90EF90DF90CF90BF90AF909F90AE
:1049D0008F907F906F90B2CEFC01E60FF71F9C0185
:1049E00022503109E217F30708F4A8C0D9010D914C
:1049F0001C91119706171707A8F00530110508F448
:104A00009BC0C80104978617970708F495C0025009
:104A10001109061B170B019311936D937C93CF0122
:104A200022DF8AC05B01A01AB10A4C01800E911EE0
:104A3000A091BA09B091BB0940E050E0E12CF12C03
:104A4000109709F44AC0A815B905D1F56D907C906E
:104A50001197630182E0C80ED11CCA14DB0480F1F7
:104A6000A3014A195B096A0182E0C80ED11C1296A3
:104A7000BC9012971396AC91B5E0CB16D10440F0E0
:104A8000B282A38351834083D9016D937C930AC082
:104A90000E5F1F4FC301800F911FF9019183808327
:104AA000EB2DFA2FE114F10431F0D7011396FC93AA
:104AB000EE93129741C0F093BB09E093BA093CC052
:104AC0008D919C9111974817590708F4AC017D010D
:104AD00012960D90BC91A02DB3CF8091B809909102
:104AE000B90988159905E1F446175707C8F480916C
:104AF000090290910A02009741F48DB79EB7409148
:104B00000D0250910E02841B950BE817F907B0F4C3
:104B1000F093B909E093B809F901718360830CC07F
:104B2000CB010CDE7C01009749F0A801BE0130D01A
:104B3000CE0199DEC70104C0CE0102C080E090E042
:104B4000DF91CF911F910F91FF90EF90DF90CF9069
:104B5000BF90AF909F908F907F906F90089581E06D
:104B600090E0F894DFC4803209F0911130C4805293
:104B70008F55E0F70895FB01DC0104C08D91019091
:104B8000801921F441505040C8F7881B990B0895B3
:104B9000FB01DC0102C001900D9241505040D8F75A
:104BA0000895FB01DC0101900D920020E1F70895CA
:104BB000FB01DC014150504030F08D910190801993
:104BC00019F40020B9F7881B990B0895FB01DC014B
:104BD0004150504048F001900D920020C9F701C0AB
:104BE0001D9241505040E0F708950F931F93CF93CB
:104BF000DF93CDB7DEB72E970FB6F894DEBF0FBEAA
:104C0000CDBF0E891F8986E08C831A8309838FEFBD
:104C10009FE79E838D83AE01465E5F4F688D798DE1
:104C2000CE01019611D02F813885F801E20FF31FD4
:104C300010822E960FB6F894DEBF0FBECDBFDF9167
:104C4000CF911F910F9108952F923F924F925F92B3
:104C50006F927F928F929F92AF92BF92CF92DF928C
:104C6000EF92FF920F931F93CF93DF93CDB7DEB7F1
:104C70002C970FB6F894DEBF0FBECDBF7C016B0141
:104C80008A01FC0117821682838181FFB0C1CE01A7
:104C900001964C01F7019381F60193FD859193FFF5
:104CA00081916F01882309F49EC1853239F493FD07
:104CB000859193FF81916F01853221F4B70190E0D6
:104CC000C7D1E8CF512C312C20E02032A0F48B3218
:104CD00069F030F4803259F0833269F420612CC0DD
:104CE0008D3239F0803339F4216026C0226024608F
:104CF00023C0286021C027FD27C030ED380F3A308F
:104D000078F426FF06C0FAE05F9E300D1124532E82
:104D100013C08AE0389E300D1124332E20620CC05F
:104D20008E3221F426FD5FC1206406C08C3611F45A
:104D3000206802C0883641F4F60193FD859193FF07
:104D400081916F018111C1CF982F9F7D9554933030
:104D500028F40C5F1F4FFFE3F9830DC0833631F059
:104D6000833771F0833509F057C021C0F801808185
:104D700089830E5F1F4F44244394512C540114C067
:104D80003801F2E06F0E711CF801A080B18026FF9F
:104D900003C0652D70E002C06FEF7FEFC5012C8767
:104DA0004CD12C0183012C852F77222E16C038017F
:104DB000F2E06F0E711CF801A080B18026FF03C0E5
:104DC000652D70E002C06FEF7FEFC5012C872AD1FF
:104DD0002C012C852068222E830123FC19C0832DF1
:104DE00090E048165906A0F4B70180E290E030D177
:104DF0003A94F5CFF50127FC859127FE81915F015B
:104E0000B70190E025D131103A94F1E04F1A5108E2
:104E10004114510479F7DEC0843611F0893631F53A
:104E2000F80127FF07C060817181828193810C5F47
:104E30001F4F08C060817181072E000C880B990BF1
:104E40000E5F1F4F2F76722E97FF09C090958095A9
:104E5000709561957F4F8F4F9F4F2068722E2AE08B
:104E600030E0A4012DD1A82EA81843C0853729F41D
:104E70002F7EB22E2AE030E025C0F22FF97FBF2E20
:104E80008F36C1F018F4883579F0ADC0803719F04D
:104E9000883721F0A8C02F2F2061B22EB4FE0DC09C
:104EA0008B2D8460B82E09C024FF0AC09F2F966006
:104EB000B92E06C028E030E005C020E130E002C095
:104EC00020E132E0F801B7FE07C060817181828184
:104ED00093810C5F1F4F06C06081718180E090E07C
:104EE0000E5F1F4FA401ECD0A82EA818FB2DFF7752
:104EF0007F2E76FE0BC0372D3E7FA51450F474FE36
:104F00000AC072FC08C0372D3E7E05C0BA2C372D72
:104F100003C0BA2C01C0B52C34FF0DC0FE01EA0D50
:104F2000F11D8081803311F4397E09C032FF06C043
:104F3000B394B39404C0832F867809F0B39433FDFF
:104F400012C030FF06C05A2CB31418F4530C5B186F
:104F5000B32CB31460F4B70180E290E03C8778D0C2
:104F6000B3943C85F6CFB31410F43B1801C0312C38
:104F700034FF11C0B70180E390E03C8769D03C85E5
:104F800032FF16C031FD03C088E790E002C088E51B
:104F900090E0B7010CC0832F867851F031FF02C03A
:104FA0008BE201C080E237FD8DE2B70190E050D086
:104FB000A51430F4B70180E390E04AD05A94F8CFBA
:104FC000AA94F401EA0DF11D8081B70190E040D070
:104FD000A110F6CF332009F45DCEB70180E290E056
:104FE00037D03A94F7CFF7018681978102C08FEFCF
:104FF0009FEF2C960FB6F894DEBF0FBECDBFDF91AA
:10500000CF911F910F91FF90EF90DF90CF90BF90C5
:10501000AF909F908F907F906F905F904F903F9058
:105020002F900895FC010590615070400110D8F751
:10503000809590958E0F9F1F0895FC0161507040E0
:1050400001900110D8F7809590958E0F9F1F0895BD
:105050000F931F93CF93DF93FB01238121FD03C0A7
:105060008FEF9FEF28C022FF16C046815781248111
:1050700035814217530744F4A081B1819D012F5F10
:105080003F4F318320838C93268137812F5F3F4FA1
:105090003783268310C0EB01092F182F0084F18578
:1050A000E02D1995892BE1F68E819F8101969F83D2
:1050B0008E83812F902FDF91CF911F910F910895B3
:1050C000FA01AA27283051F1203181F1E8946F9339
:1050D0006E7F6E5F7F4F8F4F9F4FAF4FB1E03ED0DF
:1050E000B4E03CD0670F781F891F9A1FA11D680F7D
:1050F000791F8A1F911DA11D6A0F711D811D911DB0
:10510000A11D20D009F468943F912AE0269F112424
:105110003019305D3193DEF6CF010895462F477088
:10512000405D4193B3E00FD0C9F7F6CF462F4F70E3
:10513000405D4A3318F0495D31FD4052419302D041
:10514000A9F7EACFB4E0A6959795879577956795E7
:10515000BA95C9F700976105710508959B01AC01E7
:105160000A2E06945795479537952795BA95C9F70E
:10517000620F731F841F951FA01D0895FC018827CF
:105180009927E89421912032E9F3293010F02E304C
:10519000C8F32B3239F02D3231F4689403C046D075
:1051A000820F911D219120532A30C8F31EF490954F
:1051B00081959F4F0895FA01A191B081009719F44C
:1051C0001097E1F0CD01DC01CD010D90002011F42C
:1051D000C00113C0FB012191222319F02015D9F73A
:1051E000F3CFFB012191201519F41E92119606C0F0
:1051F0002223C1F70D900020A1F7D001FA01A1935D
:10520000B08308954532510518F4423008F004C0C7
:10521000FB011082CB010895BB274A3031F499235A
:1052200022F4BDE2909581959F4F09C07AE0979F47
:10523000902D879F802D910D11240895BB27FB0190
:105240005527AA27880F991FAA1FA41710F0A41B7F
:1052500083955051B9F7A05DAA3308F0A95DA193D9
:10526000009779F7B111B1931192CB0100C0DC0125
:10527000FC01672F71917723E1F7329704C07C918D
:105280006D9370836291AE17BF07C8F30895E894D9
:1052900009C097FB3EF490958095709561957F4F7E
:1052A0008F4F9F4F9923A9F0F92F96E9BB2793952C
:1052B000F695879577956795B795F111F8CFFAF43C
:1052C000BB0F11F460FF1BC06F5F7F4F8F4F9F4F6D
:1052D00016C0882311F096E911C0772321F09EE8CB
:1052E000872F762F05C0662371F096E8862F70E031
:1052F00060E02AF09A95660F771F881FDAF7880F0B
:105300009695879597F908950BD07BC06CD028F0BF
:1053100071D018F0952309F05DC062C01124A5C0BA
:1053200081D0A0F3959FD1F3950F50E0551F629F58
:10533000F001729FBB27F00DB11D639FAA27F00DEE
:10534000B11DAA1F649F6627B00DA11D661F829F15
:105350002227B00DA11D621F739FB00DA11D621FFA
:10536000839FA00D611D221F749F3327A00D611D17
:10537000231F849F600D211D822F762F6A2F1124F9
:105380009F5750408AF0E1F088234AF0EE0FFF1F4C
:10539000BB1F661F771F881F91505040A9F79E3F83
:1053A000510570F017C061C05F3FECF3983EDCF32D
:1053B000869577956795B795F795E7959F5FC1F7C0
:1053C000FE2B880F911D9695879597F9089599273B
:1053D0008827089597F99F6780E870E060E0089556
:1053E0009FEF80EC089500240A94161617061806FD
:1053F0000906089500240A941216130614060506D9
:105400000895092E0394000C11F4882352F0BB0F69
:1054100040F4BF2B11F460FF04C06F5F7F4F8F4FCC
:105420009F4F089557FD9058440F551F59F05F3F07
:1054300071F04795880F97FB991F61F09F3F79F0B6
:1054400087950895121613061406551FF2CF469538
:10545000F1DF08C0161617061806991FF1CF8695BA
:105460007105610508940895E894BB27662777279E
:10547000CB0197F90895052E97FB16F400940FD0F1
:1054800057FD05D01ED007FC02D046F408C0509549
:105490004095309521953F4F4F4F5F4F0895909520
:1054A0008095709561957F4F8F4F9F4F08952BD0BA
:1054B000A59F900DB49F900DA49F800D911D112468
:1054C0000895A1E21A2EAA1BBB1BFD010DC0AA1F45
:1054D000BB1FEE1FFF1FA217B307E407F50720F05D
:1054E000A21BB30BE40BF50B661F771F881F991FD8
:1054F0001A9469F760957095809590959B01AC0121
:10550000BD01CF010895A29FB001B39FC001A39F29
:10551000700D811D1124911DB29F700D811D1124EC
:10552000911D089511E0CFE2D1E000E005C0802F89
:10553000FE0152D82196011DC033D10780E0080733
:06554000B1F7F894FFCF63
:105546000101E90301FFFFFFFF0000BC0980000124
:1055560000000000000000ED08C31AAE088C08A089
:1055660008330900000000D809C31AD809D809D899
:1055760009D809000000004311C31A00000000F218
:105586000BC31A00000000D809C31AC507000000A3
:1055960000401560151F1556155616B9154C6F6740
:1055A60067696E672064697361626C6564004C6F3D
:1055B6006767696E6720656E61626C656400556E2B
:1055C6007265636F676E697A656420636F6D6D617E
:1055D6006E640043432044697361626C65640043F2
:1055E6004320456E61626C656400646174616C6F32
:1055F600672E747874006572726F72206F70656EB4
:10560600696E67206C6F672066696C652E005300B3
:1056160049004E6F20617267756D656E7473000D7B
:105626000A004C4544206973204F4646004C4544C9
:10563600206973204F4E0054696D657374616D70F7
:105646002C202056656C6F636974792C2020546871
:10565600726F74746C652C20502D76616C75652C98
:1056660020492D76616C75652C20442D76616C750C
:10567600652C2020437275697365436F6E74726F73
:105686006C4F6E2C202043414E6D736731002564AC
:10569600206D732C2020202025642C202020202003
:1056A60020202025642C20202020202025642C204A
:1056B60020202020202025642C202020202020258A
:1056C600642C20202020202025642C20202020202F
:1056D600202025640A005862656520736572696139
:1056E6006C20696E697469616C697A65642E004123
:1056F600726475696E6F2073657269616C20696E7C
:10570600697469616C697A65642E00474554535023
:10571600004745545454004543430044434300471F
:105726004554434300434353500050494400454CBD
:1057360000444C004745544C00436F6D6D616E64E8
:1057460073205365742061646465642E0053657428
:1057560074696E672075702053442E005344206987
:105766006E697469616C697A65642E00436172645E
:10577600206661696C65642C206F72206E6F7420E0
:1057860070726573656E742E0053657474696E6706
:105796002075702043414E2E0043616E27742069A8
:1057A6006E69742043414E2E0043414E20496E6976
:1057B60074204F6B2E0050494420696E69746961EC
:1057C6006C697A65642E005374617274004C4344AC
:1057D60020696E697469616C697A65642E004F4E42
:1057E6002000537065656420203A2000206B6D2FE1
:1057F600682020004261745761726E3A20004E4F55
:105806004E4500426174507772203A200020566F50
:105816006C74202000437275697365433A2000005A
:020000023000CC
:10E000000D9489F10D94B2F10D94B2F10D94B2F129
:10E010000D94B2F10D94B2F10D94B2F10D94B2F1F0
:10E020000D94B2F10D94B2F10D94B2F10D94B2F1E0
:10E030000D94B2F10D94B2F10D94B2F10D94B2F1D0
:10E040000D94B2F10D94B2F10D94B2F10D94B2F1C0
:10E050000D94B2F10D94B2F10D94B2F10D94B2F1B0
:10E060000D94B2F10D94B2F10D94B2F10D94B2F1A0
:10E070000D94B2F10D94B2F10D94B2F10D94B2F190
:10E080000D94B2F10D94B2F10D94B2F10D94B2F180
:10E090000D94B2F10D94B2F10D94B2F10D94B2F170
:10E0A0000D94B2F10D94B2F10D94B2F10D94B2F160
:10E0B0000D94B2F10D94B2F10D94B2F10D94B2F150
:10E0C0000D94B2F10D94B2F10D94B2F10D94B2F140
:10E0D0000D94B2F10D94B2F10D94B2F10D94B2F130
:10E0E0000D94B2F141546D656761323536300041AF
:10E0F000726475696E6F206578706C6F72657220DE
:10E1000073746B3530305632206279204D4C530099
:10E11000426F6F746C6F616465723E004875683F52
:10E1200000436F6D70696C6564206F6E203D200048
:10E130004350552054797065202020203D20005FF9
:10E140005F4156525F415243485F5F3D2000415658
:10E1500052204C696243205665723D20004743437C
:10E160002056657273696F6E203D20004350552024
:10E1700049442020202020203D20004C6F7720663D
:10E18000757365202020203D20004869676820665F
:10E190007573652020203D200045787420667573D6
:10E1A00065202020203D20004C6F636B2066757336
:10E1B000652020203D20004D617220203720323024
:10E1C000313300312E362E3800342E332E350056A2
:10E1D00023202020414444522020206F7020636F70
:10E1E00064652020202020696E73747275637469E1
:10E1F0006F6E2061646472202020496E74657272B3
:10E20000757074006E6F20766563746F7200726A49
:10E210006D702020006A6D70200057686174207056
:10E220006F72743A00506F7274206E6F7420737541
:10E2300070706F72746564004D7573742062652030
:10E2400061206C6574746572002000577269747483
:10E25000696E672045450052656164696E672045B7
:10E26000450045452065727220636E743D00504F35
:10E27000525400303D5A65726F2061646472003FF1
:10E280003D43505520737461747300403D454550C3
:10E29000524F4D207465737400423D426C696E6B41
:10E2A000204C454400453D44756D70204545505215
