:100000000C9463000C948B000C948B000C94EB0408
:100010000C94EB040C94EB040C948B000C948B006C
:100020000C948B000C948B000C948B000C948B0024
:100030000C948B000C948B000C948B000C948B0014
:100040000C94A1040C948B000C946F040C94490440
:100050000C948B000C948B000C948B000C948B00F4
:100060000C948B000C948B000000000023002600F1
:10007000290000000000240027002A0000000000E2
:10008000250028002B0004040404040404040202D4
:100090000202020203030303030301020408102007
:1000A0004080010204081020010204081020000012
:1000B0000008000201000003040700000000000027
:1000C00000007B05650511241FBECFEFD8E0DEBF21
:1000D000CDBF11E0A0E0B1E0EEE4F6E102C0059092
:1000E0000D92A83EB107D9F729E0A8EEB1E001C012
:1000F0001D92A534B207E1F710E0C2E6D0E004C0DB
:100100002197FE010E94940AC136D107C9F70E94C7
:100110003F060C941A0B0C940000CF92DF92EF92E2
:10012000FF920F931F93CF93DF936C017A018B01A2
:10013000C0E0D0E0CE15DF0589F0D8016D918D01CA
:10014000D601ED91FC910190F081E02DC601099559
:10015000892B11F47E0102C02196ECCFC701DF91FB
:10016000CF911F910F91FF90EF90DF90CF90089566
:10017000FC01918D828D981761F0828DDF01A80FAF
:10018000B11D5D968C91928D9F5F9F73928F90E0D1
:1001900008958FEF9FEF0895FC01918D828D981740
:1001A00031F0828DE80FF11D858D90E008958FEF7D
:1001B0009FEF0895FC01918D228D892F90E0805C46
:1001C0009F4F821B91098F739927089585E796E0C9
:1001D0000E94DA0021E0892B09F420E0822F0895A3
:1001E000FC01848DDF01A80FB11DA35ABF4F2C91D4
:1001F000848D90E001968F739927848FA689B789A3
:100200002C93A089B1898C9180648C93938D848D7B
:10021000981306C00288F389E02D80818F7D80834A
:100220000895EF92FF920F931F93CF93DF93EC010A
:1002300081E0888F9B8D8C8D981305C0E889F989A2
:10024000808185FD24C0F62E0B8D10E00F5F1F4FBF
:100250000F731127E02E8C8DE8120CC00FB607FC2F
:10026000FACFE889F989808185FFF5CFCE010E9418
:10027000F000F1CF8B8DFE01E80FF11DE35AFF4F27
:10028000F0820B8FEA89FB898081806207C0EE894A
:10029000FF896083E889F98980818064808381E0B7
:1002A00090E0DF91CF911F910F91FF90EF90089513
:1002B000CF93DF93EC01888D8823C9F0EA89FB890D
:1002C000808185FD05C0A889B9898C9186FD0FC004
:1002D0000FB607FCF5CF808185FFF2CFA889B989D9
:1002E0008C9185FFEDCFCE010E94F000E7CFDF912A
:1002F000CF91089580E090E0892B29F00E94E600DC
:1003000081110C940000089590E0FC01E255FF4F2C
:100310003491FC01E656FF4F2491FC01EA57FF4F50
:10032000E491EE2309F43BC0332339F1333091F0EB
:1003300038F43130A9F0323001F584B58F7D12C028
:10034000373091F03830A1F03430B9F4809180002A
:100350008F7D03C0809180008F77809380000DC0D7
:1003600084B58F7784BD09C08091B0008F7703C0BA
:100370008091B0008F7D8093B000F0E0EE0FFF1F02
:10038000E458FF4FA591B4918FB7F894EC916111A7
:1003900003C020952E2301C02E2B2C938FBF0895D0
:1003A000CF93DF9390E0FC01E656FF4F2491FC01D0
:1003B000EA57FF4F8491882361F190E0880F991FDD
:1003C000FC01EE58FF4FC591D491FC01E458FF4F5A
:1003D000A591B491611109C09FB7F89488812095C7
:1003E00082238883EC912E230BC0623061F49FB787
:1003F000F8943881822F809583238883EC912E2B6B
:100400002C939FBF06C08FB7F894E8812E2B2883CA
:100410008FBFDF91CF9108953FB7F89480912D025F
:1004200090912E02A0912F02B091300226B5A89B88
:1004300005C02F3F19F00196A11DB11D3FBFBA2F76
:10044000A92F982F8827820F911DA11DB11DBC01D6
:10045000CD0142E0660F771F881F991F4A95D1F79B
:1004600008958F929F92AF92BF92CF92DF92EF92B8
:10047000FF926B017C010E940C024B015C01C114D4
:10048000D104E104F104F1F00E940C02DC01CB0183
:1004900088199909AA09BB09883E9340A105B105AD
:1004A00070F321E0C21AD108E108F10888EE880E45
:1004B00083E0981EA11CB11CC114D104E104F10415
:1004C00019F7DDCFFF90EF90DF90CF90BF90AF9006
:1004D0009F908F9008952FB7F894609129027091A2
:1004E0002A0280912B0290912C022FBF0895209117
:1004F0003302309134022817390771F49091310298
:1005000080913202981741F0E0913102F0E0E85119
:10051000FE4F808190E008958FEF9FEF089508953A
:100520001F93CF93DF93DC015C962D913C915D97F7
:100530002115310539F481E090E013969C938E9358
:1005400012973DC05196ED91FC91529750969C9117
:100550005097892F80951FB75E964C915E9741FB0F
:10056000772770F941FD6095F8944081772311F069
:10057000492B01C048234083E9012197F1F748E066
:10058000508160FF02C0592B01C058235083E901FC
:100590002197F1F76695415099F7772321F09081E3
:1005A0008923808303C08081982B90831FBF5C9632
:1005B0008D919C915D970197F1F721E030E0C901A1
:1005C000DF91CF911F910895209133023091340231
:1005D0002817390771F4809132022091310290E09E
:1005E000805C9F4F821B910960E470E00E946C0A5E
:1005F000089580E090E00895209133023091340214
:1006000028173907B9F49091310280913202981776
:1006100089F0E0913102F0E0E851FE4F80812091B5
:10062000310230E02F5F3F4F2F7333272093310289
:1006300090E008958FEF9FEF08950F931F93CF934E
:10064000DF93EC01162F042F1B821A8288EE93E0B1
:10065000A0E0B0E08C839D83AE83BF8384E191E012
:10066000998388831F8A1E8A198E188E1B8E1A8E74
:100670001D8E1C8E6E8D6E7F20FB61F96E8F6695D0
:10068000617081E06827842F0E94840161E0802FDF
:100690000E94D001402F50E0FA01E656FF4FE4914E
:1006A000E88BFA01EA57FF4FE491F0E0EE0FFF1FED
:1006B000E458FF4F859194919A8B898B60E0812F4C
:1006C0000E94D0018E8D81FD04C061E0812F0E94C7
:1006D00084011C87612F70E0FB01E656FF4FE49117
:1006E000ED87FB01EA57FF4FE491F0E0EE0FFF1FAB
:1006F000E859FF4F859194919F878E87DF91CF9125
:100700001F910F910895E0913302F0913402E817A0
:10071000F90769F4A389B4899C9185898095892317
:100720008C93109234021092330281E0089580E09D
:100730000895E5E3F2E0119282E0E934F807D9F791
:1007400010924A021092490208956115710579F0DC
:10075000FB0101900020E9F73197AF01461B570BD1
:10076000DC01ED91FC910280F381E02D099480E0A1
:1007700090E008954F925F926F927F92EF92FF9276
:100780000F931F93CF93DF93CDB7DEB7A1970FB62B
:10079000F894DEBF0FBECDBF7C01FA01CB0119A2D8
:1007A000223008F42AE08E010F5D1F4F422E512C9B
:1007B000612C712CBF01A30192010E94F80AF9017A
:1007C000CA01015011096A3014F4605D01C0695C0E
:1007D000D8016C93232B242B252B61F7B801C7017B
:1007E0000E94A503A1960FB6F894DEBF0FBECDBF41
:1007F000DF91CF911F910F91FF90EF907F906F90BD
:100800005F904F9008950F931F93CF93DF93EC0168
:100810000E94A5038C016FEA71E0CE010E94A5033E
:10082000800F911FDF91CF911F910F91089561E08B
:100830008DE00E94840164E670E080E090E00E9418
:10084000310268E485E796E00E94110160E271E000
:1008500087E099E00C94030460E08DE00E9484013D
:1008600064E670E080E090E00E9431026CE485E78D
:1008700096E00E9411016FE271E087E099E00C942C
:1008800003046EE371E087E099E00C9403040E9496
:100890009A0A1F920F920FB60F9211242F933F9333
:1008A0004F935F936F937F938F939F93AF93BF9378
:1008B000EF93FF9385E796E00E94F000FF91EF91A0
:1008C000BF91AF919F918F917F916F915F914F9168
:1008D0003F912F910F900FBE0F901F9018951F9270
:1008E0000F920FB60F9211242F938F939F93EF9334
:1008F000FF93E0918506F09186068081E0918B065A
:10090000F0918C0682FD12C0908180918E068F5FDF
:100910008F7320918F06821751F0E0918E06F0E0E0
:10092000EB58F94F958F80938E0601C08081FF911F
:10093000EF919F918F912F910F900FBE0F901F906D
:1009400018951F920F920FB60F9211242F933F9379
:100950008F939F93AF93BF938091290290912A0226
:10096000A0912B02B0912C023091280223E0230F9A
:100970002D3720F40196A11DB11D05C026E8230FD7
:100980000296A11DB11D2093280280932902909305
:100990002A02A0932B02B0932C0280912D029091F9
:1009A0002E02A0912F02B09130020196A11DB11D1F
:1009B00080932D0290932E02A0932F02B0933002C9
:1009C000BF91AF919F918F913F912F910F900FBE4B
:1009D0000F901F9018951F920F920FB60F9211242F
:1009E0002F933F934F935F936F937F938F939F9337
:1009F000AF93BF93EF93FF93E0913302F0913402F2
:100A0000309709F451C0968DA685B785858591FFED
:100A100004C09C91892329F447C09C91892309F043
:100A200043C0A389B4899C918589809589238C933F
:100A3000868997890197F1F7608D718DA685B785B5
:100A4000558538E020E0CB010197F1F7822F90E047
:100A500095958795282F4C91452309F020683150B2
:100A600091F7868D81FD20958091320290E001966C
:100A70008F73992730913102381749F0A0913202D3
:100A8000B0E0A851BE4F2C938093320203C0868DF4
:100A90008160868F828D938D0197F1F7A389B48948
:100AA0009C918589892B8C93FF91EF91BF91AF9198
:100AB0009F918F917F916F915F914F913F912F9176
:100AC0000F900FBE0F901F901895CF93DF93C4E146
:100AD000D1E0D0930809C093070987E099E00E940C
:100AE0008303D0932709C093260986E299E0DF911A
:100AF000CF910C948303109278061092770688EEBB
:100B000093E0A0E0B0E08093790690937A06A093FA
:100B10007B06B0937C0684E091E090937606809308
:100B2000750685EC90E0909382068093810684ECB4
:100B300090E0909384068093830680EC90E09093FD
:100B400086068093850681EC90E0909388068093DA
:100B5000870682EC90E090938A068093890686EC63
:100B600090E090938C0680938B0610928E061092E4
:100B70008F06109290061092910620E045E063E007
:100B800086E299E00E941D0320E048E067E087E0EC
:100B900099E00E941D0385E796E0909303098093F6
:100BA000020981E090E0909301098093000987E0B9
:100BB00099E0909305098093040980E290E0909376
:100BC0003E0780933D078DE080933F0710924507D5
:100BD00010924407E7E2F7E0119287E0EB33F80761
:100BE000D9F710923C0710923B0785E796E0909367
:100BF00071068093700610926F0610926E0681E067
:100C00008093740680E290E09093AC048093AB04F0
:100C10008DE08093AD041092B3041092B204E5E924
:100C2000F4E0119284E0E93AF807D9F71092AA04A7
:100C30001092A90485E796E090937C0480937B044E
:100C400010927A041092790410927F0480E290E06E
:100C50009093B7028093B6028DE08093B802109211
:100C6000BE021092BD02E0EAF2E0119282E0E43BA3
:100C7000F807D9F71092B5021092B402089578944B
:100C800084B5826084BD84B5816084BD85B5826091
:100C900085BD85B5816085BD80916E008160809342
:100CA0006E001092810080918100826080938100AB
:100CB00080918100816080938100809180008160BB
:100CC000809380008091B10084608093B100809116
:100CD000B00081608093B00080917A00846080933E
:100CE0007A0080917A00826080937A0080917A0005
:100CF000816080937A0080917A00806880937A0086
:100D00001092C10010927F02109280021092810214
:100D10001092820210924D0210924E0210924F02D7
:100D20001092500260ED77E080E090E00E94310286
:100D300085E796E090937E0280937D02E0918506A0
:100D4000F091860682E08083E0918106F091820630
:100D50001082E0918306F091840680E180831092F6
:100D60008D06E0918906F0918A0686E08083E09105
:100D70008706F0918806808180618083E0918706F4
:100D8000F0918806808188608083E0918706F091E9
:100D90008806808180688083E0918706F0918806CC
:100DA00080818F7D80830E946B0200914D021091A3
:100DB0004E0220914F0230915002DC01CB01801B8A
:100DC000910BA20BB30BC297A105B10538F463E0F8
:100DD00070E080E090E00E943102E5CF0E946B025B
:100DE00060934D0270934E0280934F029093500295
:100DF00066E571E080917D0290917E020E94A503DC
:100E00006AE070E080E090E00E94310281E080932F
:100E10005102109222091092210910922009109279
:100E20001F0910921E0910921D098DE991E09093FF
:100E300024098093230990911309963108F057C033
:100E40002DEB30E030931E0920931D092BE931E092
:100E50003093200920931F092CE231E030932209BE
:100E60002093210920916800983050F031E09E30A5
:100E700008F430E081E001C0880F3A95EAF701C03C
:100E800084E0822B80936800983038F09E3040F0E8
:100E9000963148F020E030E008C02DE630E005C093
:100EA0002BE630E002C02CE630E030931B092093A3
:100EB0001A09983030F481E001C0880F9A95EAF75A
:100EC0000EC0292F30E09E3018F42850310902C09E
:100ED0002E50310981E001C0880F2A95EAF78093EE
:100EE0001C0980912309909124090197F1F78091C1
:100EF000210990912209892B21F18091330290914F
:100F0000340229E087309207E1F0009711F00E9447
:100F10008303809125098E7F8093250910923202E8
:100F20001092310287E099E090933402809333026B
:100F3000E0911A09F0911B09908180911C09892B7D
:100F40008083E0918506F091860682E08083E091BF
:100F50008106F09182061082E0918306F09184066A
:100F60008FEC808310928D06E0918906F0918A06BD
:100F700086E08083E0918706F09188068081806119
:100F80008083E0918706F091880680818860808365
:100F9000E0918706F0918806808180688083E091E7
:100FA0008706F091880680818F7D808368E671E0F6
:100FB00087E099E00E94030420914407309145079F
:100FC0002431310514F5C6E1C29FC001C39F900DC5
:100FD000112444E150E065EB71E08A5B984F0E9478
:100FE000BF0A8091440790914507C89FF001C99FAF
:100FF000F00D1124E65AF84F27E134E031832083C5
:1010000001969093450780934407209144073091BF
:1010100045072431310514F5C6E1C29FC001C39FC5
:10102000900D112444E150E066EC71E08A5B984F2A
:101030000E94BF0A8091440790914507C89FF00124
:10104000C99FF00D1124E65AF84F2CE234E03183A9
:1010500020830196909345078093440781E494E0B0
:101060009093FF088093FE086DE771E087E099E0B8
:101070000E94030461E08DE00E94D00160E08DE0F9
:101080000E948401D6E10E946B02672B682B692BBA
:1010900009F0D9C00E946B0262307105810591058B
:1010A00008F0D1C03DC00E946B0260934D02709366
:1010B0004E0280934F02909350026FE871E080914E
:1010C0007D0290917E020E94A50367E971E0809104
:1010D0007D0290917E020E94A5030E946B02AB01EB
:1010E000BC012AE080917D0290917E020E94BA03A9
:1010F00069E971E080917D0290917E020E94A503D2
:1011000065E070E080E090E00E9431026AE070E00B
:1011100080E090E00E943102809151028111ECC088
:101120008091000990910109892B39F08091000983
:1011300090910109019789F030C080910209909146
:101140000309DC01ED91FC910480F581E02D099506
:10115000181619060CF427C1E9CF80910409909163
:101160000509DC01ED91FC910480F581E02D0995E4
:10117000181619060CF417C110C085E796E00E94F6
:10118000B800C82F80934B028A3079F0082E000CEB
:10119000990B0E94A10A892B99F585E796E00E9498
:1011A000DA00181619064CF345C010924A02109244
:1011B000490262EB71E085E392E00E94A80A892B64
:1011C00039F461E08DE00E94840168EB71E011C0A8
:1011D00063EC71E085E392E00E94A80A892B39F460
:1011E00060E08DE00E9484016AEC71E002C066ED6F
:1011F00071E087E099E00E9403040E9499031AC0FD
:101200002091490230914A02C901019690934A0205
:1012100080934902F901EB5CFD4FC083FC01EB5C5C
:10122000FD4F108244970CF4B8CF10924A021092EE
:101230004902B3CF64E670E080E090E00E943102A2
:101240000E947A0120CF0E946B0260938702709304
:1012500088028093890290938A0200918302109100
:1012600084022091850230918602601771078207FF
:10127000930740F460938302709384028093850205
:10128000909386020091830210918402209185023E
:10129000309186026B017C01C01AD10AE20AF30A7E
:1012A000970186010A3F11052105310508F438CF61
:1012B00060938302709384028093850290938602E8
:1012C0000E946B0200914D0210914E0220914F023C
:1012D00030915002DC01CB01801B910BA20BB30BB0
:1012E000C297A105B10508F0DECE63E070E080E0B2
:1012F00090E00E943102E4CF80917D0290917E02C5
:10130000DC01ED91FC910480F581E02D0995892B9C
:1013100099F380917D0290917E02DC01ED91FC9128
:101320000480F581E02D0995181619060CF0F8CE09
:1013300080917D0290917E02DC01ED91FC9106800E
:10134000F781E02D099599278336910551F086376D
:10135000910509F4E5CE88359105D9F61092510230
:10136000D8CF62EA71E080917D0290917E020E9466
:10137000A5032AE041E050E060E070E080917D024A
:1013800090917E020E94BA0369EA71E080917D0229
:1013900090917E020E94A50362E370E080E090E0FD
:1013A0000E943102BDCE8091000990910109892BE4
:1013B00029F4809102099091030904C080910409E5
:1013C00090910509DC01ED91FC910680F781E02DFB
:1013D0000995809326079091260780913F079813DF
:1013E00047C010923C0710923B0742E457E06DE380
:1013F00077E087E297E00E94CE0A6C019093410764
:1014000080934007892B09F4C8CEA0904407B09080
:10141000450786E4E82E87E0F82E00E010E00A1584
:101420001B050CF04CC044E150E0B701C6010E941E
:10143000B10AB6E1EB0EF11C892BB9F4D09FF00193
:10144000D19FF00D1124E65AF84F0190F081E02D64
:101450000995E7E2F7E0119227E0EB33F207D9F7BD
:1014600010923C0710923B0703C00F5F1F4FD7CF6E
:10147000C09126078C2F0C2E000C990B0E94A10AFC
:10148000892B09F44DCE80913B0790913C079C013C
:101490002F5F3F4F30933C0720933B07FC01EE5EEC
:1014A000F84FC58BF901EE5EF84F158A24313105EE
:1014B0000CF436CE10923C0710923B0731CEE091EF
:1014C000FE08F091FF080995E7E2F7E0119287E046
:1014D000EB33F807D9F7C4CF97FB072E16F4009427
:1014E00007D077FD09D00E94800A07FC05D03EF4A2
:1014F000909581959F4F0895709561957F4F0895C0
:10150000AA1BBB1B51E107C0AA1FBB1FA617B70729
:1015100010F0A61BB70B881F991F5A95A9F7809545
:101520009095BC01CD010895EE0FFF1F0590F49139
:10153000E02D099481E090E0F8940C941A0B80322D
:1015400009F091110C94F50A80528F55D8F708953F
:10155000FB01DC018D91019080190110D9F3990BE9
:101560000895FB01DC014150504030F08D91019015
:10157000801919F40020B9F7881B990B0895FB0115
:10158000DC014150504048F001900D920020C9F715
:1015900001C01D9241505040E0F70895FA01A19119
:1015A000B081009719F41097E1F0CD01DC01CD0175
:1015B0000D90002011F4C00113C0FB0121912223E2
:1015C00019F02015D9F7F3CFFB012191201519F45B
:1015D0001E92119606C02223C1F70D900020A1F79C
:1015E000D001FA01A193B08308959927882708951F
:1015F000A1E21A2EAA1BBB1BFD010DC0AA1FBB1F17
:10160000EE1FFF1FA217B307E407F50720F0A21B88
:10161000B30BE40BF50B661F771F881F991F1A94F5
:1016200069F760957095809590959B01AC01BD011F
:10163000CF01089510E0C2E6D0E004C0FE010E9490
:0E164000940A2196C336D107C9F7F894FFCF5C
:10164E000000000011018D00DA00B800CC00580136
:10165E000000000090028D00E402FC0277028F026F
:10166E00482053656E7420746F2078426565004C77
:10167E002053656E7420746F207842656500532E7A
:10168E0020556E7265636F676E697A656420636F4D
:10169E006D6D616E6400564D4450565F317C315F06
:1016AE00564D4450560D0A00532E20506F727473CF
:1016BE0020696E697469616C697A656400532E20C5
:1016CE00436F6D6D616E6473206164646564005672
:1016DE004D4450455F31007C005F564D4450450DE2
:1016EE000A00564D4450435F005F564D4450430D23
:1016FE000A004C45444F4E004C4544206973204F20
:10170E004E2E004C45444F4646004C4544206973CE
:10171E00204F46462E00532E2042616420696E6390
:08172E006F6D6D696E6700002C
:00000001FF
