:100000002FC100005EC100005CC100005AC10000A9
:1000100058C1000056C1000054C1000052C1000088
:1000200050C1000082C7000080C700007EC70000EA
:1000300048C1000046C1000044C1000042C10000A8
:1000400040C100003EC100003CC100003AC10000B8
:1000500038C1000036C1000034C100000C948C1877
:1000600030C100000C94B1170C9488172AC100000D
:1000700028C1000026C1000024C1000022C10000E8
:1000800020C100001EC100001CC100001AC10000F8
:1000900018C1000016C1000014C1000012C1000008
:1000A00010C100000EC100000CC100000AC1000018
:1000B00008C1000006C1000004C1000002C1000028
:1000C00000C10000FEC00000FCC000000C945F17DF
:1000D0000C943617F6C00000F4C00000F2C0000017
:1000E000F0C0000098149D14A214AC14B6142F157F
:1000F000C014C814D014DA14E414EE14FD14071557
:100100002F1511151B152515F916FC16EB16EF16F4
:10011000F5163317001704170A170E1712171817BA
:100120001C172017331726172A172E170000210037
:10013000240027002A002D003000330001010000B8
:10014000040107010A0101021020200808102040C4
:10015000102040800201020108040201010204088B
:100160001020408080402010080402018004020119
:100170008040201008040201080402010102040862
:10018000102040800102040810204080050505056C
:10019000070508080808020202020A0A08080404FF
:1001A000040401010101010101010303030303032D
:1001B0000303040707070C0C0C0C0C0C0C0C0202BC
:1001C000020206060606060606060B0B0B0B0B0BB9
:1001D0000B0B7C3C3E5E2B3D3F2F5B5D3B2C2A2274
:1001E0005C0000000A0B02090C0D0E080703040155
:1001F00000000000000000000000000000000000FF
:1002000000000000000000000000000000001211CB
:1002100010000000000000000000000000000000CE
:10022000000000000000000000002200250028005F
:100230002B002E00310034000201000005010801EE
:100240000B01000020002300260029002C002F00B5
:100250003200000100000301060109016022491C6F
:1002600011241FBECFEFD1E2DEBFCDBF00E00CBF37
:1002700014E0A0E0B2E0E4EEF6E500E00BBF02C05F
:1002800007900D92AC3EB107D9F729E0ACEEB4E08F
:1002900001C01D92A03DB207E1F711E0CFE2D1E02D
:1002A00000E006C021970109802FFE010E946A2309
:1002B000CE32D10780E00807A9F70E94611C0C9498
:1002C000612B9ECECF93DF931F92CDB7DEB76983AC
:1002D000DC01ED91FC910280F381E02D41E050E0E2
:1002E000BE016F5F7F4F19950F90DF91CF910895F9
:1002F00097FF08C02DE22093EE0491958195910916
:1003000031E001C030E0803127E292070CF46FC089
:1003100080324EE4940734F0803325E7920724F0CE
:1003200023E003C021E001C022E0E1E0E30FA32FBE
:10033000B0E0A251BB4F40E3420F4C9360EF78ED29
:10034000269FA001279F500D1124840F951F883EE2
:1003500043E094070CF444C03E2F883823E1920711
:1003600084F4883B4BE0940734F4803D27E0920707
:10037000E4F022E023C0803A4FE09407C4F024E088
:100380001DC080342FE1920754F4803747E1940771
:1003900084F088352BE1920774F027E00FC0883293
:1003A00043E2940754F029E009C021E007C023E0AC
:1003B00005C025E003C026E001C028E0E32FF0E0FF
:1003C000E251FB4F40E3420F408368E17CEF269F00
:1003D000A001279F500D1124840F951F3F5F4DC032
:1003E0003E5FF0E0E251FB4F20E3208346C0883EB1
:1003F00023E092070CF0B1CF843691050CF48AC04B
:10040000843F21E092077CF48C3241E094072CF485
:10041000883C9105E4F022E023C0803921E0920776
:10042000C4F024E01DC0803243E0940754F48835C2
:1004300022E0920784F08C3B42E0940774F027E0BE
:100440000FC0843823E0920754F029E009C021E06E
:1004500007C023E005C025E003C026E001C028E076
:10046000E32FF0E0E251FB4F40E3420F408344E6CC
:10047000249F8019910911240AC0843691050CF03B
:10048000BFCFE32FF0E0E251FB4F20E320833F5F3B
:1004900061E0282F71E0730F432F50E08A308CF118
:1004A000823354F48E3124F48431ACF022E01CC049
:1004B00088329CF024E018C0803544F48C339105D8
:1004C00074F0863491056CF027E00EC08A359105F2
:1004D00054F029E009C021E007C023E005C025E071
:1004E00003C026E001C028E0FA01E251FB4F90E38F
:1004F000920F9083482F3AE0239F40191124242F14
:1005000007C0662349F0FA01E251FB4F80E3808384
:10051000372F02C060E0BDCFE32FF0E0E251FB4F88
:10052000205D20833F5FE32FF0E0E251FB4F10821C
:100530008EEE94E00895CF92DF92EF92FF920F93A8
:100540001F93CF93DF93E0913007F0913107048040
:10055000F581E02D80E397E01995892BB9F1E091C1
:100560003007F09131070680F781E02D80E397E0B6
:100570001995EC010091FB041091FC046091FB04BF
:100580007091FC04072E000C880B990B0E94122A14
:100590006B017C01CE01801B910BBC01990F880B74
:1005A000990B0E94122A20E030E040E05FE30E94B5
:1005B0004D2A9B01AC01C701B6010E9487230E940E
:1005C000EB237093FC046093FB04BDCFDF91CF91CC
:1005D0001F910F91FF90EF90DF90CF900895CF93F0
:1005E000DF93EC01898D9A8D009739F481E090E0DA
:1005F0009B838A8380E090E00BC0FC01138212820F
:100600000E940210E98DFA8D22813381232B71F72C
:10061000DF91CF910895EF92FF920F931F93CF93A5
:10062000DF93EC017B018A011B821A8288EE93E042
:10063000A0E0B0E08C839D83AE83BF8387E192E02E
:10064000998388838DE190E00E941C249A8F898F82
:10065000009779F02DE1F701DC0101900D922A95C8
:10066000E1F74CE050E0B801CE010C960E94642600
:10067000188EDF91CF911F910F91FF90EF90089509
:10068000109204026DE572E08DEC97E00C94251C4D
:1006900081E0809304026EE672E08DEC97E00C94AA
:1006A000251C6EE772E08DEC97E00C94251C1092EF
:1006B00002051092010581E08093010263E972E076
:1006C0008DEC97E00C94251C81E090E0909302055E
:1006D00080930105109201026FE972E08DEC97E0C2
:1006E0000C94251CEF92FF920F931F93CF93DF93EF
:1006F000CDB7DEB7C257D1090FB6F894DEBF0FBE33
:10070000CDBF8C017B0166E978E0CE0101960E94A5
:100710009E11BE016F5F7F4FCE01CB960E949E114E
:1007200019A218A287E492E09F8F8E8F1BA22196B8
:100730009FAD219791111CC06C961FAE1EAE6C9799
:1007400088EE93E0A0E0B0E0A0968CAF9DAFAEAF96
:10075000BFAFA09787E192E06A969FAF8EAF6A978E
:10076000E3961FAE1EAEE397A5961FAEA59733C0C6
:10077000925023E14AEA52E0923048F466E978E088
:10078000CE014E960E94700C81110EC0D5CFBE01D5
:10079000655C7F4FCE014E960E94700C882361F2FB
:1007A000CE01CB960E944C0E49A95AA96BA97CA9EF
:1007B000CE014E96FAD6BE01625E7F4FCE01019603
:1007C0000E949E114AEA52E0BE016F5F7F4FCE0148
:1007D000885A9F4F20DFE396EEADFFADE397309749
:1007E000C1F085818823A9F0A701B801CE01885AFC
:1007F0009F4FF5DEE3968EAD9FADE397009789F0AE
:100800000E944C0EE3968EAD9FADE3970E94B124FB
:1008100008C066EB72E08DEC97E00E94251C1092F8
:100820000402CE58DF4F0FB6F894DEBF0FBECDBF27
:10083000DF91CF911F910F91FF90EF9008951F933B
:10084000CF93DF93CDB7DEB728970FB6F894DEBF0E
:100850000FBECDBF80910402811102C010E301C020
:1008600011E368EF73E0CE0101960E94A61B1F837F
:10087000188641E050E0BE01695F7F4FCE010196CE
:100880000E94371568EF73E0CE0101960E9464154F
:10089000BE016F5F7F4F8DEC97E00E94371CCE0149
:1008A00001960E94C91528960FB6F894DEBF0FBEB8
:1008B000CDBFDF91CF911F9108950F931F93CF93D9
:1008C000DF9300D000D0CDB7DEB78091FD049091CA
:1008D000FE040EDD8C0163EE73E0CE0101960E94F2
:1008E000A61BB801CE0101960E9464156EEC72E061
:1008F000CE0101960E946415BE016F5F7F4F8DECA3
:1009000097E00E94371CCE0101960E94C9152696D9
:100910000FB6F894DEBF0FBECDBFDF91CF911F9110
:100920000F9108951F93CF93DF93CDB7DEB728972C
:100930000FB6F894DEBF0FBECDBF80910105909138
:100940000205019711F010E301C011E363EE73E0BB
:10095000CE0101960E94A61B1F83188641E050E03D
:10096000BE01695F7F4FCE0101960E94371563EE8D
:1009700073E0CE0101960E946415BE016F5F7F4F48
:100980008DEC97E00E94371CCE0101960E94C9159C
:1009900028960FB6F894DEBF0FBECDBFDF91CF9182
:1009A0001F9108950F931F93CF93DF9300D000D032
:1009B000CDB7DEB78091F9049091FA0499DC8C01EF
:1009C0006EEE73E0CE0101960E94A61BB801CE0127
:1009D00001960E94641560ED72E0CE0101960E94BE
:1009E00064158091F7049091F80482DCBC01CE017B
:1009F00001960E94641560ED72E0CE0101960E949E
:100A000064158091EC049091ED0472DCBC01CE0180
:100A100001960E94641562EF73E0CE0101960E9478
:100A20006415BE016F5F7F4F8DEC97E00E94371C0D
:100A3000CE0101960E94C91526960FB6F894DEBF26
:100A40000FBECDBFDF91CF911F910F9108950F93EE
:100A50001F93CF93DF9300D000D0CDB7DEB7809146
:100A6000FF049091000544DC8C016BED73E0CE0136
:100A700001960E94A61BB801CE0101960E94641542
:100A80006BED73E0CE0101960E946415BE016F5FAD
:100A90007F4F8DEC97E00E94371CCE0101960E949B
:100AA000C91526960FB6F894DEBF0FBECDBFDF91F5
:100AB000CF911F910F9108950F931F93CF93DF93C1
:100AC00000D000D0CDB7DEB78091FB049091FC043C
:100AD0000FDC8C016EEC72E0CE0101960E94A61B29
:100AE000B801CE0101960E94641562EF73E0CE0159
:100AF00001960E946415BE016F5F7F4F8DEC97E0F9
:100B00000E94371CCE0101960E94C91526960FB689
:100B1000F894DEBF0FBECDBFDF91CF911F910F9133
:100B200008950F931F93CF93DF9300D000D0CDB7DC
:100B3000DEB78091FB049091FC04DADB8C0163EE5C
:100B400073E0CE0101960E94A61BB801CE0101966A
:100B50000E94641560ED72E0CE0101960E9464155A
:100B60008091FD049091FE04C3DBBC01CE0101968F
:100B70000E94641560ED72E0CE0101960E9464153A
:100B80000E94852928E532E040E050E00E94042BD5
:100B9000DC01CB0180579E4FAF4FBF4FA9DBBC019B
:100BA000CE0101960E94641560ED72E0CE010196BF
:100BB0000E94641562ED72E0CE0101960E946415F8
:100BC00066ED72E0CE0101960E946415BE016F5F72
:100BD0007F4F8DEC97E00E94371CCE0101960E945A
:100BE000C91526960FB6F894DEBF0FBECDBFDF91B4
:100BF000CF911F910F9108950E94A812009759F06C
:100C00000E9491299093ED048093EC04BC018DEC3B
:100C100097E00C94B01268ED72E08DEC97E00C94C4
:100C2000251C0E94A812009759F00E9491299093C8
:100C3000F8048093F704BC018DEC97E00C94B0129B
:100C400068ED72E08DEC97E00C94251C0E94A812D0
:100C5000009759F00E9491299093FA048093F90427
:100C6000BC018DEC97E00C94B01268ED72E08DEC55
:100C700097E00C94251C0E94A8120097A1F00E94F6
:100C80009129909300058093FF04AC0160E070E02F
:100C90002AE08DEC97E00E94DD1B65EE72E08DECA2
:100CA00097E00C94C81B68ED72E08DEC97E00C9413
:100CB000251C0E94A8120097A1F00E9491299093F0
:100CC000FE048093FD04AC0160E070E02AE08DEC4E
:100CD00097E00E94DD1B65EE72E08DEC97E00C94CE
:100CE000C81B68ED72E08DEC97E00C94251C60E069
:100CF0008DE00E94021868EE72E08DEC97E00C9493
:100D0000251C61E08DE00E94021863EF72E08DEC1B
:100D100097E00C94251C2F923F924F925F926F9216
:100D20007F928F929F92AF92BF92CF92DF92EF927B
:100D3000FF920F931F93CF93DF931F921F92CDB714
:100D4000DEB7FC018581882309F4D8C0848180FF47
:100D5000D5C021E02A8343895489658976898285B3
:100D60009385A485B585481759076A077B0709F459
:100D70001A826F013A81832F90E0DE0111964D01B6
:100D80003F01B6E06B0E711C892B09F47DC0D601C2
:100D90001A964D915D916D917C911D975A01B1E02C
:100DA000BB22F60125811A012B0189E05694479454
:100DB000379427948A95D1F7838D948D223061F4EE
:100DC000FC01828D938DA48DB58DBC01CD01620D8A
:100DD000731D841D951D45C0DC0114961C91115096
:100DE0001221A114B104D1F4111118C0452B462BC6
:100DF000472B51F4F6018789908DA18DB28D8683A2
:100E00009783A087B1870AC0468157816085718525
:100E100093010E94771A882309F470C0F601238D8C
:100E2000348D86819781A085B1850297A109B1098A
:100E3000AC01BD01F901058404C0440F551F661FB4
:100E4000771F0A94D2F786859785A089B189840F88
:100E5000951FA61FB71FBC01CD01610F711D811D1C
:100E6000911DD60114962C9126FF14C00091050205
:100E70001091060220910702309108026017710755
:100E80008207930751F506C0FA81FF23B9F18981E2
:100E900090E036C040E00E949019882379F1F50176
:100EA000E25DFA4FD401CF010196E817F90719F076
:100EB00021912D93FACFEFEF8E1A9E0AF6018285CB
:100EC0009385A485B5850196A11DB11D8287938761
:100ED000A487B58780E090E057CF740101E010E06F
:100EE0009501AB01BC0180912E0790912F079ED7F1
:100EF000882321F0BFEF8B1A9B0AE0CF8FEF9FEF83
:100F00000F900F90DF91CF911F910F91FF90EF9075
:100F1000DF90CF90BF90AF909F908F907F906F9019
:100F20005F904F903F902F9008951F920F920FB6B1
:100F30000F9211240F900FBE0F901F9018958EBD29
:100F40000DB407FEFDCF8EB508951F93CF93DF93A9
:100F50001F92CDB7DEB7182F289882E06983EFDFA4
:100F6000812FEDDF6981862FEADF289A0F90DF91CC
:100F7000CF911F9108950F931F93CF93DF93CDB718
:100F8000DEB7C85CD1400FB6F894DEBF0FBECDBF50
:100F90000E948018709311056093100580910002E3
:100FA0008E010F5F1F4F882359F06DEF72E0C8016B
:100FB0000E944F2666E570E0C80194DB10920002A3
:100FC0000E9480182AE030E0309304052093030546
:100FD00030930605209305053093080520930705F7
:100FE00030930A052093090530930C0520930B05D7
:100FF00081E080930D0590910F059F9390910E05D0
:101000009F931F928F931F929AE09F931F929F939B
:101010001F929F931F929F931F929F937F936F9313
:1010200084E593E09F938F931F930F930E94732601
:10103000BC01C80157DB10920F0510920E050FB6C8
:10104000F894DEBF0FBECDBFC853DE4F0FB6F89485
:10105000DEBF0FBECDBFDF91CF911F910F910895DD
:10106000EF92FF920F931F93CF93DF93CDB7DEB72D
:1010700068970FB6F894DEBF0FBECDBF6AE070E090
:101080000E945723892B09F0A9C000E010E0602FCF
:10109000812F0E9461146EEB74E085EE98E00E944F
:1010A000C81B1F5F143199F70F5F043079F760E0B8
:1010B00080E00E946114E090FB04F090FC046FED6E
:1010C00078E0CE0143960E948D1B4AE08E010F5FAF
:1010D0001F4FB801C7010E94D529F80101900020D7
:1010E000E9F73197AF01401B510BB801CE01439690
:1010F0000E943715811104C0CE0143960E947215DB
:1011000069ED78E0CE0143960E948415BC0185EE1E
:1011100098E00E94BA1BCE0143960E94C91561E077
:1011200080E00E94611463ED78E0C8010E948D1B8D
:101130006DEC78E0C8010E948415BC0185EE98E052
:101140000E94BA1BC8010E94C91562E080E00E949B
:10115000611467EC78E0CE0143960E948D1B4AE053
:10116000B80180E090E00E94E729F801019000209A
:10117000E9F73197AF01401B510BB801CE014396FF
:101180000E943715811104C0CE0143960E9472154A
:1011900061EC78E0CE0143960E948415BC0185EE97
:1011A00098E00E94BA1BCE0143960E94C91563E0E5
:1011B00080E00E9461146BEB78E0C8010E948D1BF7
:1011C00065EB78E0C8010E948415BC0185EE98E0CB
:1011D0000E94BA1BC8010E94C91568C060E089E07E
:1011E0000E9461148091FB049091FC041C8A1B8A6C
:1011F0001E8A1D8A188E1F8A4AE0BE016F5F7F4FCC
:101200000E94D529BE016F5F7F4FCE0143960E9499
:10121000B41569ED78E0CE0143960E948415BC01B7
:1012200085EE98E00E94BA1BCE0143960E94C91534
:1012300061E089E00E9461146DEC78E085EE98E051
:101240000E94BA1B62E089E00E9461148091FF0451
:10125000909100051C8A1B8A1E8A1D8A188E1F8A7F
:101260004AE0BE016F5F7F4F0E94E729BE016F5FBA
:101270007F4FCE0143960E94B41561EC78E0CE0119
:1012800043960E948415BC0185EE98E00E94BA1B2B
:10129000CE0143960E94C91563E089E00E94611463
:1012A00065EB78E085EE98E00E94BA1B68960FB671
:1012B000F894DEBF0FBECDBFDF91CF911F910F918C
:1012C000FF90EF900895DC015996ED91FC915A97AB
:1012D0003097B9F083899489A589B6894285538569
:1012E00064857585841B950BA60BB70B811520E8CB
:1012F0009207A105B10538F08FEF9FE7A0E0B0E0BD
:10130000089580E090E00895FC01818D928D009712
:1013100009F001CD8FEF9FEF0895CF93DF93EC019C
:101320008D818823A1F18C8187FF2DC06E857F85FB
:101330008889998941E00E949019882341F1EA89BE
:1013400080E2E89FF0011124DF01A25DBA4F1097FF
:10135000F1F08D81823050F44B895C896D897E89F2
:101360005C964D935D936D937C935F978F89988D79
:10137000A98DBA8DE25DFA4F938F828FB58BA48BC6
:101380008C818F778C83DF91CF910C94551980E0FD
:10139000DF91CF910895FC01818D928D009709F026
:1013A000BCCF08953F924F925F926F927F928F923F
:1013B0009F92AF92BF92CF92DF92EF92FF920F93E4
:1013C0001F93CF93DF93CDB7DEB72C970FB6F8946A
:1013D000DEBF0FBECDBF5C01DC015B968D909C90A3
:1013E0005C971696CD90DD90ED90FC901997C11406
:1013F000D104E104F10439F0BFEFCB1ADB0AEB0AA8
:10140000FB0A312C07C0F401C080D180E280F38058
:1014100033243394F40181859285A385B4859C019E
:10142000AD012F5F3F4F4F4F5F4F29873A874B8763
:101430005C87260137011D821E821F821886F401F7
:1014400081859285A385B4852D813E814F81588504
:10145000281739074A075B0708F063C089859A8512
:10146000AB85BC858C159D05AE05BF0550F482E0AB
:10147000C82ED12CE12CF12C92E0492E512C612C5C
:10148000712C9E012F5F3F4FB701A601C4010E943E
:10149000771A882309F445C089819A81AB81BC8180
:1014A000892B8A2B8B2B41F0260137019FEF491A9C
:1014B000590A690A790A05C0C414D504E604F70478
:1014C00091F02D813E814F8158852F5F3F4F4F4FC7
:1014D0005F4F2D833E834F8358873FEFC31AD30A54
:1014E000E30AF30AACCF0FEF1FEF2FEF3FE0B3019A
:1014F000A201C4010E94D819882399F0D50116963B
:101500004D915D916D917C91199741155105610542
:10151000710549F093018201C4010E94D81981111B
:1015200002C080E02AC0D50116964D925D926D9260
:101530007C921997332051F0D301C2010196A11D6D
:10154000B11DF40180839183A283B383F501878960
:10155000908DA18DB28D892B8A2B8B2B69F4D501AF
:1015600057964D925D926D927C925A9714968C91FB
:101570001497806814968C9381E02C960FB6F8949B
:10158000DEBF0FBECDBFDF91CF911F910F91FF90B6
:10159000EF90DF90CF90BF90AF909F908F907F9013
:1015A0006F905F904F903F9008958F929F92AF926F
:1015B000BF92CF92DF92EF92FF920F931F93CF9340
:1015C000DF93EC018D81811102C080E077C00B892F
:1015D0001C892D893E890417150726073707A8F3AC
:1015E0006A017B01823029F4CA86DB86EC86FD869F
:1015F0000DC0C114D104E104F10451F41E821F8214
:10160000188619861A861B861C861D8681E056C0A0
:101610008A849B84AC84BD84EB8DFC8D258530E071
:10162000275F3F4FB501A40141505109610971097C
:10163000022E04C076956795579547950A94D2F780
:10164000D701C6010197A109B10904C0B695A795B4
:10165000979587952A95D2F784179507A607B70718
:1016600020F089288A288B2849F44F89588D698D64
:101670007A8D4E835F836887798704C0841B950BBE
:10168000A60BB70B4C015D018E010A5F1F4F811441
:101690009104A104B10409F4A7CF4E815F8168854C
:1016A000798598018B8D9C8D0E94771A91E0891A1B
:1016B0009108A108B1088111EACF87CFDF91CF91BE
:1016C0001F910F91FF90EF90DF90CF90BF90AF9060
:1016D0009F908F9008958F929F92AF92BF92CF92DA
:1016E000DF92EF92FF920F931F93CF93DF9300D07F
:1016F0001F92CDB7DEB77C0180E2689F60011124A4
:101700009601225D3A4FD9011B969C91917121F06F
:10171000842F827409F096C0142FF701628B809198
:10172000050290910602A0910702B09108028687F7
:101730009787A08BB18BF601E25DFA4F44895589FA
:1017400060E070E0BA0155274427D70157964D93C2
:101750005D936D937C935A97828D938DA0E0B0E05A
:10176000482B592B6A2B7B2BD70157964D935D93B2
:101770006D937C935A97D9011B968C91887159F47B
:10178000848D958DA68DB78DF701838B948BA58B5A
:10179000B68B81E012C0803109F054C097012D5EF4
:1017A0003F4FD7015B968D919C915C970E94FA1AEE
:1017B000882309F447C084E0F7018583812F8F7067
:1017C000D70114968C931497F7011682178210860E
:1017D00011861A961D921D921D921C921D9716FF3E
:1017E00033C015968C91813069F511FF2BC0F7013C
:1017F0004389548965897689452B462B472B09F403
:101800005EC040E050E0BA01C701CFDE8823D1F0CE
:10181000F7018788908CA18CB28CC38CD48C82E029
:1018200090E0A0E0B0E0F60180839183A283B383CF
:101830009E012F5F3F4FB501A401C6010E94771A98
:10184000811104C080E03BC081E039C000E010E0BD
:101850009801B501A401C6010E94D819882391F30B
:1018600089809A80AB80BC80D60157968C9180315C
:1018700029F088EF9FEFAFEFBFE004C088EF9FEF44
:10188000A0E0B0E088169906AA06BB0688F2D70148
:1018900057961D921D921D921C925A97F701138A1A
:1018A000148A158A168A848180688483C70135DD8D
:1018B000882341F240E050E0BA01C70176DE0F9084
:1018C0000F900F900F90DF91CF911F910F91FF908C
:1018D000EF90DF90CF90BF90AF909F908F90089542
:1018E0004F925F926F927F92AF92BF92CF92DF92B0
:1018F000EF92FF920F931F93CF93DF93CDB7DEB795
:101900002B970FB6F894DEBF0FBECDBF7C01CE0182
:1019100001966C01FC0190E28BE08C0D91938E138B
:10192000FDCFDA0130E047E09D91992339F19E32F5
:1019300019F0E2EDF1E00AC04A3009F46FC138E075
:101940004AE0F2CF3196891709F468C18491811178
:10195000F9CF431708F462C18FED890F8E3508F077
:101960005DC181E0830FF601E30FF11D3FE9390FFF
:101970003A3108F490529083382FD6CF8981803243
:1019800009F44CC1B22E8B01DB015B968D919C91C9
:101990005C97F701948F838F16961D921D921D926E
:1019A0001C921997FB011286138614861586712CDA
:1019B000F80182859385A485B58543895489658915
:1019C000768984179507A607B70708F060C025E059
:1019D000B695A795979587952A95D1F7F82FFF701B
:1019E0006F2ED80115968C91823008F417C1C8016A
:1019F00092D997FD13C1F80182859385A485B58599
:101A00004F96A11DB11D82879387A487B587F0E209
:101A10006F9EC0011124BC01625D7A4F6115710592
:101A200009F4FCC0DB012C91222319F0253EC1F4FE
:101A300027C071100EC0F701628A409105025091D3
:101A40000602609107027091080246875787608BF3
:101A5000718BFC01E25DFA4F8081811113C015C0CA
:101A60004BE050E0C6010E943926892B09F0A0CF37
:101A70008B2D8073803309F4D1C04B2D662DCBC0E4
:101A80007720C9F27724739493CF772473948B2DA6
:101A90008271823109F0C2C07720D1F0D7011E9641
:101AA0006D917D918D919C91519741E00E9490198B
:101AB000882309F4B3C0F7016289F0E26F9FB00197
:101AC0001124625D7A4F6115710509F078C0A6C0D6
:101AD000D80115968C91823009F4A0C0C80162DC4F
:101AE000882309F49BC0D8015B96ED91FC915C972B
:101AF00016964D905D906D907C901997B2E04B1AC0
:101B0000510861087108058404C0440C551C661C0A
:101B1000771C0A94D2F786859785A089B189480EEB
:101B2000591E6A1E7B1EA480E1E04E1A510861080E
:101B30007108AA2009F10E945519882309F46EC082
:101B4000EEE2F5E0119227E0EE32F207D9F7D30189
:101B5000C2018A0D911DA11DB11D809305029093B4
:101B60000602A0930702B09308028091BE0981602B
:101B70008093BE09AA94DDCFD8015B96ED91FC91CC
:101B80005C9780E092E0A0E0B0E0058404C0880F9C
:101B9000991FAA1FBB1F0A94D2F7F80143895489E1
:101BA00065897689840F951FA61FB71F838B948B39
:101BB000A58BB68BD70152961C926EE275E080E23F
:101BC000FB0111928A95E9F78BE0F601DB010190A8
:101BD0000D928A95E1F781E298E2DB0151969C93A0
:101BE0008E93509720E038E01F963C932E931E97DB
:101BF00053969C938E93529759969C938E93589795
:101C000057963C932E9356970E945519882331F08E
:101C10004B2DF7016289C7015EDD01C080E02B9684
:101C20000FB6F894DEBF0FBECDBFDF91CF911F91ED
:101C30000F91FF90EF90DF90CF90BF90AF907F908B
:101C40006F905F904F9008950F931F93CF93DF9302
:101C5000FC01818D928D0097A9F0EF015CD88C0179
:101C60000F3F8FEF180789F0898D9A8DFC0142850F
:101C7000538564857585415051096109710995DC69
:101C8000C80105C080E090E002C08FEF9FEFDF91B8
:101C9000CF911F910F910895CF93DF93EC013DDB1E
:101CA000882311F01D8281E0DF91CF9108958FB7D5
:101CB000F89480912D058FBF089561E0FC01848127
:101CC0000E94021880912C05811110922C05089514
:101CD0008EBD00000DB407FEFDCF8EB508958FEFC9
:101CE000F7CF0F931F93CF93DF93EB010E948018E0
:101CF0008B01F5DF8F3F49F00E948018601B710B4C
:101D00006C177D07B0F380E001C081E0DF91CF91D7
:101D10001F910F910895CF93DF93EC018E8188235B
:101D200079F08F8198859C012F5F3F4F38872F83F3
:101D30008230924010F4D3DFF4CFCE01BEDF1E829A
:101D4000DF91CF9108958CBD9DBD0895CF93DF9312
:101D5000EC0180912C05811108C081E080932C0555
:101D600080916A0890916B08EEDF60E08C81DF91D2
:101D7000CF910C940218CF92DF92FF920F931F9392
:101D8000CF93DF9300D01F92CDB7DEB76C01F62E54
:101D900029833A834B835C83BEDFC601D7DF6CE2C5
:101DA00071E0C6019EDF8F2D806492DF08E110E0B4
:101DB0005C814B813A812981DA01C901002E04C07E
:101DC000B695A795979587950A94D2F729833A8374
:101DD0004B835C837DDF0850110929813A814B8157
:101DE0005C81083F8FEF180739F7FF2029F0E8E002
:101DF000FE1204C087E803C085E901C08FEF68DFE9
:101E000010E06DDFF601828787FF04C01F3F11F0ED
:101E10001F5FF7CF0F900F900F900F90DF91CF9132
:101E20001F910F91FF90DF90CF900895AF92BF92D6
:101E3000CF92DF92EF92FF920F931F93CF93DF9396
:101E4000EC016901C801820F931F8130924008F0B4
:101E50006AC08E81882371F088819981AA81BB81B3
:101E6000481759076A077B0729F48F819885C81698
:101E7000D90698F5488359836A837B838B858330A1
:101E800039F089E0440F551F661F771F8A95D1F7F7
:101E90009A01AB0161E1CE016EDF882319F083E086
:101EA0008D8341C00E9480185B0119DF8A878F3FB4
:101EB00049F40E9480186A197B096D327140A8F3B9
:101EC0008FE003C08E3F29F08DE08D83CE01F5DEDB
:101ED0002AC018861F8281E08E838F8198858C1599
:101EE0009D0538F4FCDE8F819885019698878F8355
:101EF000F4CF6701E00EF11ECE14DF0429F0EFDE0F
:101F0000F60181936F01F8CF8F819885080F191F13
:101F100018870F838985882319F00115124038F03E
:101F2000CE01F9DE04C0CE01C8DE80E001C081E050
:101F3000DF91CF911F910F91FF90EF90DF90CF90A5
:101F4000BF90AF900895EF92FF920F931F93CF939E
:101F5000DF93EC017901411551056105710511F41B
:101F600082E134C08B85833039F089E0440F551FFE
:101F7000661F771F8A95D1F79A01AB0168E1CE0100
:101F8000FADE882311F084E021C08EEFA1DE870104
:101F90008EEFF81AF80181918F019ADE0E151F0558
:101FA000C9F78FEF95DE8FEF93DE99DE8A878F7109
:101FB000853029F081E18D83CE017FDE08C068E5A0
:101FC00072E0CE018EDE811106C085E18D83CE01E7
:101FD00074DE80E010C020E030E0A9016DE0CE01A9
:101FE000CADE811103C07BDE882311F084E1EECFCD
:101FF000CE0163DE81E0DF91CF911F910F91FF90C1
:10200000EF9008952F923F924F925F926F927F923E
:102010008F929F92AF92BF92CF92DF92EF92FF92F8
:102020000F931F93CF93DF9300D01F92CDB7DEB7EE
:102030008C015B011A01DC0115968C91159781309A
:10204000C1F414968C9181FF14C082FF1AC0F8016C
:10205000438954896589768982859385A485B58568
:1020600084179507A607B70761F0C8019EDA8111AA
:1020700008C081E090E0F8019383828380E090E0E3
:1020800036C1610182C0D8015B968D919C915C97AD
:10209000FC01248121502A013B0139E076946794A8
:1020A000579447943A95D1F7722E74207A01F1E053
:1020B000FF22772009F475C080E092E08E199F0915
:1020C00046018C159D0508F44C01D8015B962D91B5
:1020D0003C915C9716968D919D910D90BC91A02D91
:1020E0000297A109B109F901058404C0880F991F5D
:1020F000AA1FBB1F0A94D2F746855785608971894C
:10210000840F951FA61FB71F9C01AD01270D311D20
:10211000411D511D29013A01811432E0930609F055
:1021200086C08091050290910602A0910702B091AD
:10213000080284159505A605B70559F48FEF9FEFA2
:10214000DC018093050290930602A0930702B093EE
:1021500008029501B301A20180912E0790912F07EB
:10216000F2DE882309F485CF9EEFB91AC818D90882
:10217000F80182859385A485B585880D991DA11DDB
:10218000B11D82879387A487B587D8011A964D9190
:102190005D916D917C911D97C114D10409F073CFAD
:1021A00086C0E114F10409F087CF16964D915D9138
:1021B0006D917C911997411551056105710559F48F
:1021C00057968D919D910D90BC91A02D0097A105E2
:1021D000B10539F521C09E012F5F3F4F0E94771A4C
:1021E000882309F44CCF89819A81AB81BC81F801A5
:1021F000238D348DF9012789203129F048EF5FEFD5
:102200006FEF7FE004C048EF5FEF60E070E084179D
:102210009507A607B70728F0C801C4D881114CCF8D
:1022200028CFF80186839783A087B18745CFE11433
:10223000F10429F5D8011A964D915D916D917C912B
:102240001D9753968D919D910D90BC91A02D48178F
:1022500059076A077B0798F00E945519882309F4EB
:1022600008CF4092050250920602609207027092D7
:1022700008028091BE0981608093BE0908C041E0D8
:10228000C301B2010E949019882309F4F2CED5014E
:10229000F701E25DFA4FCF01880D991DE817F907A4
:1022A00019F02D912193FACFA80CB91C5FCF53964A
:1022B0008D919D910D90BC91A02D84179507A60737
:1022C000B70740F4F801438B548B658B768B848180
:1022D00080688483D80114968C9183FD02C0C1016B
:1022E00006C0C8011AD8882309F4C3CEF8CF0F90CE
:1022F0000F900F900F90DF91CF911F910F91FF9052
:10230000EF90DF90CF90BF90AF909F908F907F9095
:102310006F905F904F903F902F900895CF93DF93F1
:102320001F92CDB7DEB7698341E050E0BE016F5F19
:102330007F4F68DE0F90DF91CF910895FC01DB01A4
:1023400012968D919C9113979383828387E492E0F8
:102350009183808314968C911497848315968C9125
:102360001597858316964D915D916D917C91199786
:1023700046835783608771871A964D915D916D9161
:102380007C911D9742875387648775871E964D9170
:102390005D916D917C91519746875787608B718BCA
:1023A00052968C915297828B53964D915D916D917F
:1023B0007C915697438B548B658B768B57964D91BA
:1023C0005D916D917C915A97478B508F618F728F81
:1023D0005B968D919C915C97948F838F08950F935A
:1023E0001F93CF93DF93EC0188819981009729F0A7
:1023F0002A813B812617370788F48B016F5F7F4F57
:102400000E944925009761F0998388831B830A8382
:102410002C813D81232B11F4FC01108281E001C04D
:1024200080E0DF91CF911F910F910895EF92FF927D
:102430000F931F93CF93DF93EC01423018F08F85F9
:1024400088608F874B8B1C8A80E48D8B6E8B70E04D
:10245000605C7F4F6F8B61E08C8116D68D818F3FE2
:1024600011F061E011D661E08E810ED67E0187E029
:10247000E80EF11C00E010E08F8584FD03C084E0CD
:1024800090E002C088E090E00817190744F461E08A
:10249000F70181917F01F8D50F5F1F4FEDCF8BE3DF
:1024A0009DE00197F1F760E08C81ACD560E08E8112
:1024B000A9D58D818F3F11F060E0A4D56F8564FDB3
:1024C00019C063E0CE0172D60BE416E4C80101978F
:1024D000F1F763E0CE016AD6C8010197F1F763E036
:1024E000CE0164D683E592E00197F1F762E0CE0178
:1024F0005DD613C06062CE01D6D68BE496E4019718
:10250000F1F76F856062CE01CED683E592E0019748
:10251000F1F76F856062CE01C6D66F856062CE012D
:10252000C2D684E0888B6CE0CE01BDD661E0CE01DE
:10253000BAD68BE39FE10197F1F782E0898B66E0E1
:10254000CE01DF91CF911F910F91FF90EF90ABC61D
:1025500041E159E06CE079E080E090E00C94AE2934
:10256000CF92DF92EF92FF920F931F93CF93DF935F
:10257000EC016B01770FEE08FF08F7FE16C0E8814B
:10258000F9810190F081E02D6DE219958C014427CD
:102590005527BA014C195D096E097F092AE0CE0161
:1025A0000E94DD1B080F191F06C02AE0B701A60113
:1025B0000E94DD1B8C0165EE72E0CE010E94C81BFB
:1025C000800F911FDF91CF911F910F91FF90EF909E
:1025D000DF90CF9008958F929F92AF92BF92CF924B
:1025E000DF92EF92FF92CF93DF93C82F8CE698E0B3
:1025F00090932F0780932E07CC2361F1C53010F004
:1026000080E00BC140E060E070E0CB0189D6882318
:10261000B9F320E1C29FC0011124825E9A4FFC01F0
:10262000E254FE4F20812F7759F73C96408151812B
:1026300062817381443651056105710508F3349751
:10264000C080D180E280F380C114D104E104F104A0
:1026500021F4D6CFC12CD12C760140E0C701B601C0
:102660005FD6882369F28091390590913A058115EA
:10267000924031F6A0913E05AA2309F4C1CF6091A2
:102680003C0570913D056115710509F4B9CF2091A4
:102690003B05222309F4B4CFA0938A0820937C0839
:1026A00080E030E0E1E0F0E0C82FAF01082E02C08A
:1026B000440F551F0A94E2F72417350741F0982F6D
:1026C0008F5F983089F789E08093850899CF809350
:1026D000850820914405309145052115310519F0F3
:1026E00040E050E008C020915205309153054091E0
:1026F00054055091550520937D0830937E084093F2
:102700007F085093800846015701860E971EA11C32
:10271000B11C80928B0890928C08A0928D08B09288
:102720008E08E0913F05F0914005F0939108E09309
:102730009008B0E00E94202B860E971EA81EB91E9E
:102740008092920890929308A0929408B092950873
:1027500085E0EE0FFF1F8A95E1F7E150FE4FEF2F66
:10276000FF27E6958E0E9F1EA11CB11C8092860845
:1027700090928708A0928808B0928908209141051C
:10278000309142052115310521F0A90160E070E08A
:1027900008C040914E0550914F05609150057091D1
:1027A0005105D701C60188199909AA09BB09840FE7
:1027B000951FA61FB71F04C0B695A7959795879537
:1027C000CA95D2F78093810890938208A0938308DA
:1027D000B0938408853F2FE09207A105B10510F45E
:1027E0008CE018C0853F9F4FA105B10510F480E132
:1027F00011C080915A0590915B05A0915C05B09144
:102800005D058093920890939308A0939408B093E9
:10281000950880E280938F0881E0DF91CF91FF904F
:10282000EF90DF90CF90BF90AF909F908F900895E2
:10283000CF93DF932091130930911409243131058E
:102840000CF5EB01BC01C90123E0880F991F2A9503
:10285000E1F746E050E08B5E964F0E94642680913F
:10286000130990911409FC0133E0EE0FFF1F3A9514
:10287000E1F7E350F74FD78FC68F01969093140975
:1028800080931309DF91CF9108951F93CF93DF9326
:102890001F92CDB7DEB7182F289885E069830E9474
:1028A0009F07812F0E949F076981862F0E949F07A3
:1028B00080E00E949F07289A0F90DF91CF911F918F
:1028C0000895643008F063E09091F808691710F0FB
:1028D0006FEF690FE62FF0E0EB51F74F9489682F07
:1028E000690F606885EE98E0DEC4CF93DF93EC015A
:1028F00061E08EE2C9D3209711F460E004C0CF3FBD
:10290000D10529F461E08EE2DF91CF917BC3E0E154
:10291000F2E0E4918E2F90E0FC013197E231F10575
:1029200008F09DC08827EE58FF4F8F4F0C946A2304
:1029300084B5806884BDC7BD97C084B5806284BDFE
:10294000C8BD92C080918000806880938000D09341
:102950008900C093880088C0809180008062809345
:102960008000D0938B00C0938A007EC0809180004D
:10297000886080938000D0938D00C0938C0074C0D9
:102980008091B00080688093B000C093B3006CC0A9
:102990008091B00080628093B000C093B40064C0A6
:1029A00080919000806880939000D0939900C093AC
:1029B00098005AC080919000806280939000D093DC
:1029C0009B00C0939A0050C08091900088608093D3
:1029D0009000D0939D00C0939C0046C08091A000C1
:1029E00080688093A0008091A0008F7B8093A000DE
:1029F000D093A900C093A80037C08091A000806246
:102A00008093A000D093AB00C093AA002DC080910A
:102A1000A00088608093A000D093AD00C093AC006C
:102A200023C080912001806880932001D0932901E8
:102A3000C093280119C080912001806280932001F9
:102A4000D0932B01C0932A010FC080912001886090
:102A500080932001D0932D01C0932C0105C0C03874
:102A6000D1050CF04FCF49CFDF91CF910895EF9270
:102A7000FF920F931F93CF93DF93FC012481358145
:102A80006115710511F480E018C041155105A1F0E0
:102A90007B01EC018A01020F131FB801A0DC88231F
:102AA00091F3288139818C819D81B701820F931F19
:102AB0000E944F261D830C8381E0DF91CF911F91EF
:102AC0000F91FF90EF9008956115710549F0FB019A
:102AD00001900020E9F73197AF01461B570BC7CF94
:102AE00080E00895CF93DF93EC018881998100976E
:102AF00011F00E94B124198218821D821C821B824F
:102B00001A82DF91CF910895CF93DF93EC01FB01FF
:102B10004481558160817181AADF811102C0CE019B
:102B2000E1DFCE01DF91CF910895EF92FF920F93F5
:102B30001F93CF93DF93EC017B018A01BA014FDC35
:102B4000811103C0CE01CEDF07C01D830C83B70106
:102B5000888199810E944F26CE01DF91CF911F91EC
:102B60000F91FF90EF900895CF93DF93EC016115E3
:102B7000710551F0FB0101900020E9F73197AF0199
:102B8000461B570BD2DF01C0ADDFCE01DF91CF91E5
:102B90000895FC01808191810C94B124FC01A089ED
:102BA000B1898C91A689B78982FD0FC09C91818DD6
:102BB0008F5F8F73228D821749F0218DDF01A20F65
:102BC000B11D5D969C93818F08958C910895FC01B1
:102BD000918D828D981761F0828DDF01A80FB11D54
:102BE0005D968C91928D9F5F9F73928F90E0089578
:102BF0008FEF9FEF0895FC01918D828D981731F032
:102C0000828DE80FF11D858D90E008958FEF9FEF85
:102C10000895FC01918D228D892F90E0805C9F4F5B
:102C2000821B91098F739927089580E397E0F1DF64
:102C300021E0892B09F420E0822F08958DEC97E0A4
:102C4000E8DF21E0892B09F420E0822F0895FC01C0
:102C5000848DDF01A80FB11DA35ABF4F2C91848D25
:102C600090E001968F739927848FA689B7892C935A
:102C7000A089B1898C9180648C93938D848D9813F5
:102C800006C00288F389E02D80818F7D80830895BE
:102C9000EF92FF920F931F93CF93DF93EC0181E0AC
:102CA000888F9B8D8C8D981305C0E889F989808168
:102CB00085FD23C0F62E0B8D10E00F5F1F4F0F73A5
:102CC0001127E02E8C8DE8120BC00FB607FCFACF4F
:102CD000E889F989808185FFF5CFCE01B8DFF2CF91
:102CE0008B8DFE01E80FF11DE35AFF4FF0820B8F31
:102CF000EA89FB898081806207C0EE89FF89608351
:102D0000E889F98980818064808381E090E0DF91A7
:102D1000CF911F910F91FF90EF900895CF93DF9384
:102D2000EC01888D8823C1F0EA89FB89808185FDCB
:102D300005C0A889B9898C9186FD0EC00FB607FC25
:102D4000F5CF808185FFF2CFA889B9898C9185FF65
:102D5000EDCFCE017CDFE8CFDF91CF91089580E009
:102D600090E0892B19F06ADF81111CC080E090E0AF
:102D7000892B41F080E090E0892B21F00E94000037
:102D8000811113C052DF811113C080E090E0892BC4
:102D9000A1F080E090E0892B81F00E940000811179
:102DA0000AC008950E940000E1CF0E940000EACF0F
:102DB0000E949B02EACF0C940000089590E0FC0171
:102DC0003197E231F10508F04EC08827EC57FF4FEC
:102DD0008F4F0C946A23809180008F7703C080917D
:102DE00080008F7D80938000089580918000877F90
:102DF000F9CF84B58F7702C084B58F7D84BD0895E7
:102E00008091B0008F7703C08091B0008F7D809358
:102E1000B0000895809190008F7707C08091900056
:102E20008F7D03C080919000877F809390000895EC
:102E30008091A0008F7707C08091A0008F7D03C094
:102E40008091A000877F8093A00008958091200149
:102E50008F7707C0809120018F7D03C08091200172
:102E6000877F8093200108950E942D261F920F9244
:102E70000FB60F9211240BB60F922F933F934F93DF
:102E80005F936F937F938F939F93AF93BF93EF93D2
:102E9000FF9380E397E0DBDEFF91EF91BF91AF916D
:102EA0009F918F917F916F915F914F913F912F9162
:102EB0000F900BBE0F900FBE0F901F9018951F9292
:102EC0000F920FB60F9211240BB60F922F933F93D0
:102ED0004F935F936F937F938F939F93AF93BF9322
:102EE000EF93FF9380E397E059DEFF91EF91BF915D
:102EF000AF919F918F917F916F915F914F913F9192
:102F00002F910F900BBE0F900FBE0F901F90189532
:102F10001F920F920FB60F9211240BB60F922F93A0
:102F20003F934F935F936F937F938F939F93AF9351
:102F3000BF93EF93FF938DEC97E089DEFF91EF91C4
:102F4000BF91AF919F918F917F916F915F914F91C1
:102F50003F912F910F900BBE0F900FBE0F901F90BF
:102F600018951F920F920FB60F9211240BB60F9265
:102F70002F933F934F935F936F937F938F939F9381
:102F8000AF93BF93EF93FF938DEC97E007DEFF9134
:102F9000EF91BF91AF919F918F917F916F915F91D1
:102FA0004F913F912F910F900BBE0F900FBE0F903E
:102FB0001F901895CF93DF93282F30E0F901EE5141
:102FC000FE4F8491F901EA5BFE4FD491F901E45779
:102FD000FE4FC491CC2389F08111F0DEEC2FF0E09C
:102FE000EE0FFF1FEE5BFD4FA591B491EC91ED2329
:102FF00081E090E021F480E002C080E090E0DF9189
:10300000CF9108951F93CF93DF93282F30E0F901DC
:10301000EE51FE4F8491F901EA5BFE4FD491F90124
:10302000E457FE4FC491CC23C1F0162F8111C6DEA8
:10303000EC2FF0E0EE0FFF1FE85DFD4FA591B4917E
:103040008FB7F894111105C09C91ED2FE095E923FD
:1030500002C0EC91ED2BEC938FBFDF91CF911F91CC
:103060000895CF93DF93EC0160E08E81CBDF61E0C8
:103070008E81C8DF60E08E81C5DF8BE891E001972B
:10308000F1F7DF91CF910895CF93DF9390E0FC01AA
:10309000EA5BFE4F2491FC01E457FE4F84918823A4
:1030A00061F190E0880F991FFC01E45DFE4FC5912E
:1030B000D491FC01E85DFD4FA591B491611109C067
:1030C0009FB7F8948881209582238883EC912E23E2
:1030D0000BC0623061F49FB7F8943881822F8095DD
:1030E00083238883EC912E2B2C939FBF06C08FB730
:1030F000F894E8812E2B28838FBFDF91CF9108951C
:103100002FB7F8946091C8097091C9098091CA09D4
:103110009091CB092FBF08951F920F920FB60F9277
:1031200011242F933F938F939F93AF93BF938091DD
:10313000C8099091C909A091CA09B091CB093091F1
:10314000C70923E0230F2D3720F40196A11DB11DDF
:1031500005C026E8230F0296A11DB11D2093C709C3
:103160008093C8099093C909A093CA09B093CB0969
:103170008091C3099091C409A091C509B091C60975
:103180000196A11DB11D8093C3099093C409A0931A
:10319000C509B093C609BF91AF919F918F913F919F
:1031A0002F910F900FBE0F901F901895CF92DF9226
:1031B000EF92FF920F931F93CF93DF937C016C01EB
:1031C00087E0C80ED11CC0E0D0E0062F10E0B801A7
:1031D0000C2E02C0759567950A94E2F76170F601AE
:1031E00081916F010FDF2196C430D10581F7C701AE
:1031F000DF91CF911F910F91FF90EF90DF90CF90D3
:1032000030CFCF92DF92EF92FF920F931F93CF9325
:10321000DF93EC01F62E642F8C81F4DE8D818F3FDD
:1032200011F060E0EFDE8F850F2D10E084FF23C0EA
:103230006E0187E0C80ED11CE12CF12CB8010E2CD8
:1032400002C0759567950A94E2F76170F601819165
:103250006F01D8DEFFEFEF1AFF0A88E0E816F104ED
:1032600069F7CE01DF91CF911F910F91FF90EF9001
:10327000DF90CF90F6CEB80184E0759567958A957A
:10328000E1F7CE0193DF6F2DCE01DF91CF911F913A
:103290000F91FF90EF90DF90CF9088CF41E0B1DFAA
:1032A00081E090E0089540E0ACCF8091BE09882392
:1032B000A9F14091050250910602609107027091B8
:1032C00008022EE235E080912E0790912F070E9490
:1032D000A30F811102C080E008954091BF09509171
:1032E000C0096091C1097091C2094115510561057C
:1032F000710591F02EE235E080912E0790912F0715
:103300000E94A30F882339F31092BF091092C009BD
:103310001092C1091092C2091092BE0981E008956D
:103320008F929F92AF92BF92EF92FF920F931F9353
:10333000CF934B015C01C42F80910502909106024E
:10334000A0910702B091080288159905AA05BB054E
:10335000F9F0ABDF811102C080E020C08EE2E82EE0
:1033600085E0F82E00E012E020E030E0B501A40195
:1033700080912E0790912F070E94160F882361F3EA
:103380008092050290920602A0920702B092080273
:103390008091BE09C82BC093BE0981E0CF911F91D7
:1033A0000F91FF90EF90BF90AF909F908F900895F6
:1033B0004F925F926F927F928F929F92AF92BF9245
:1033C000CF92DF92EF92FF920F931F93CF93DF93F1
:1033D000EC016A017B012801390142305105610588
:1033E000710510F480E072C089859A85AB85BC8533
:1033F0000196A11DB11D84179507A607B70790F385
:103400008B889C88AD88BE888F89803129F4BB2742
:10341000AF2D9E2D8D2D09C0DB01CA0147E0B69569
:10342000A795979587954A95D1F7880E991EAA1E5C
:10343000BB1E8091050290910602A0910702B091F7
:10344000080288169906AA06BB0679F48F8980318E
:1034500099F4DD24EE24FF24C601880F991FFC0196
:10346000E25DFA4F5182408218C040E0C501B401CC
:1034700057DF8111EBCFB6CFE894C7F8DD24EE24F7
:10348000FF24C601880F991F880F991FFC01E25D78
:10349000FA4F40825182628273828091BE098160BC
:1034A0008093BE098A89823080F08D819E81AF81B0
:1034B000B885880E991EAA1EBB1E8092BF099092E5
:1034C000C009A092C109B092C20981E0DF91CF91F9
:1034D0001F910F91FF90EF90DF90CF90BF90AF9032
:1034E0009F908F907F906F905F904F9008958F92F4
:1034F0009F92AF92BF92CF92DF92EF92FF920F9383
:103500001F93CF93DF93FC0181859285A385B485BA
:103510000196A11DB11D84179507A607B70710F4E2
:1035200080E05BC083899489A589B689C789C03149
:1035300029F4852E962EA72EBB2409C04A015B01D3
:10354000C7E0B694A79497948794CA95D1F7E901F8
:103550006A017B018F01BC01CD01680D791D8A1DB7
:103560009B1D8090050290900602A0900702B090EB
:103570000802681579058A059B0599F4F801878981
:103580008031A1F4B701A601552766277727440F9C
:10359000551FFA01E25DFA4F80819181A0E0B0E011
:1035A00017C040E0BDDE8111E9CFBACFB701A60157
:1035B0004F77552766277727440F551F440F551F10
:1035C000FA01E25DFA4F80819181A281B381BF70DF
:1035D00088839983AA83BB8381E0DF91CF911F9178
:1035E0000F91FF90EF90DF90CF90BF90AF909F90A2
:1035F0008F9008954F925F926F927F92AF92BF9299
:10360000CF92DF92EF92FF920F931F93CF93DF93AE
:1036100000D01F92CDB7DEB78C0149835A836B83EC
:103620007C835901C12CD12C7601412C82E0582E8B
:10363000612C712C49815A816B817C819E012F5FA5
:103640003F4FC80154DF882351F1D301C201F80173
:10365000058404C0880F991FAA1FBB1F0A94D2F7C4
:10366000C80ED91EEA1EFB1E49815A816B817C81DE
:103670008789803129F088EF9FEFAFEFBFE004C06A
:1036800088EF9FEFA0E0B0E0481759076A077B0773
:1036900088F2F501C082D182E282F38281E00F904C
:1036A0000F900F900F90DF91CF911F910F91FF908E
:1036B000EF90DF90CF90BF90AF907F906F905F9032
:1036C0004F900895CF92DF92EF92FF920F931F9346
:1036D000CF93DF936C017A018B01C0E0D0E0CE156F
:1036E000DF0589F0D8016D918D01D601ED91FC9136
:1036F0000190F081E02DC6011995892B11F47E010E
:1037000002C02196ECCFC701DF91CF911F910F919D
:10371000FF90EF90DF90CF900895FB01DC011196B0
:103720001C921E9213961C921E92129715961C9232
:103730001E9214978617970741F060817181611579
:10374000710519F044815581F0C90895FC01118279
:10375000108213821282158214826115710549F05C
:10376000FB0101900020E9F73197AF01461B570B91
:10377000DCC90895DC01ED91FC91DB0114964D91BB
:103780005C9115976D917C910280F381E02D1994E5
:103790006115710579F0FB0101900020E9F731977F
:1037A000AF01461B570BDC01ED91FC910280F381C8
:1037B000E02D199480E090E008954F925F926F920F
:1037C0007F92EF92FF920F931F93CF93DF93CDB72A
:1037D000DEB7A1970FB6F894DEBF0FBECDBF7C0158
:1037E000FA01CB0119A2223008F42AE08E010F5D04
:1037F0001F4F422E512C612C712CBF01A30192014D
:103800000E94302BF901CA01015011096A3014F4E9
:10381000605D01C0695CD8016C93232B242B252BA0
:1038200061F7B801C701B4DFA1960FB6F894DEBF07
:103830000FBECDBFDF91CF911F910F91FF90EF9001
:103840007F906F905F904F9008950F931F93CF9349
:10385000DF93EC019DDF8C0165EE72E0CE0198DF15
:10386000800F911FDF91CF911F910F9108950F93BA
:103870001F93CF93DF93EC017DDF8C0165EE72E047
:10388000CE0186DF800F911FDF91CF911F910F91A5
:10389000089585EB98E07DD98BEB98E07AD981EC9F
:1038A00098E077D987EC98E074D98DEC98E071D9DD
:1038B00083ED98E06ED989ED98E06BD98FED98E0B3
:1038C00068C9CF93DF93CDB7DEB72C970FB6F894C6
:1038D000DEBF0FBECDBF789484B5826084BD84B551
:1038E000816084BD85B5826085BD85B5816085BDFB
:1038F00080916E00816080936E00109281008091B3
:10390000810082608093810080918100816080933A
:103910008100809180008160809380008091B1005F
:1039200084608093B1008091B00081608093B0008A
:1039300080919100826080939100809191008160DC
:10394000809391008091900081608093900080919D
:10395000A10082608093A1008091A100816080938A
:10396000A1008091A00081608093A000809121013E
:1039700082608093210180912101816080932101E7
:103980008091200181608093200180917A00846081
:1039900080937A0080917A00826080937A0080918F
:1039A0007A00816080937A0080917A0080688093A9
:1039B0007A001092C100E091DD07F091DE0702E08D
:1039C0000083E091D907F091DA071082E091DB07DC
:1039D000F091DC078FEC80831092E507E091E1071E
:1039E000F091E20716E01083E091DF07F091E00725
:1039F000808180618083E091DF07F091E007808122
:103A000088608083E091DF07F091E0078081806823
:103A10008083E091DF07F091E00780818F7D8083D4
:103A20006CE973E08DEC97E010DFE0914007F091D6
:103A300041070083E0913C07F0913D071082E0913F
:103A40003E07F0913F0787E0808310924807E0919E
:103A50004407F09145071083E0914207F091430736
:103A6000808180618083E0914207F09143078081EB
:103A700088608083E0914207F091430780818068ED
:103A80008083E0914207F091430780818F7D80839E
:103A900065EB73E08DEC97E0D8DE61E876E08AEFC5
:103AA00092E00E94181467E776E08FEE92E00E94A1
:103AB00018146CE575E081ED93E00E94181467E23C
:103AC00075E087ED93E00E9418146BE376E08AEDD1
:103AD00093E00E94181469E576E082EE93E00E947C
:103AE000181464E673E08DED93E00E94181467E506
:103AF00073E081EE93E00E94181462E974E085EEB1
:103B000093E00E9418146DE574E08BEE93E00E9440
:103B1000181466E276E08EEE93E00E94181461E1DC
:103B200076E080ED92E00E9418146CEF75E082EF71
:103B300093E00E94181462ED74E080EF93E00E941D
:103B4000181468E473E084EF93E00E94181460E4B2
:103B500073E087EF93E00E9418146FE174E08AEF3E
:103B600093E00E94181461E975E08FEF93E00E94E2
:103B7000181481E593E09093B6098093B50965E048
:103B800074E08DEC97E061DE69E174E08DEC97E024
:103B90005CDE61E088E078DA1092770810927508B0
:103BA000109272081092710888E080937008A8DA69
:103BB0008B0161E08091700867DA61E080917008A4
:103BC00021DAFFB6F89480911205811123C0E1EC4F
:103BD000F1E08491EBE7F1E09491E82FF0E0EE0F53
:103BE000FF1FE45DFE4FA591B491EC91E92319F418
:103BF00061E085E307DA61E085E346DA8CB5806150
:103C00008CBD8CB580648CBD61E084E33DDA61E0FD
:103C100083E33ADA809112058F5F80931205FFBE2D
:103C200082E580936A0810926B0880916A089091EF
:103C30006B080E94A30EFAE0FF2E8FEF0E94680E21
:103C4000FA94F110FACF8CE698E00E94A60E20E0DC
:103C500030E0A90160E08CE698E00E94BB0EF82EEF
:103C60008093760881E0F81641F04ADA601B710B08
:103C7000613D774060F381E055C02AEA31E040E0E1
:103C800050E068E08CE698E00E94BB0E82FF03C023
:103C9000F092770810C0E4E0FE2E0E946F0E809331
:103CA0007608FA94F110F9CF8A3A11F082E03AC01E
:103CB00082E08093770880917708823021F0C12CD0
:103CC000D12C760105C0C12CD12CE12C70E4F72E4B
:103CD00020E030E0A90167E38CE698E00E94BB0E8B
:103CE000A701960169E28CE698E00E94BB0E8093E2
:103CF0007608882341F004DA601B710B613D774040
:103D000038F388E00FC080917708823001F520E019
:103D100030E0A9016AE38CE698E00E94BB0E88239C
:103D200041F086E0809371088CE698E00E945D0E79
:103D300090C00E946F0E807C803C19F483E08093D9
:103D400077080E946F0E0E946F0E0E946F0E8CE625
:103D500098E00E945D0E80E580936A0810926B08DF
:103D600081E00E94EB12882329F080919B08882330
:103D700041F06FC080E00E94EB12882309F469C013
:103D8000F4CF80918F08803109F582E080939B0801
:103D90001092AD081092AE081092AF081092B008C1
:103DA0008091900890919108A0E0B0E065E0880FC4
:103DB000991FAA1FBB1F6A95D1F78093A9089093FA
:103DC000AA08A093AB08B093AC081DC0803209F0DC
:103DD00040C083E080939B084091920850919308E3
:103DE00060919408709195084093AD085093AE0887
:103DF0006093AF087093B00829EA38E088E798E04C
:103E0000F9DB882331F188E798E09093B20880933A
:103E1000B10881E080939A0810929C0810929D0846
:103E200010929E0810929F081092A0081092A1086C
:103E30001092A2081092A3081092A4081092A5084C
:103E40001092A6081092A7081092A80868E274E0E1
:103E500002C068E374E08DEC97E0F7DC65E574E0A0
:103E60008DEC97E0F2DC289A209A29982A982B98D2
:103E7000219A229A23986C98749A81E58CBD1DBC76
:103E8000289880EC0E949F07289AA5E3AA95F1F74D
:103E90000000289882E00E949F0788E20E949F0706
:103EA00082E00E949F0780E90E949F0781E00E94B4
:103EB0009F0783E00E949F07289A289883E00E942A
:103EC0009F078AE20E949F078FEF0E949F07182F8B
:103ED000289A813069F0809102018062809302010A
:103EE00065E674E08DEC97E0B0DC109213051BC022
:103EF00060E08CE00E94A50760E08DE00E94A507CD
:103F000060E680E60E94A50760E680E70E94A507BC
:103F100060E08FE00E94A50765E774E08DEC97E014
:103F200094DC1093130560E088E1AED860E084E093
:103F3000ABD861E08EE2A8D860E08FE0A5D862E857
:103F400074E08DEC97E081DC44E064E185EE98E07C
:103F50000E94161263E974E085EE98E019DC809106
:103F60001A0590911B050E94300869E974E08DECF8
:103F700097E06BDC1E01B4E02B0E311CF8948091AD
:103F8000280590912905A0912A05B0912B05892B30
:103F90008A2B8B2B49F4B4D860932805709329059C
:103FA00080932A0590932B058091240590912505F7
:103FB000A0912605B0912705892B8A2B8B2B49F4DC
:103FC0009FD86093240570932505809326059093D0
:103FD000270596D8609320057093210580932205CC
:103FE0009093230500912405109125052091260525
:103FF00030912705DC01CB01801B910BA20BB30B89
:10400000853F9140A105B10508F40AC1109224052D
:104010001092250510922605109227051092200572
:10402000109221051092220510922305809101051E
:1040300090910205019709F0A8C0809101028823A0
:1040400009F4A3C06AEA74E085EB98E00E94B41515
:104050008091FB049091FC046091FD047091FE043A
:104060008B01081B190B10931905009318058091FB
:10407000160590911705883291053CF4800F911F29
:10408000909317058093160504C01092170510929F
:1040900016056091FF047091000580E090E00E9499
:1040A000102A6B017C01B801110F880B990B0E943B
:1040B000122A4B015C016091F9047091FA04072EF9
:1040C000000C880B990B0E94122A9B01AC01C501C0
:1040D000B4010E944D2A2AE037ED43E25CE30E94DE
:1040E0004D2A4B015C016091160570911705072E52
:1040F000000C880B990B0E94122A2B013C01609145
:10410000F7047091F804072E000C880B990B0E949D
:10411000122A9B01AC01C301B2010E944D2A2AE080
:1041200037ED43E25CE30E944D2A20E030E0A90134
:104130000E944D2A9B01AC01C501B401E8D2A70140
:1041400096010E944D2A9B01AC01C701B601DFD246
:1041500047D36F3F710509F028F470930005609311
:10416000FF0406C08FEF90E0909300058093FF045A
:104170008091FB049091FC049093150580931405A5
:104180008091FF049091000530C06FEE72E085EBE6
:1041900098E00E94B41580917B00886080937B003A
:1041A00087E480937C0080917A00806480937A0019
:1041B00080917A0086FDFCCF209178008091790073
:1041C00030E0382BAEE5B1E00E94522B2FEF33E008
:1041D00040E050E00E94042BDA01C901C297A10916
:1041E000B109909300058093FF040E94751488E143
:1041F0000E94DA178130910529F49093020580938B
:10420000010507C0109202051092010591E09093FC
:10421000010284E00E94DA17019711F41092010262
:104220000E94801860931C0570931D0580931E05E5
:1042300090931F05009128051091290520912A05CA
:1042400030912B05DC01CB01801B910BA20BB30B32
:10425000853F9140A105B105D8F080911A05909154
:104260001B05019690931B0580931A051092280553
:104270001092290510922A0510922B0510921C0508
:1042800010921D0510921E0510921F050E94300805
:1042900078948091B9099091BA09DC01ED91FC9173
:1042A0000480F581E02D1995892B79F18091B90968
:1042B0009091BA09DC01ED91FC910680F781E02D27
:1042C00019958093030990910E09891350C010929B
:1042D0000B0910920A0941E159E06CE079E084E0B1
:1042E00099E00E94AE297C019093100980930F09F8
:1042F000892B59F0A0901309B090140955E1C52EEF
:1043000059E0D52E00E010E008C080910402882317
:1043100009F4CEC05BC00F5F1F4F0A151B050CF0E0
:10432000CAC046E050E0B601C701C0D4B8E0CB0E29
:10433000D11C892B81F743E0000F111F4A95E1F74B
:10434000F801E350F74F068CF78DE02D1995109288
:10435000040910920509109206091092070910929B
:1043600008091092090910920B0910920A0910917C
:104370000309812F012E000C990B75D4892B09F4A8
:1043800088CF80910A0990910B099C012F5F3F4FC4
:1043900030930B0920930A09FC01E350F74F178370
:1043A000F901E350F74F1782263031050CF471CF35
:1043B00010920B0910920A096CCF1E821F82188678
:1043C00060EE8FE00E944514649B03C0649BF5CFB0
:1043D0005EC0289880EB0E949F078FEF0E949F0786
:1043E000289A8C878C8586FD05C08C8587FFEECF4B
:1043F00084E901C080E928980E949F078FEF0E94FE
:104400009F07082F8FEF0E949F07829586958770E0
:10441000B8E00B9F80011124082B8FEF0E949F07AB
:104420008FEF0E949F078FEF0E949F078F70D82EFB
:104430008C8571018E2D82198D1538F48FEF0E94B5
:104440009F07F70181937F01F5CF289A8C8586FF1E
:1044500002C061E001C062E08CE20E9445140F3DA1
:10446000174009F0B3CF8E818C3009F0AFCF8F8128
:1044700090E0982F88272885820F911D9595879524
:104480009595879590930F0580930E059FCF0E9479
:1044900080187093030260930202209110053091FE
:1044A0001105621B730B693E734014F00E94BB0739
:1044B0000E94AF1663CDE091B509F091B60946CFE1
:1044C000E0E3F7E01382128248EE53E060E070E030
:1044D000448355836683778387E292E09183808368
:1044E00025ED30E03587248724ED30E037872687B7
:1044F00020ED30E0318B208B21ED30E0338B228BAF
:1045000022ED30E0358B248B26ED30E0378B268B87
:10451000118E128E138E148EEDECF7E01382128240
:1045200044835583668377839183808385EC90E011
:104530009587848784EC90E09787868780EC90E06D
:10454000918B808B81EC90E0938B828B82EC90E05E
:10455000958B848B86EC90E0978B868B118E128ED8
:10456000138E148EAAE6B8E080E58C9311961C9207
:10457000ACE6B8E015961C92159716961C92169705
:1045800019961C9219971B961C921B9742E050E0BB
:1045900060E070E01C964D935D936D937C931F9744
:1045A00093961C9293979D961C921E929C9787E4DB
:1045B00092E09B969C938E939A979F961C92ADEF58
:1045C000B8E0F093BA09E093B9091092B8091092D3
:1045D000B7091092BD0980E290E050969C938E93AB
:1045E0001F978DE051968C93519757961C921E926F
:1045F000569717961C92179718961C92189719960B
:104600001C9219971A961C921A971B961C921B972C
:104610001C961C921C971E961C921E921D97E5EEEE
:10462000F8E0138212828FE492E09183808384E227
:1046300084838FEF858382E2868380E287838EE1A5
:1046400080878CE181878AE18287138614861586AC
:104650001686178641E060E1CF010E9416126EEACD
:1046600074E08FED98E072D868EB74E089ED98E023
:104670006DD860EC74E083ED98E068D86AEC74E083
:104680008DEC98E063D86FEC74E087EC98E05ED82E
:1046900069ED74E081EC98E059D861EE74E08BEB41
:1046A00098E054D86FEE72E085EB98E04FC897FB26
:1046B000072E16F4009406D077FD08D013D007FC1F
:1046C00005D03EF4909581959F4F08957095619522
:1046D0007F4F0895EE0FFF1F881F8BBF0790F69145
:1046E000E02D1994AA1BBB1B51E107C0AA1FBB1FD9
:1046F000A617B70710F0A61BB70B881F991F5A956E
:10470000A9F780959095BC01CD0108955058BB271D
:10471000AA270ED03FC730D730F035D720F031F47C
:104720009F3F11F41EF425C70EF4E095E7FB1BC76D
:10473000E92F41D780F3BA176207730784079507FB
:1047400018F071F49EF559C70EF4E0950B2EBA2FB0
:10475000A02D0B01B90190010C01CA01A001112487
:10476000FF27591B99F0593F50F4503E68F11A1633
:10477000F040A22F232F342F4427585FF3CF4695C4
:1047800037952795A795F0405395C9F77EF41F16E6
:10479000BA0B620B730B840BBAF09150A1F0FF0FB0
:1047A000BB1F661F771F881FC2F70EC0BA0F621F9C
:1047B000731F841F48F4879577956795B795F7958C
:1047C0009E3F08F0B3CF9395880F08F09927EE0F1E
:1047D00097958795089504D06894B1110FC70895EF
:1047E000F2D688F09F5790F0B92F9927B751A0F0D3
:1047F000D1F0660F771F881F991F1AF0BA95C9F775
:1048000012C0B13081F0F9D6B1E00895F6C6672F35
:10481000782F8827B85F39F0B93FCCF38695779524
:104820006795B395D9F73EF490958095709561950D
:104830007F4F8F4F9F4F0895CF93DF938230910525
:1048400010F482E090E0E091CE09F091CF0920E0F1
:1048500030E0C0E0D0E0309711F14081518148173D
:104860005907C0F04817590761F482819381209756
:1048700019F09B838A832BC09093CF098093CE0934
:1048800026C02115310519F04217530718F49A0173
:10489000BE01DF01EF010280F381E02DDCCF2115A5
:1048A000310509F1281B390B2430310590F412969B
:1048B0008D919C9113976115710521F0FB019383F4
:1048C000828304C09093CF098093CE09FD01329674
:1048D00044C0FD01E20FF31F8193919322503109EF
:1048E0002D933C933AC02091CC093091CD09232BD4
:1048F00041F420910B0230910C023093CD092093AA
:10490000CC092091090230910A022115310541F4A8
:104910002DB73EB740910D0250910E02241B350B6E
:10492000E091CC09F091CD09E217F307A0F42E1B1A
:104930003F0B2817390778F0AC014E5F5F4F241703
:10494000350748F04E0F5F1F5093CD094093CC09B7
:104950008193919302C0E0E0F0E0CF01DF91CF912D
:1049600008950F931F93CF93DF93009709F48CC0A2
:10497000FC013297138212820091CE091091CF0967
:104980000115110581F420813181820F931F20913F
:10499000CC093091CD092817390779F5F093CD0965
:1049A000E093CC0971C0D80140E050E0AE17BF07DA
:1049B00050F412962D913C911397AD0121153105BC
:1049C00009F1D901F3CF9D01DA013383228360819C
:1049D0007181860F971F8217930769F4EC01288174
:1049E0003981260F371F2E5F3F4F318320838A8105
:1049F0009B8193838283452B29F4F093CF09E09325
:104A0000CE0942C01396FC93EE931297ED014991A3
:104A100059919E01240F351FE217F30771F480812D
:104A20009181840F951F029611969C938E9382819B
:104A3000938113969C938E931297E0E0F0E0D80157
:104A400012968D919C911397009719F0F8018C01A3
:104A5000F6CF8D919C9198012E5F3F4F820F931F4F
:104A60002091CC093091CD092817390769F4309786
:104A700029F41092CF091092CE0902C0138212823B
:104A80001093CD090093CC09DF91CF911F910F9125
:104A900008956F927F928F929F92AF92BF92CF9222
:104AA000DF92EF92FF920F931F93CF93DF93EC016E
:104AB000009781F4CB01DF91CF911F910F91FF906F
:104AC000EF90DF90CF90BF90AF909F908F907F90AE
:104AD0006F90B2CEFC01E60FF71F9C012250310906
:104AE000E217F30708F4A8C0D9010D911C911197A2
:104AF00006171707A8F00530110508F49BC0C80178
:104B000004978617970708F495C002501109061BF1
:104B1000170B019311936D937C93CF0122DF8AC011
:104B20005B01A01AB10A4C01800E911EA091CE0922
:104B3000B091CF0940E050E0E12CF12C109709F43E
:104B40004AC0A815B905D1F56D907C901197630105
:104B500082E0C80ED11CCA14DB0480F1A3014A19FB
:104B60005B096A0182E0C80ED11C1296BC901297B4
:104B70001396AC91B5E0CB16D10440F0B282A3837A
:104B800051834083D9016D937C930AC00E5F1F4F00
:104B9000C301800F911FF90191838083EB2DFA2FC0
:104BA000E114F10431F0D7011396FC93EE931297C0
:104BB00041C0F093CF09E093CE093CC08D919C9108
:104BC00011974817590708F4AC017D0112960D9012
:104BD000BC91A02DB3CF8091CC099091CD098815BF
:104BE0009905E1F446175707C8F48091090290919E
:104BF0000A02009741F48DB79EB740910D02509183
:104C00000E02841B950BE817F907B0F4F093CD0959
:104C1000E093CC09F901718360830CC0CB010CDEF9
:104C20007C01009749F0A801BE0130D0CE0199DE89
:104C3000C70104C0CE0102C080E090E0DF91CF91B7
:104C40001F910F91FF90EF90DF90CF90BF90AF90AA
:104C50009F908F907F906F90089581E090E0F894FE
:104C600030C5803209F091117BC480528F55E0F736
:104C70000895FB01DC0104C08D910190801921F49D
:104C800041505040C8F7881B990B0895FB01DC0187
:104C900002C001900D9241505040D8F70895FB0199
:104CA000DC0101900D920020E1F70895FB01DC0189
:104CB0004150504030F08D910190801919F400203E
:104CC000B9F7881B990B0895FB01DC014150504056
:104CD00048F001900D920020C9F701C01D9241508B
:104CE0005040E0F708950F931F93CF93DF93CDB714
:104CF000DEB72E970FB6F894DEBF0FBECDBF0E897C
:104D00001F8986E08C831A8309838FEF9FE79E8338
:104D10008D83AE01465E5F4F688D798DCE01019621
:104D200011D02F813885F801E20FF31F10822E96E3
:104D30000FB6F894DEBF0FBECDBFDF91CF911F91AC
:104D40000F9108952F923F924F925F926F927F92B0
:104D50008F929F92AF92BF92CF92DF92EF92FF928B
:104D60000F931F93CF93DF93CDB7DEB72C970FB67A
:104D7000F894DEBF0FBECDBF7C016B018A01FC0140
:104D800017821682838181FFB0C1CE0101964C014A
:104D9000F7019381F60193FD859193FF81916F0156
:104DA000882309F49EC1853239F493FD859193FFE0
:104DB00081916F01853221F4B70190E0C7D1E8CF2E
:104DC000512C312C20E02032A0F48B3269F030F4E9
:104DD000803259F0833269F420612CC08D3239F071
:104DE000803339F4216026C02260246023C028600B
:104DF00021C027FD27C030ED380F3A3078F426FF68
:104E000006C0FAE05F9E300D1124532E13C08AE0D5
:104E1000389E300D1124332E20620CC08E3221F4C6
:104E200026FD5FC1206406C08C3611F4206802C0E4
:104E3000883641F4F60193FD859193FF81916F01CE
:104E40008111C1CF982F9F7D9554933028F40C5F2A
:104E50001F4FFFE3F9830DC0833631F0833771F0C4
:104E6000833509F057C021C0F801808189830E5F26
:104E70001F4F44244394512C540114C03801F2E0D4
:104E80006F0E711CF801A080B18026FF03C0652D54
:104E900070E002C06FEF7FEFC5012C874CD12C0171
:104EA00083012C852F77222E16C03801F2E06F0E79
:104EB000711CF801A080B18026FF03C0652D70E051
:104EC00002C06FEF7FEFC5012C872AD12C012C8502
:104ED0002068222E830123FC19C0832D90E0481600
:104EE0005906A0F4B70180E290E030D13A94F5CFB2
:104EF000F50127FC859127FE81915F01B70190E0C4
:104F000025D131103A94F1E04F1A5108411451045F
:104F100079F7DEC0843611F0893631F5F80127FFC4
:104F200007C060817181828193810C5F1F4F08C02F
:104F300060817181072E000C880B990B0E5F1F4F4B
:104F40002F76722E97FF09C0909580957095619588
:104F50007F4F8F4F9F4F2068722E2AE030E0A401D0
:104F60002DD1A82EA81843C0853729F42F7EB22E44
:104F70002AE030E025C0F22FF97FBF2E8F36C1F036
:104F800018F4883579F0ADC0803719F0883721F0F2
:104F9000A8C02F2F2061B22EB4FE0DC08B2D8460CF
:104FA000B82E09C024FF0AC09F2F9660B92E06C0F4
:104FB00028E030E005C020E130E002C020E132E02E
:104FC000F801B7FE07C060817181828193810C5F17
:104FD0001F4F06C06081718180E090E00E5F1F4F1F
:104FE000A401ECD0A82EA818FB2DFF777F2E76FE0B
:104FF0000BC0372D3E7FA51450F474FE0AC072FC1E
:1050000008C0372D3E7E05C0BA2C372D03C0BA2C00
:1050100001C0B52C34FF0DC0FE01EA0DF11D8081E9
:10502000803311F4397E09C032FF06C0B394B394C3
:1050300004C0832F867809F0B39433FD12C030FF8B
:1050400006C05A2CB31418F4530C5B18B32CB314C9
:1050500060F4B70180E290E03C8778D0B3943C855F
:10506000F6CFB31410F43B1801C0312C34FF11C03B
:10507000B70180E390E03C8769D03C8532FF16C0E1
:1050800031FD03C088E790E002C088E590E0B701F9
:105090000CC0832F867851F031FF02C08BE201C033
:1050A00080E237FD8DE2B70190E050D0A51430F4D6
:1050B000B70180E390E04AD05A94F8CFAA94F40163
:1050C000EA0DF11D8081B70190E040D0A110F6CF2C
:1050D000332009F45DCEB70180E290E037D03A94F6
:1050E000F7CFF7018681978102C08FEF9FEF2C9653
:1050F0000FB6F894DEBF0FBECDBFDF91CF911F91E9
:105100000F91FF90EF90DF90CF90BF90AF909F9066
:105110008F907F906F905F904F903F902F90089569
:10512000FC010590615070400110D8F78095909572
:105130008E0F9F1F0895FC01615070400190011077
:10514000D8F7809590958E0F9F1F08950F931F930A
:10515000CF93DF93FB01238121FD03C08FEF9FEFEE
:1051600028C022FF16C0468157812481358142170D
:10517000530744F4A081B1819D012F5F3F4F3183DC
:1051800020838C93268137812F5F3F4F378326837F
:1051900010C0EB01092F182F0084F185E02D19951F
:1051A000892BE1F68E819F8101969F838E83812FCB
:1051B000902FDF91CF911F910F910895FA01AA27A7
:1051C000283051F1203181F1E8946F936E7F6E5F4A
:1051D0007F4F8F4F9F4FAF4FB1E03ED0B4E03CD0F8
:1051E000670F781F891F9A1FA11D680F791F8A1FDB
:1051F000911DA11D6A0F711D811D911DA11D20D042
:1052000009F468943F912AE0269F11243019305DFB
:105210003193DEF6CF010895462F4770405D4193EC
:10522000B3E00FD0C9F7F6CF462F4F70405D4A3339
:1052300018F0495D31FD4052419302D0A9F7EACF01
:10524000B4E0A6959795879577956795BA95C9F730
:1052500000976105710508959B01AC010A2E069423
:105260005795479537952795BA95C9F7620F731FDC
:10527000841F951FA01D08958F929F92AF92BF9299
:10528000CF92DF92EF92FF92CF93DF93EC01688190
:1052900079818A819B81611571058105910521F4D0
:1052A00064E279ED8BE597E02DE133EF41E050E0EA
:1052B000ABD149015A019B01AC01A7EAB1E4C0D1CD
:1052C0006B017C01ACEEB4EFA5019401C5D1DC010A
:1052D000CB018C0D9D1DAE1DBF1DB7FF03C00197F7
:1052E000A109B04888839983AA83BB83BC01CD01FF
:1052F0009F77DF91CF91FF90EF90DF90CF90BF909D
:10530000AF909F908F900895B7CF8FE092E0B4CF89
:1053100060930F0270931002809311029093120217
:105320000895FC0188279927E89421912032E9F318
:10533000293010F02E30C8F32B3239F02D3231F4F1
:10534000689403C03CD0820F911D219120532A30D4
:10535000C8F31EF4909581959F4F0895FA01A1918D
:10536000B081009719F41097E1F0CD01DC01CD0177
:105370000D90002011F4C00113C0FB0121912223E4
:1053800019F02015D9F7F3CFFB012191201519F45D
:105390001E92119606C02223C1F70D900020A1F79E
:1053A000D001FA01A193B0830895BB274A3031F4AC
:1053B000992322F4BDE2909581959F4F09C07AE030
:1053C000979F902D879F802D910D11240895BB27C5
:1053D000FB015527AA27880F991FAA1FA41710F0B1
:1053E000A41B83955051B9F7A05DAA3308F0A95DBD
:1053F000A193009779F7B111B1931192CB0100C03D
:10540000DC01FC01672F71917723E1F7329704C02B
:105410007C916D9370836291AE17BF07C8F30895B6
:10542000E89409C097FB3EF490958095709561953E
:105430007F4F8F4F9F4F9923A9F0F92F96E9BB27F4
:105440009395F695879577956795B795F111F8CF70
:10545000FAF4BB0F11F460FF1BC06F5F7F4F8F4FDB
:105460009F4F16C0882311F096E911C0772321F0D1
:105470009EE8872F762F05C0662371F096E8862F69
:1054800070E060E02AF09A95660F771F881FDAF7C0
:10549000880F9695879597F908950BD07BC06CD0AF
:1054A00028F071D018F0952309F05DC062C0112476
:1054B000A5C081D0A0F3959FD1F3950F50E0551F63
:1054C000629FF001729FBB27F00DB11D639FAA2759
:1054D000F00DB11DAA1F649F6627B00DA11D661FA8
:1054E000829F2227B00DA11D621F739FB00DA11DC9
:1054F000621F839FA00D611D221F749F3327A00D83
:10550000611D231F849F600D211D822F762F6A2F1E
:1055100011249F5750408AF0E1F088234AF0EE0FA3
:10552000FF1FBB1F661F771F881F91505040A9F7B0
:105530009E3F510570F017C061C05F3FECF3983E8D
:10554000DCF3869577956795B795F795E7959F5F17
:10555000C1F7FE2B880F911D9695879597F90895B1
:1055600099278827089597F99F6780E870E060E0A1
:1055700008959FEF80EC089500240A9416161706EC
:1055800018060906089500240A9412161306140634
:1055900005060895092E0394000C11F4882352F097
:1055A000BB0F40F4BF2B11F460FF04C06F5F7F4F4F
:1055B0008F4F9F4F089557FD9058440F551F59F036
:1055C0005F3F71F04795880F97FB991F61F09F3FF0
:1055D00079F087950895121613061406551FF2CF19
:1055E0004695F1DF08C0161617061806991FF1CF69
:1055F00086957105610508940895E894BB27662790
:105600007727CB0197F90895052E97FB16F40094A0
:105610000FD057FD05D024D007FC02D046F408C0B7
:1056200050954095309521953F4F4F4F5F4F0895CE
:1056300090958095709561957F4F8F4F9F4F0895FE
:1056400031D0A59F900DB49F900DA49F800D911D0A
:1056500011240895B7FFF4CFF3DF821B930B089555
:10566000A1E21A2EAA1BBB1BFD010DC0AA1FBB1F66
:10567000EE1FFF1FA217B307E407F50720F0A21BD8
:10568000B30BE40BF50B661F771F881F991F1A9445
:1056900069F760957095809590959B01AC01BD016F
:1056A000CF010895A29FB001B39FC001A39F700DC9
:1056B000811D1124911DB29F700D811D1124911D1A
:1056C000089511E0CFE2D1E000E005C0802FFE0197
:1056D00001D82196011DC033D10780E00807B1F73A
:0456E000F894FFCF6C
:1056E4000101E90301FFFFFFFF0000D00980000171
:1056F400000000000000006201EF02630984092435
:105704000ECB09000000004816621B0916E715FBC2
:10571400158E16000000003417621B34173417343A
:10572400173417000000008E11621B000000004EA9
:1057340019621B000000003417621BCD074C6F6711
:1057440067696E672064697361626C6564004C6F9D
:105754006767696E6720656E61626C656400556E8B
:105764007265636F676E697A656420636F6D6D61DE
:105774006E640043432044697361626C6564004352
:105784004320456E61626C656400646174616C6F92
:10579400672E747874006572726F72206F70656E14
:1057A400696E67206C6F672066696C652E00530014
:1057B40049003530300052004E6F20617267756DBC
:1057C400656E7473000D0A004C4544206973204FC4
:1057D4004646004C4544206973204F4E0054696D81
:1057E400657374616D702C202056656C6F636974E9
:1057F400792C20205468726F74746C652C20502DA1
:1058040076616C75652C20492D76616C75652C204C
:10581400442D76616C75652C20204372756973651F
:10582400436F6E74726F6C4F6E2C202043414E6D2B
:10583400736731002564206D732C2020202025649B
:105844002C202020202020202025642C20202020F3
:10585400202025642C2020202020202025642C209A
:10586400202020202025642C202020202020256496
:105874002C2020202020202025640A005862656501
:105884002073657269616C20696E697469616C6901
:105894007A65642E0041726475696E6F2073657257
:1058A40069616C20696E697469616C697A65642EDA
:1058B400004745545350004745545454004543430E
:1058C400004443430047455443430043435350007B
:1058D40050494400454C00444C004745544C004357
:1058E400494E464F00436F6D6D616E64732053657E
:1058F400742061646465642E0053657474696E6712
:105904002075702053442E00534420696E697469D5
:10591400616C697A65642E00436172642066616912
:105924006C65642C206F72206E6F742070726573C6
:10593400656E742E0053657474696E6720757020EB
:1059440043414E2E0043616E277420696E697420B2
:1059540043414E2E0043414E20496E6974204F6BE3
:105964002E0050494420696E697469616C697A65D6
:10597400642E005374617274004C434420696E6950
:105984007469616C697A65642E004F4E200053700F
:1059940065656420203A2000206B6D2F682020006C
:1059A4004261745761726E3A20004E4F4E45004278
:1059B4006174507772203A200020566F6C74202056
:0C59C40000437275697365433A200000CF
:00000001FF
